{
	"contracts/CrowdTank.sol": {
		"CrowdTank": {
			"abi": [
				{
					"anonymous": false,
					"inputs": [
						{
							"indexed": true,
							"internalType": "uint256",
							"name": "projectId",
							"type": "uint256"
						},
						{
							"indexed": true,
							"internalType": "address",
							"name": "withdrawer",
							"type": "address"
						},
						{
							"indexed": false,
							"internalType": "uint256",
							"name": "amount",
							"type": "uint256"
						},
						{
							"indexed": false,
							"internalType": "string",
							"name": "withdrawerType",
							"type": "string"
						}
					],
					"name": "FundsWithdrawn",
					"type": "event"
				},
				{
					"anonymous": false,
					"inputs": [
						{
							"indexed": true,
							"internalType": "uint256",
							"name": "projectId",
							"type": "uint256"
						},
						{
							"indexed": true,
							"internalType": "address",
							"name": "creater",
							"type": "address"
						},
						{
							"indexed": false,
							"internalType": "string",
							"name": "name",
							"type": "string"
						},
						{
							"indexed": false,
							"internalType": "string",
							"name": "description",
							"type": "string"
						},
						{
							"indexed": false,
							"internalType": "uint256",
							"name": "FundingGoal",
							"type": "uint256"
						},
						{
							"indexed": false,
							"internalType": "uint256",
							"name": "deadline",
							"type": "uint256"
						}
					],
					"name": "ProjectCreated",
					"type": "event"
				},
				{
					"anonymous": false,
					"inputs": [
						{
							"indexed": true,
							"internalType": "uint256",
							"name": "projectId",
							"type": "uint256"
						},
						{
							"indexed": true,
							"internalType": "address",
							"name": "contributer",
							"type": "address"
						},
						{
							"indexed": false,
							"internalType": "uint256",
							"name": "amount",
							"type": "uint256"
						}
					],
					"name": "ProjectFunded",
					"type": "event"
				},
				{
					"inputs": [
						{
							"internalType": "uint256",
							"name": "_projectId",
							"type": "uint256"
						}
					],
					"name": "adminWithdrawFunds",
					"outputs": [],
					"stateMutability": "payable",
					"type": "function"
				},
				{
					"inputs": [
						{
							"internalType": "uint256",
							"name": "",
							"type": "uint256"
						},
						{
							"internalType": "address",
							"name": "",
							"type": "address"
						}
					],
					"name": "contributions",
					"outputs": [
						{
							"internalType": "uint256",
							"name": "",
							"type": "uint256"
						}
					],
					"stateMutability": "view",
					"type": "function"
				},
				{
					"inputs": [
						{
							"internalType": "string",
							"name": "_name",
							"type": "string"
						},
						{
							"internalType": "string",
							"name": "_description",
							"type": "string"
						},
						{
							"internalType": "uint256",
							"name": "_fundingGoal",
							"type": "uint256"
						},
						{
							"internalType": "uint256",
							"name": "_durationSeconds",
							"type": "uint256"
						},
						{
							"internalType": "uint256",
							"name": "_id",
							"type": "uint256"
						}
					],
					"name": "createProject",
					"outputs": [],
					"stateMutability": "nonpayable",
					"type": "function"
				},
				{
					"inputs": [
						{
							"internalType": "uint256",
							"name": "_projectId",
							"type": "uint256"
						}
					],
					"name": "fundProject",
					"outputs": [],
					"stateMutability": "payable",
					"type": "function"
				},
				{
					"inputs": [
						{
							"internalType": "uint256",
							"name": "",
							"type": "uint256"
						}
					],
					"name": "isIdUsed",
					"outputs": [
						{
							"internalType": "bool",
							"name": "",
							"type": "bool"
						}
					],
					"stateMutability": "view",
					"type": "function"
				},
				{
					"inputs": [
						{
							"internalType": "uint256",
							"name": "",
							"type": "uint256"
						}
					],
					"name": "projects",
					"outputs": [
						{
							"internalType": "address",
							"name": "creator",
							"type": "address"
						},
						{
							"internalType": "string",
							"name": "name",
							"type": "string"
						},
						{
							"internalType": "string",
							"name": "description",
							"type": "string"
						},
						{
							"internalType": "uint256",
							"name": "fundingGoal",
							"type": "uint256"
						},
						{
							"internalType": "uint256",
							"name": "deadline",
							"type": "uint256"
						},
						{
							"internalType": "uint256",
							"name": "amountRaised",
							"type": "uint256"
						},
						{
							"internalType": "bool",
							"name": "funded",
							"type": "bool"
						}
					],
					"stateMutability": "view",
					"type": "function"
				},
				{
					"inputs": [
						{
							"internalType": "uint256",
							"name": "_projectId",
							"type": "uint256"
						}
					],
					"name": "userWithdrawFunds",
					"outputs": [],
					"stateMutability": "payable",
					"type": "function"
				}
			],
			"devdoc": {
				"kind": "dev",
				"methods": {},
				"version": 1
			},
			"evm": {
				"assembly": "    /* \"contracts/CrowdTank.sol\":145:3652  contract CrowdTank{... */\n  mstore(0x40, 0x80)\n  callvalue\n  dup1\n  iszero\n  tag_1\n  jumpi\n  0x00\n  dup1\n  revert\ntag_1:\n  pop\n  dataSize(sub_0)\n  dup1\n  dataOffset(sub_0)\n  0x00\n  codecopy\n  0x00\n  return\nstop\n\nsub_0: assembly {\n        /* \"contracts/CrowdTank.sol\":145:3652  contract CrowdTank{... */\n      mstore(0x40, 0x80)\n      jumpi(tag_1, lt(calldatasize, 0x04))\n      shr(0xe0, calldataload(0x00))\n      dup1\n      0x6c563abe\n      gt\n      tag_9\n      jumpi\n      dup1\n      0x6c563abe\n      eq\n      tag_5\n      jumpi\n      dup1\n      0x7b12376e\n      eq\n      tag_6\n      jumpi\n      dup1\n      0xb1357b68\n      eq\n      tag_7\n      jumpi\n      dup1\n      0xf81bf601\n      eq\n      tag_8\n      jumpi\n      jump(tag_1)\n    tag_9:\n      dup1\n      0x107046bd\n      eq\n      tag_2\n      jumpi\n      dup1\n      0x3d891f59\n      eq\n      tag_3\n      jumpi\n      dup1\n      0x592cef6d\n      eq\n      tag_4\n      jumpi\n    tag_1:\n      0x00\n      dup1\n      revert\n        /* \"contracts/CrowdTank.sol\":515:552  mapping(uint=>Project)public projects */\n    tag_2:\n      callvalue\n      dup1\n      iszero\n      tag_10\n      jumpi\n      0x00\n      dup1\n      revert\n    tag_10:\n      pop\n      tag_11\n      0x04\n      dup1\n      calldatasize\n      sub\n      dup2\n      add\n      swap1\n      tag_12\n      swap2\n      swap1\n      tag_13\n      jump\t// in\n    tag_12:\n      tag_14\n      jump\t// in\n    tag_11:\n      mload(0x40)\n      tag_15\n      swap8\n      swap7\n      swap6\n      swap5\n      swap4\n      swap3\n      swap2\n      swap1\n      tag_16\n      jump\t// in\n    tag_15:\n      mload(0x40)\n      dup1\n      swap2\n      sub\n      swap1\n      return\n        /* \"contracts/CrowdTank.sol\":620:677  mapping(uint=>mapping(address=>uint))public contributions */\n    tag_3:\n      callvalue\n      dup1\n      iszero\n      tag_17\n      jumpi\n      0x00\n      dup1\n      revert\n    tag_17:\n      pop\n      tag_18\n      0x04\n      dup1\n      calldatasize\n      sub\n      dup2\n      add\n      swap1\n      tag_19\n      swap2\n      swap1\n      tag_20\n      jump\t// in\n    tag_19:\n      tag_21\n      jump\t// in\n    tag_18:\n      mload(0x40)\n      tag_22\n      swap2\n      swap1\n      tag_23\n      jump\t// in\n    tag_22:\n      mload(0x40)\n      dup1\n      swap2\n      sub\n      swap1\n      return\n        /* \"contracts/CrowdTank.sol\":2828:3182  function userWithdrawFunds(uint _projectId)external payable{... */\n    tag_4:\n      tag_24\n      0x04\n      dup1\n      calldatasize\n      sub\n      dup2\n      add\n      swap1\n      tag_25\n      swap2\n      swap1\n      tag_13\n      jump\t// in\n    tag_25:\n      tag_26\n      jump\t// in\n    tag_24:\n      stop\n        /* \"contracts/CrowdTank.sol\":2223:2822  function fundProject(uint _projectId)external payable{... */\n    tag_5:\n      tag_27\n      0x04\n      dup1\n      calldatasize\n      sub\n      dup2\n      add\n      swap1\n      tag_28\n      swap2\n      swap1\n      tag_13\n      jump\t// in\n    tag_28:\n      tag_29\n      jump\t// in\n    tag_27:\n      stop\n        /* \"contracts/CrowdTank.sol\":735:769  mapping(uint=>bool)public isIdUsed */\n    tag_6:\n      callvalue\n      dup1\n      iszero\n      tag_30\n      jumpi\n      0x00\n      dup1\n      revert\n    tag_30:\n      pop\n      tag_31\n      0x04\n      dup1\n      calldatasize\n      sub\n      dup2\n      add\n      swap1\n      tag_32\n      swap2\n      swap1\n      tag_13\n      jump\t// in\n    tag_32:\n      tag_33\n      jump\t// in\n    tag_31:\n      mload(0x40)\n      tag_34\n      swap2\n      swap1\n      tag_35\n      jump\t// in\n    tag_34:\n      mload(0x40)\n      dup1\n      swap2\n      sub\n      swap1\n      return\n        /* \"contracts/CrowdTank.sol\":3188:3649  function adminWithdrawFunds(uint _projectId)external payable{... */\n    tag_7:\n      tag_36\n      0x04\n      dup1\n      calldatasize\n      sub\n      dup2\n      add\n      swap1\n      tag_37\n      swap2\n      swap1\n      tag_13\n      jump\t// in\n    tag_37:\n      tag_38\n      jump\t// in\n    tag_36:\n      stop\n        /* \"contracts/CrowdTank.sol\":1256:2158  function createProject(... */\n    tag_8:\n      callvalue\n      dup1\n      iszero\n      tag_39\n      jumpi\n      0x00\n      dup1\n      revert\n    tag_39:\n      pop\n      tag_40\n      0x04\n      dup1\n      calldatasize\n      sub\n      dup2\n      add\n      swap1\n      tag_41\n      swap2\n      swap1\n      tag_42\n      jump\t// in\n    tag_41:\n      tag_43\n      jump\t// in\n    tag_40:\n      stop\n        /* \"contracts/CrowdTank.sol\":515:552  mapping(uint=>Project)public projects */\n    tag_14:\n      mstore(0x20, 0x00)\n      dup1\n      0x00\n      mstore\n      keccak256(0x00, 0x40)\n      0x00\n      swap2\n      pop\n      swap1\n      pop\n      dup1\n      0x00\n      add\n      0x00\n      swap1\n      sload\n      swap1\n      0x0100\n      exp\n      swap1\n      div\n      0xffffffffffffffffffffffffffffffffffffffff\n      and\n      swap1\n      dup1\n      0x01\n      add\n      dup1\n      sload\n      tag_44\n      swap1\n      tag_45\n      jump\t// in\n    tag_44:\n      dup1\n      0x1f\n      add\n      0x20\n      dup1\n      swap2\n      div\n      mul\n      0x20\n      add\n      mload(0x40)\n      swap1\n      dup2\n      add\n      0x40\n      mstore\n      dup1\n      swap3\n      swap2\n      swap1\n      dup2\n      dup2\n      mstore\n      0x20\n      add\n      dup3\n      dup1\n      sload\n      tag_46\n      swap1\n      tag_45\n      jump\t// in\n    tag_46:\n      dup1\n      iszero\n      tag_47\n      jumpi\n      dup1\n      0x1f\n      lt\n      tag_48\n      jumpi\n      0x0100\n      dup1\n      dup4\n      sload\n      div\n      mul\n      dup4\n      mstore\n      swap2\n      0x20\n      add\n      swap2\n      jump(tag_47)\n    tag_48:\n      dup3\n      add\n      swap2\n      swap1\n      0x00\n      mstore\n      keccak256(0x00, 0x20)\n      swap1\n    tag_49:\n      dup2\n      sload\n      dup2\n      mstore\n      swap1\n      0x01\n      add\n      swap1\n      0x20\n      add\n      dup1\n      dup4\n      gt\n      tag_49\n      jumpi\n      dup3\n      swap1\n      sub\n      0x1f\n      and\n      dup3\n      add\n      swap2\n    tag_47:\n      pop\n      pop\n      pop\n      pop\n      pop\n      swap1\n      dup1\n      0x02\n      add\n      dup1\n      sload\n      tag_50\n      swap1\n      tag_45\n      jump\t// in\n    tag_50:\n      dup1\n      0x1f\n      add\n      0x20\n      dup1\n      swap2\n      div\n      mul\n      0x20\n      add\n      mload(0x40)\n      swap1\n      dup2\n      add\n      0x40\n      mstore\n      dup1\n      swap3\n      swap2\n      swap1\n      dup2\n      dup2\n      mstore\n      0x20\n      add\n      dup3\n      dup1\n      sload\n      tag_51\n      swap1\n      tag_45\n      jump\t// in\n    tag_51:\n      dup1\n      iszero\n      tag_52\n      jumpi\n      dup1\n      0x1f\n      lt\n      tag_53\n      jumpi\n      0x0100\n      dup1\n      dup4\n      sload\n      div\n      mul\n      dup4\n      mstore\n      swap2\n      0x20\n      add\n      swap2\n      jump(tag_52)\n    tag_53:\n      dup3\n      add\n      swap2\n      swap1\n      0x00\n      mstore\n      keccak256(0x00, 0x20)\n      swap1\n    tag_54:\n      dup2\n      sload\n      dup2\n      mstore\n      swap1\n      0x01\n      add\n      swap1\n      0x20\n      add\n      dup1\n      dup4\n      gt\n      tag_54\n      jumpi\n      dup3\n      swap1\n      sub\n      0x1f\n      and\n      dup3\n      add\n      swap2\n    tag_52:\n      pop\n      pop\n      pop\n      pop\n      pop\n      swap1\n      dup1\n      0x03\n      add\n      sload\n      swap1\n      dup1\n      0x04\n      add\n      sload\n      swap1\n      dup1\n      0x05\n      add\n      sload\n      swap1\n      dup1\n      0x06\n      add\n      0x00\n      swap1\n      sload\n      swap1\n      0x0100\n      exp\n      swap1\n      div\n      0xff\n      and\n      swap1\n      pop\n      dup8\n      jump\t// out\n        /* \"contracts/CrowdTank.sol\":620:677  mapping(uint=>mapping(address=>uint))public contributions */\n    tag_21:\n      mstore(0x20, 0x01)\n      dup2\n      0x00\n      mstore\n      mstore(0x20, keccak256(0x00, 0x40))\n      dup1\n      0x00\n      mstore\n      keccak256(0x00, 0x40)\n      0x00\n      swap2\n      pop\n      swap2\n      pop\n      pop\n      sload\n      dup2\n      jump\t// out\n        /* \"contracts/CrowdTank.sol\":2828:3182  function userWithdrawFunds(uint _projectId)external payable{... */\n    tag_26:\n        /* \"contracts/CrowdTank.sol\":2898:2921  Project storage project */\n      0x00\n        /* \"contracts/CrowdTank.sol\":2922:2930  projects */\n      dup1\n        /* \"contracts/CrowdTank.sol\":2922:2942  projects[_projectId] */\n      0x00\n        /* \"contracts/CrowdTank.sol\":2931:2941  _projectId */\n      dup4\n        /* \"contracts/CrowdTank.sol\":2922:2942  projects[_projectId] */\n      dup2\n      mstore\n      0x20\n      add\n      swap1\n      dup2\n      mstore\n      0x20\n      add\n      0x00\n      keccak256\n        /* \"contracts/CrowdTank.sol\":2898:2942  Project storage project=projects[_projectId] */\n      swap1\n      pop\n        /* \"contracts/CrowdTank.sol\":2982:2989  project */\n      dup1\n        /* \"contracts/CrowdTank.sol\":2982:3001  project.fundingGoal */\n      0x03\n      add\n      sload\n        /* \"contracts/CrowdTank.sol\":2961:2968  project */\n      dup2\n        /* \"contracts/CrowdTank.sol\":2961:2981  project.amountRaised */\n      0x05\n      add\n      sload\n        /* \"contracts/CrowdTank.sol\":2961:3001  project.amountRaised<project.fundingGoal */\n      lt\n        /* \"contracts/CrowdTank.sol\":2953:3049  require(project.amountRaised<project.fundingGoal,\"Funding goal is reached , user cant withdraw\") */\n      tag_56\n      jumpi\n      mload(0x40)\n      0x08c379a000000000000000000000000000000000000000000000000000000000\n      dup2\n      mstore\n      0x04\n      add\n      tag_57\n      swap1\n      tag_58\n      jump\t// in\n    tag_57:\n      mload(0x40)\n      dup1\n      swap2\n      sub\n      swap1\n      revert\n    tag_56:\n        /* \"contracts/CrowdTank.sol\":3060:3080  uint fundContributed */\n      0x00\n        /* \"contracts/CrowdTank.sol\":3081:3094  contributions */\n      0x01\n        /* \"contracts/CrowdTank.sol\":3081:3106  contributions[_projectId] */\n      0x00\n        /* \"contracts/CrowdTank.sol\":3095:3105  _projectId */\n      dup5\n        /* \"contracts/CrowdTank.sol\":3081:3106  contributions[_projectId] */\n      dup2\n      mstore\n      0x20\n      add\n      swap1\n      dup2\n      mstore\n      0x20\n      add\n      0x00\n      keccak256\n        /* \"contracts/CrowdTank.sol\":3081:3118  contributions[_projectId][msg.sender] */\n      0x00\n        /* \"contracts/CrowdTank.sol\":3107:3117  msg.sender */\n      caller\n        /* \"contracts/CrowdTank.sol\":3081:3118  contributions[_projectId][msg.sender] */\n      0xffffffffffffffffffffffffffffffffffffffff\n      and\n      0xffffffffffffffffffffffffffffffffffffffff\n      and\n      dup2\n      mstore\n      0x20\n      add\n      swap1\n      dup2\n      mstore\n      0x20\n      add\n      0x00\n      keccak256\n      sload\n        /* \"contracts/CrowdTank.sol\":3060:3118  uint fundContributed=contributions[_projectId][msg.sender] */\n      swap1\n      pop\n        /* \"contracts/CrowdTank.sol\":3137:3147  msg.sender */\n      caller\n        /* \"contracts/CrowdTank.sol\":3129:3157  payable(msg.sender).transfer */\n      0xffffffffffffffffffffffffffffffffffffffff\n      and\n        /* \"contracts/CrowdTank.sol\":3129:3174  payable(msg.sender).transfer(fundContributed) */\n      0x08fc\n        /* \"contracts/CrowdTank.sol\":3158:3173  fundContributed */\n      dup3\n        /* \"contracts/CrowdTank.sol\":3129:3174  payable(msg.sender).transfer(fundContributed) */\n      swap1\n      dup2\n      iszero\n      mul\n      swap1\n      mload(0x40)\n      0x00\n      mload(0x40)\n      dup1\n      dup4\n      sub\n      dup2\n      dup6\n      dup9\n      dup9\n      call\n      swap4\n      pop\n      pop\n      pop\n      pop\n      iszero\n      dup1\n      iszero\n      tag_60\n      jumpi\n      returndatasize\n      0x00\n      dup1\n      returndatacopy\n      revert(0x00, returndatasize)\n    tag_60:\n      pop\n        /* \"contracts/CrowdTank.sol\":2887:3182  {... */\n      pop\n      pop\n        /* \"contracts/CrowdTank.sol\":2828:3182  function userWithdrawFunds(uint _projectId)external payable{... */\n      pop\n      jump\t// out\n        /* \"contracts/CrowdTank.sol\":2223:2822  function fundProject(uint _projectId)external payable{... */\n    tag_29:\n        /* \"contracts/CrowdTank.sol\":2287:2310  Project storage project */\n      0x00\n        /* \"contracts/CrowdTank.sol\":2311:2319  projects */\n      dup1\n        /* \"contracts/CrowdTank.sol\":2311:2331  projects[_projectId] */\n      0x00\n        /* \"contracts/CrowdTank.sol\":2320:2330  _projectId */\n      dup4\n        /* \"contracts/CrowdTank.sol\":2311:2331  projects[_projectId] */\n      dup2\n      mstore\n      0x20\n      add\n      swap1\n      dup2\n      mstore\n      0x20\n      add\n      0x00\n      keccak256\n        /* \"contracts/CrowdTank.sol\":2287:2331  Project storage project=projects[_projectId] */\n      swap1\n      pop\n        /* \"contracts/CrowdTank.sol\":2367:2374  project */\n      dup1\n        /* \"contracts/CrowdTank.sol\":2367:2383  project.deadline */\n      0x04\n      add\n      sload\n        /* \"contracts/CrowdTank.sol\":2350:2365  block.timestamp */\n      timestamp\n        /* \"contracts/CrowdTank.sol\":2350:2383  block.timestamp<=project.deadline */\n      gt\n      iszero\n        /* \"contracts/CrowdTank.sol\":2342:2422  require(block.timestamp<=project.deadline,\"Project deadline is already passed.\") */\n      tag_62\n      jumpi\n      mload(0x40)\n      0x08c379a000000000000000000000000000000000000000000000000000000000\n      dup2\n      mstore\n      0x04\n      add\n      tag_63\n      swap1\n      tag_64\n      jump\t// in\n    tag_63:\n      mload(0x40)\n      dup1\n      swap2\n      sub\n      swap1\n      revert\n    tag_62:\n        /* \"contracts/CrowdTank.sol\":2442:2449  project */\n      dup1\n        /* \"contracts/CrowdTank.sol\":2442:2456  project.funded */\n      0x06\n      add\n      0x00\n      swap1\n      sload\n      swap1\n      0x0100\n      exp\n      swap1\n      div\n      0xff\n      and\n        /* \"contracts/CrowdTank.sol\":2441:2456  !project.funded */\n      iszero\n        /* \"contracts/CrowdTank.sol\":2433:2485  require(!project.funded,\"Project is already funded\") */\n      tag_65\n      jumpi\n      mload(0x40)\n      0x08c379a000000000000000000000000000000000000000000000000000000000\n      dup2\n      mstore\n      0x04\n      add\n      tag_66\n      swap1\n      tag_67\n      jump\t// in\n    tag_66:\n      mload(0x40)\n      dup1\n      swap2\n      sub\n      swap1\n      revert\n    tag_65:\n        /* \"contracts/CrowdTank.sol\":2514:2515  0 */\n      0x00\n        /* \"contracts/CrowdTank.sol\":2504:2513  msg.value */\n      callvalue\n        /* \"contracts/CrowdTank.sol\":2504:2515  msg.value>0 */\n      gt\n        /* \"contracts/CrowdTank.sol\":2496:2549  require(msg.value>0,\"Must sent some value of ether.\") */\n      tag_68\n      jumpi\n      mload(0x40)\n      0x08c379a000000000000000000000000000000000000000000000000000000000\n      dup2\n      mstore\n      0x04\n      add\n      tag_69\n      swap1\n      tag_70\n      jump\t// in\n    tag_69:\n      mload(0x40)\n      dup1\n      swap2\n      sub\n      swap1\n      revert\n    tag_68:\n        /* \"contracts/CrowdTank.sol\":2582:2591  msg.value */\n      callvalue\n        /* \"contracts/CrowdTank.sol\":2560:2567  project */\n      dup2\n        /* \"contracts/CrowdTank.sol\":2560:2580  project.amountRaised */\n      0x05\n      add\n      0x00\n        /* \"contracts/CrowdTank.sol\":2560:2591  project.amountRaised+=msg.value */\n      dup3\n      dup3\n      sload\n      tag_71\n      swap2\n      swap1\n      tag_72\n      jump\t// in\n    tag_71:\n      swap3\n      pop\n      pop\n      dup2\n      swap1\n      sstore\n      pop\n        /* \"contracts/CrowdTank.sol\":2640:2649  msg.value */\n      callvalue\n        /* \"contracts/CrowdTank.sol\":2602:2615  contributions */\n      0x01\n        /* \"contracts/CrowdTank.sol\":2602:2627  contributions[_projectId] */\n      0x00\n        /* \"contracts/CrowdTank.sol\":2616:2626  _projectId */\n      dup5\n        /* \"contracts/CrowdTank.sol\":2602:2627  contributions[_projectId] */\n      dup2\n      mstore\n      0x20\n      add\n      swap1\n      dup2\n      mstore\n      0x20\n      add\n      0x00\n      keccak256\n        /* \"contracts/CrowdTank.sol\":2602:2639  contributions[_projectId][msg.sender] */\n      0x00\n        /* \"contracts/CrowdTank.sol\":2628:2638  msg.sender */\n      caller\n        /* \"contracts/CrowdTank.sol\":2602:2639  contributions[_projectId][msg.sender] */\n      0xffffffffffffffffffffffffffffffffffffffff\n      and\n      0xffffffffffffffffffffffffffffffffffffffff\n      and\n      dup2\n      mstore\n      0x20\n      add\n      swap1\n      dup2\n      mstore\n      0x20\n      add\n      0x00\n      keccak256\n        /* \"contracts/CrowdTank.sol\":2602:2649  contributions[_projectId][msg.sender]=msg.value */\n      dup2\n      swap1\n      sstore\n      pop\n        /* \"contracts/CrowdTank.sol\":2690:2700  msg.sender */\n      caller\n        /* \"contracts/CrowdTank.sol\":2665:2711  ProjectFunded(_projectId,msg.sender,msg.value) */\n      0xffffffffffffffffffffffffffffffffffffffff\n      and\n        /* \"contracts/CrowdTank.sol\":2679:2689  _projectId */\n      dup3\n        /* \"contracts/CrowdTank.sol\":2665:2711  ProjectFunded(_projectId,msg.sender,msg.value) */\n      0x6251418ffd7f504740544ec3d578897633e212c5d658b7dce793c5dc9d2e855e\n        /* \"contracts/CrowdTank.sol\":2701:2710  msg.value */\n      callvalue\n        /* \"contracts/CrowdTank.sol\":2665:2711  ProjectFunded(_projectId,msg.sender,msg.value) */\n      mload(0x40)\n      tag_73\n      swap2\n      swap1\n      tag_23\n      jump\t// in\n    tag_73:\n      mload(0x40)\n      dup1\n      swap2\n      sub\n      swap1\n      log3\n        /* \"contracts/CrowdTank.sol\":2747:2754  project */\n      dup1\n        /* \"contracts/CrowdTank.sol\":2747:2766  project.fundingGoal */\n      0x03\n      add\n      sload\n        /* \"contracts/CrowdTank.sol\":2725:2732  project */\n      dup2\n        /* \"contracts/CrowdTank.sol\":2725:2745  project.amountRaised */\n      0x05\n      add\n      sload\n        /* \"contracts/CrowdTank.sol\":2725:2766  project.amountRaised>=project.fundingGoal */\n      lt\n        /* \"contracts/CrowdTank.sol\":2722:2813  if(project.amountRaised>=project.fundingGoal){... */\n      tag_74\n      jumpi\n        /* \"contracts/CrowdTank.sol\":2797:2801  true */\n      0x01\n        /* \"contracts/CrowdTank.sol\":2782:2789  project */\n      dup2\n        /* \"contracts/CrowdTank.sol\":2782:2796  project.funded */\n      0x06\n      add\n      0x00\n        /* \"contracts/CrowdTank.sol\":2782:2801  project.funded=true */\n      0x0100\n      exp\n      dup2\n      sload\n      dup2\n      0xff\n      mul\n      not\n      and\n      swap1\n      dup4\n      iszero\n      iszero\n      mul\n      or\n      swap1\n      sstore\n      pop\n        /* \"contracts/CrowdTank.sol\":2722:2813  if(project.amountRaised>=project.fundingGoal){... */\n    tag_74:\n        /* \"contracts/CrowdTank.sol\":2276:2822  {... */\n      pop\n        /* \"contracts/CrowdTank.sol\":2223:2822  function fundProject(uint _projectId)external payable{... */\n      pop\n      jump\t// out\n        /* \"contracts/CrowdTank.sol\":735:769  mapping(uint=>bool)public isIdUsed */\n    tag_33:\n      mstore(0x20, 0x02)\n      dup1\n      0x00\n      mstore\n      keccak256(0x00, 0x40)\n      0x00\n      swap2\n      pop\n      sload\n      swap1\n      0x0100\n      exp\n      swap1\n      div\n      0xff\n      and\n      dup2\n      jump\t// out\n        /* \"contracts/CrowdTank.sol\":3188:3649  function adminWithdrawFunds(uint _projectId)external payable{... */\n    tag_38:\n        /* \"contracts/CrowdTank.sol\":3259:3282  Project storage project */\n      0x00\n        /* \"contracts/CrowdTank.sol\":3283:3291  projects */\n      dup1\n        /* \"contracts/CrowdTank.sol\":3283:3303  projects[_projectId] */\n      0x00\n        /* \"contracts/CrowdTank.sol\":3292:3302  _projectId */\n      dup4\n        /* \"contracts/CrowdTank.sol\":3283:3303  projects[_projectId] */\n      dup2\n      mstore\n      0x20\n      add\n      swap1\n      dup2\n      mstore\n      0x20\n      add\n      0x00\n      keccak256\n        /* \"contracts/CrowdTank.sol\":3259:3303  Project storage project=projects[_projectId] */\n      swap1\n      pop\n        /* \"contracts/CrowdTank.sol\":3314:3331  uint totalFunding */\n      0x00\n        /* \"contracts/CrowdTank.sol\":3334:3341  project */\n      dup2\n        /* \"contracts/CrowdTank.sol\":3334:3354  project.amountRaised */\n      0x05\n      add\n      sload\n        /* \"contracts/CrowdTank.sol\":3314:3354  uint totalFunding = project.amountRaised */\n      swap1\n      pop\n        /* \"contracts/CrowdTank.sol\":3373:3380  project */\n      dup2\n        /* \"contracts/CrowdTank.sol\":3373:3387  project.funded */\n      0x06\n      add\n      0x00\n      swap1\n      sload\n      swap1\n      0x0100\n      exp\n      swap1\n      div\n      0xff\n      and\n        /* \"contracts/CrowdTank.sol\":3365:3416  require(project.funded,\"Funding is not sufficient\") */\n      tag_76\n      jumpi\n      mload(0x40)\n      0x08c379a000000000000000000000000000000000000000000000000000000000\n      dup2\n      mstore\n      0x04\n      add\n      tag_77\n      swap1\n      tag_78\n      jump\t// in\n    tag_77:\n      mload(0x40)\n      dup1\n      swap2\n      sub\n      swap1\n      revert\n    tag_76:\n        /* \"contracts/CrowdTank.sol\":3452:3462  msg.sender */\n      caller\n        /* \"contracts/CrowdTank.sol\":3435:3462  project.creator==msg.sender */\n      0xffffffffffffffffffffffffffffffffffffffff\n      and\n        /* \"contracts/CrowdTank.sol\":3435:3442  project */\n      dup3\n        /* \"contracts/CrowdTank.sol\":3435:3450  project.creator */\n      0x00\n      add\n      0x00\n      swap1\n      sload\n      swap1\n      0x0100\n      exp\n      swap1\n      div\n      0xffffffffffffffffffffffffffffffffffffffff\n      and\n        /* \"contracts/CrowdTank.sol\":3435:3462  project.creator==msg.sender */\n      0xffffffffffffffffffffffffffffffffffffffff\n      and\n      eq\n        /* \"contracts/CrowdTank.sol\":3427:3497  require(project.creator==msg.sender,\"Only project admin can withsraw\") */\n      tag_79\n      jumpi\n      mload(0x40)\n      0x08c379a000000000000000000000000000000000000000000000000000000000\n      dup2\n      mstore\n      0x04\n      add\n      tag_80\n      swap1\n      tag_81\n      jump\t// in\n    tag_80:\n      mload(0x40)\n      dup1\n      swap2\n      sub\n      swap1\n      revert\n    tag_79:\n        /* \"contracts/CrowdTank.sol\":3534:3549  block.timestamp */\n      timestamp\n        /* \"contracts/CrowdTank.sol\":3516:3523  project */\n      dup3\n        /* \"contracts/CrowdTank.sol\":3516:3532  project.deadline */\n      0x04\n      add\n      sload\n        /* \"contracts/CrowdTank.sol\":3516:3549  project.deadline<=block.timestamp */\n      gt\n      iszero\n        /* \"contracts/CrowdTank.sol\":3508:3588  require(project.deadline<=block.timestamp,\"Deadline for project is not reached\") */\n      tag_82\n      jumpi\n      mload(0x40)\n      0x08c379a000000000000000000000000000000000000000000000000000000000\n      dup2\n      mstore\n      0x04\n      add\n      tag_83\n      swap1\n      tag_84\n      jump\t// in\n    tag_83:\n      mload(0x40)\n      dup1\n      swap2\n      sub\n      swap1\n      revert\n    tag_82:\n        /* \"contracts/CrowdTank.sol\":3607:3617  msg.sender */\n      caller\n        /* \"contracts/CrowdTank.sol\":3599:3627  payable(msg.sender).transfer */\n      0xffffffffffffffffffffffffffffffffffffffff\n      and\n        /* \"contracts/CrowdTank.sol\":3599:3641  payable(msg.sender).transfer(totalFunding) */\n      0x08fc\n        /* \"contracts/CrowdTank.sol\":3628:3640  totalFunding */\n      dup3\n        /* \"contracts/CrowdTank.sol\":3599:3641  payable(msg.sender).transfer(totalFunding) */\n      swap1\n      dup2\n      iszero\n      mul\n      swap1\n      mload(0x40)\n      0x00\n      mload(0x40)\n      dup1\n      dup4\n      sub\n      dup2\n      dup6\n      dup9\n      dup9\n      call\n      swap4\n      pop\n      pop\n      pop\n      pop\n      iszero\n      dup1\n      iszero\n      tag_86\n      jumpi\n      returndatasize\n      0x00\n      dup1\n      returndatacopy\n      revert(0x00, returndatasize)\n    tag_86:\n      pop\n        /* \"contracts/CrowdTank.sol\":3248:3649  {... */\n      pop\n      pop\n        /* \"contracts/CrowdTank.sol\":3188:3649  function adminWithdrawFunds(uint _projectId)external payable{... */\n      pop\n      jump\t// out\n        /* \"contracts/CrowdTank.sol\":1256:2158  function createProject(... */\n    tag_43:\n        /* \"contracts/CrowdTank.sol\":1576:1584  isIdUsed */\n      0x02\n        /* \"contracts/CrowdTank.sol\":1576:1589  isIdUsed[_id] */\n      0x00\n        /* \"contracts/CrowdTank.sol\":1585:1588  _id */\n      dup3\n        /* \"contracts/CrowdTank.sol\":1576:1589  isIdUsed[_id] */\n      dup2\n      mstore\n      0x20\n      add\n      swap1\n      dup2\n      mstore\n      0x20\n      add\n      0x00\n      keccak256\n      0x00\n      swap1\n      sload\n      swap1\n      0x0100\n      exp\n      swap1\n      div\n      0xff\n      and\n        /* \"contracts/CrowdTank.sol\":1575:1589  !isIdUsed[_id] */\n      iszero\n        /* \"contracts/CrowdTank.sol\":1567:1619  require(!isIdUsed[_id],\"Project Id is already used\") */\n      tag_88\n      jumpi\n      mload(0x40)\n      0x08c379a000000000000000000000000000000000000000000000000000000000\n      dup2\n      mstore\n      0x04\n      add\n      tag_89\n      swap1\n      tag_90\n      jump\t// in\n    tag_89:\n      mload(0x40)\n      dup1\n      swap2\n      sub\n      swap1\n      revert\n    tag_88:\n        /* \"contracts/CrowdTank.sol\":1644:1648  true */\n      0x01\n        /* \"contracts/CrowdTank.sol\":1630:1638  isIdUsed */\n      0x02\n        /* \"contracts/CrowdTank.sol\":1630:1643  isIdUsed[_id] */\n      0x00\n        /* \"contracts/CrowdTank.sol\":1639:1642  _id */\n      dup4\n        /* \"contracts/CrowdTank.sol\":1630:1643  isIdUsed[_id] */\n      dup2\n      mstore\n      0x20\n      add\n      swap1\n      dup2\n      mstore\n      0x20\n      add\n      0x00\n      keccak256\n      0x00\n        /* \"contracts/CrowdTank.sol\":1630:1648  isIdUsed[_id]=true */\n      0x0100\n      exp\n      dup2\n      sload\n      dup2\n      0xff\n      mul\n      not\n      and\n      swap1\n      dup4\n      iszero\n      iszero\n      mul\n      or\n      swap1\n      sstore\n      pop\n        /* \"contracts/CrowdTank.sol\":1673:1941  Project({... */\n      mload(0x40)\n      dup1\n      0xe0\n      add\n      0x40\n      mstore\n      dup1\n        /* \"contracts/CrowdTank.sol\":1704:1714  msg.sender */\n      caller\n        /* \"contracts/CrowdTank.sol\":1673:1941  Project({... */\n      0xffffffffffffffffffffffffffffffffffffffff\n      and\n      dup2\n      mstore\n      0x20\n      add\n        /* \"contracts/CrowdTank.sol\":1734:1739  _name */\n      dup7\n        /* \"contracts/CrowdTank.sol\":1673:1941  Project({... */\n      dup2\n      mstore\n      0x20\n      add\n        /* \"contracts/CrowdTank.sol\":1766:1778  _description */\n      dup6\n        /* \"contracts/CrowdTank.sol\":1673:1941  Project({... */\n      dup2\n      mstore\n      0x20\n      add\n        /* \"contracts/CrowdTank.sol\":1805:1817  _fundingGoal */\n      dup5\n        /* \"contracts/CrowdTank.sol\":1673:1941  Project({... */\n      dup2\n      mstore\n      0x20\n      add\n        /* \"contracts/CrowdTank.sol\":1857:1873  _durationSeconds */\n      dup4\n        /* \"contracts/CrowdTank.sol\":1841:1856  block.timestamp */\n      timestamp\n        /* \"contracts/CrowdTank.sol\":1841:1873  block.timestamp+_durationSeconds */\n      tag_91\n      swap2\n      swap1\n      tag_72\n      jump\t// in\n    tag_91:\n        /* \"contracts/CrowdTank.sol\":1673:1941  Project({... */\n      dup2\n      mstore\n      0x20\n      add\n        /* \"contracts/CrowdTank.sol\":1901:1902  0 */\n      0x00\n        /* \"contracts/CrowdTank.sol\":1673:1941  Project({... */\n      dup2\n      mstore\n      0x20\n      add\n        /* \"contracts/CrowdTank.sol\":1924:1929  false */\n      0x00\n        /* \"contracts/CrowdTank.sol\":1673:1941  Project({... */\n      iszero\n      iszero\n      dup2\n      mstore\n      pop\n        /* \"contracts/CrowdTank.sol\":1659:1667  projects */\n      0x00\n        /* \"contracts/CrowdTank.sol\":1659:1672  projects[_id] */\n      dup1\n        /* \"contracts/CrowdTank.sol\":1668:1671  _id */\n      dup4\n        /* \"contracts/CrowdTank.sol\":1659:1672  projects[_id] */\n      dup2\n      mstore\n      0x20\n      add\n      swap1\n      dup2\n      mstore\n      0x20\n      add\n      0x00\n      keccak256\n        /* \"contracts/CrowdTank.sol\":1659:1941  projects[_id]=Project({... */\n      0x00\n      dup3\n      add\n      mload\n      dup2\n      0x00\n      add\n      exp(0x0100, 0x00)\n      dup2\n      sload\n      dup2\n      0xffffffffffffffffffffffffffffffffffffffff\n      mul\n      not\n      and\n      swap1\n      dup4\n      0xffffffffffffffffffffffffffffffffffffffff\n      and\n      mul\n      or\n      swap1\n      sstore\n      pop\n      0x20\n      dup3\n      add\n      mload\n      dup2\n      0x01\n      add\n      swap1\n      dup2\n      tag_92\n      swap2\n      swap1\n      tag_93\n      jump\t// in\n    tag_92:\n      pop\n      0x40\n      dup3\n      add\n      mload\n      dup2\n      0x02\n      add\n      swap1\n      dup2\n      tag_94\n      swap2\n      swap1\n      tag_93\n      jump\t// in\n    tag_94:\n      pop\n      0x60\n      dup3\n      add\n      mload\n      dup2\n      0x03\n      add\n      sstore\n      0x80\n      dup3\n      add\n      mload\n      dup2\n      0x04\n      add\n      sstore\n      0xa0\n      dup3\n      add\n      mload\n      dup2\n      0x05\n      add\n      sstore\n      0xc0\n      dup3\n      add\n      mload\n      dup2\n      0x06\n      add\n      exp(0x0100, 0x00)\n      dup2\n      sload\n      dup2\n      0xff\n      mul\n      not\n      and\n      swap1\n      dup4\n      iszero\n      iszero\n      mul\n      or\n      swap1\n      sstore\n      pop\n      swap1\n      pop\n      pop\n        /* \"contracts/CrowdTank.sol\":2004:2014  msg.sender */\n      caller\n        /* \"contracts/CrowdTank.sol\":1957:2146  ProjectCreated(... */\n      0xffffffffffffffffffffffffffffffffffffffff\n      and\n        /* \"contracts/CrowdTank.sol\":1986:1989  _id */\n      dup2\n        /* \"contracts/CrowdTank.sol\":1957:2146  ProjectCreated(... */\n      0xac9b83534845c9e785a6ea70f2d809db1d72ef9a1d981753712d922f5cb55f39\n        /* \"contracts/CrowdTank.sol\":2029:2034  _name */\n      dup8\n        /* \"contracts/CrowdTank.sol\":2049:2061  _description */\n      dup8\n        /* \"contracts/CrowdTank.sol\":2076:2088  _fundingGoal */\n      dup8\n        /* \"contracts/CrowdTank.sol\":2119:2135  _durationSeconds */\n      dup8\n        /* \"contracts/CrowdTank.sol\":2103:2118  block.timestamp */\n      timestamp\n        /* \"contracts/CrowdTank.sol\":2103:2135  block.timestamp+_durationSeconds */\n      tag_95\n      swap2\n      swap1\n      tag_72\n      jump\t// in\n    tag_95:\n        /* \"contracts/CrowdTank.sol\":1957:2146  ProjectCreated(... */\n      mload(0x40)\n      tag_96\n      swap5\n      swap4\n      swap3\n      swap2\n      swap1\n      tag_97\n      jump\t// in\n    tag_96:\n      mload(0x40)\n      dup1\n      swap2\n      sub\n      swap1\n      log3\n        /* \"contracts/CrowdTank.sol\":1256:2158  function createProject(... */\n      pop\n      pop\n      pop\n      pop\n      pop\n      jump\t// out\n        /* \"#utility.yul\":7:82   */\n    tag_98:\n        /* \"#utility.yul\":40:46   */\n      0x00\n        /* \"#utility.yul\":73:75   */\n      0x40\n        /* \"#utility.yul\":67:76   */\n      mload\n        /* \"#utility.yul\":57:76   */\n      swap1\n      pop\n        /* \"#utility.yul\":7:82   */\n      swap1\n      jump\t// out\n        /* \"#utility.yul\":88:205   */\n    tag_99:\n        /* \"#utility.yul\":197:198   */\n      0x00\n        /* \"#utility.yul\":194:195   */\n      dup1\n        /* \"#utility.yul\":187:199   */\n      revert\n        /* \"#utility.yul\":211:328   */\n    tag_100:\n        /* \"#utility.yul\":320:321   */\n      0x00\n        /* \"#utility.yul\":317:318   */\n      dup1\n        /* \"#utility.yul\":310:322   */\n      revert\n        /* \"#utility.yul\":334:411   */\n    tag_101:\n        /* \"#utility.yul\":371:378   */\n      0x00\n        /* \"#utility.yul\":400:405   */\n      dup2\n        /* \"#utility.yul\":389:405   */\n      swap1\n      pop\n        /* \"#utility.yul\":334:411   */\n      swap2\n      swap1\n      pop\n      jump\t// out\n        /* \"#utility.yul\":417:539   */\n    tag_102:\n        /* \"#utility.yul\":490:514   */\n      tag_165\n        /* \"#utility.yul\":508:513   */\n      dup2\n        /* \"#utility.yul\":490:514   */\n      tag_101\n      jump\t// in\n    tag_165:\n        /* \"#utility.yul\":483:488   */\n      dup2\n        /* \"#utility.yul\":480:515   */\n      eq\n        /* \"#utility.yul\":470:533   */\n      tag_166\n      jumpi\n        /* \"#utility.yul\":529:530   */\n      0x00\n        /* \"#utility.yul\":526:527   */\n      dup1\n        /* \"#utility.yul\":519:531   */\n      revert\n        /* \"#utility.yul\":470:533   */\n    tag_166:\n        /* \"#utility.yul\":417:539   */\n      pop\n      jump\t// out\n        /* \"#utility.yul\":545:684   */\n    tag_103:\n        /* \"#utility.yul\":591:596   */\n      0x00\n        /* \"#utility.yul\":629:635   */\n      dup2\n        /* \"#utility.yul\":616:636   */\n      calldataload\n        /* \"#utility.yul\":607:636   */\n      swap1\n      pop\n        /* \"#utility.yul\":645:678   */\n      tag_168\n        /* \"#utility.yul\":672:677   */\n      dup2\n        /* \"#utility.yul\":645:678   */\n      tag_102\n      jump\t// in\n    tag_168:\n        /* \"#utility.yul\":545:684   */\n      swap3\n      swap2\n      pop\n      pop\n      jump\t// out\n        /* \"#utility.yul\":690:1019   */\n    tag_13:\n        /* \"#utility.yul\":749:755   */\n      0x00\n        /* \"#utility.yul\":798:800   */\n      0x20\n        /* \"#utility.yul\":786:795   */\n      dup3\n        /* \"#utility.yul\":777:784   */\n      dup5\n        /* \"#utility.yul\":773:796   */\n      sub\n        /* \"#utility.yul\":769:801   */\n      slt\n        /* \"#utility.yul\":766:885   */\n      iszero\n      tag_170\n      jumpi\n        /* \"#utility.yul\":804:883   */\n      tag_171\n      tag_99\n      jump\t// in\n    tag_171:\n        /* \"#utility.yul\":766:885   */\n    tag_170:\n        /* \"#utility.yul\":924:925   */\n      0x00\n        /* \"#utility.yul\":949:1002   */\n      tag_172\n        /* \"#utility.yul\":994:1001   */\n      dup5\n        /* \"#utility.yul\":985:991   */\n      dup3\n        /* \"#utility.yul\":974:983   */\n      dup6\n        /* \"#utility.yul\":970:992   */\n      add\n        /* \"#utility.yul\":949:1002   */\n      tag_103\n      jump\t// in\n    tag_172:\n        /* \"#utility.yul\":939:1002   */\n      swap2\n      pop\n        /* \"#utility.yul\":895:1012   */\n      pop\n        /* \"#utility.yul\":690:1019   */\n      swap3\n      swap2\n      pop\n      pop\n      jump\t// out\n        /* \"#utility.yul\":1025:1151   */\n    tag_104:\n        /* \"#utility.yul\":1062:1069   */\n      0x00\n        /* \"#utility.yul\":1102:1144   */\n      0xffffffffffffffffffffffffffffffffffffffff\n        /* \"#utility.yul\":1095:1100   */\n      dup3\n        /* \"#utility.yul\":1091:1145   */\n      and\n        /* \"#utility.yul\":1080:1145   */\n      swap1\n      pop\n        /* \"#utility.yul\":1025:1151   */\n      swap2\n      swap1\n      pop\n      jump\t// out\n        /* \"#utility.yul\":1157:1253   */\n    tag_105:\n        /* \"#utility.yul\":1194:1201   */\n      0x00\n        /* \"#utility.yul\":1223:1247   */\n      tag_175\n        /* \"#utility.yul\":1241:1246   */\n      dup3\n        /* \"#utility.yul\":1223:1247   */\n      tag_104\n      jump\t// in\n    tag_175:\n        /* \"#utility.yul\":1212:1247   */\n      swap1\n      pop\n        /* \"#utility.yul\":1157:1253   */\n      swap2\n      swap1\n      pop\n      jump\t// out\n        /* \"#utility.yul\":1259:1377   */\n    tag_106:\n        /* \"#utility.yul\":1346:1370   */\n      tag_177\n        /* \"#utility.yul\":1364:1369   */\n      dup2\n        /* \"#utility.yul\":1346:1370   */\n      tag_105\n      jump\t// in\n    tag_177:\n        /* \"#utility.yul\":1341:1344   */\n      dup3\n        /* \"#utility.yul\":1334:1371   */\n      mstore\n        /* \"#utility.yul\":1259:1377   */\n      pop\n      pop\n      jump\t// out\n        /* \"#utility.yul\":1383:1482   */\n    tag_107:\n        /* \"#utility.yul\":1435:1441   */\n      0x00\n        /* \"#utility.yul\":1469:1474   */\n      dup2\n        /* \"#utility.yul\":1463:1475   */\n      mload\n        /* \"#utility.yul\":1453:1475   */\n      swap1\n      pop\n        /* \"#utility.yul\":1383:1482   */\n      swap2\n      swap1\n      pop\n      jump\t// out\n        /* \"#utility.yul\":1488:1657   */\n    tag_108:\n        /* \"#utility.yul\":1572:1583   */\n      0x00\n        /* \"#utility.yul\":1606:1612   */\n      dup3\n        /* \"#utility.yul\":1601:1604   */\n      dup3\n        /* \"#utility.yul\":1594:1613   */\n      mstore\n        /* \"#utility.yul\":1646:1650   */\n      0x20\n        /* \"#utility.yul\":1641:1644   */\n      dup3\n        /* \"#utility.yul\":1637:1651   */\n      add\n        /* \"#utility.yul\":1622:1651   */\n      swap1\n      pop\n        /* \"#utility.yul\":1488:1657   */\n      swap3\n      swap2\n      pop\n      pop\n      jump\t// out\n        /* \"#utility.yul\":1663:1802   */\n    tag_109:\n        /* \"#utility.yul\":1752:1758   */\n      dup3\n        /* \"#utility.yul\":1747:1750   */\n      dup2\n        /* \"#utility.yul\":1742:1745   */\n      dup4\n        /* \"#utility.yul\":1736:1759   */\n      mcopy\n        /* \"#utility.yul\":1793:1794   */\n      0x00\n        /* \"#utility.yul\":1784:1790   */\n      dup4\n        /* \"#utility.yul\":1779:1782   */\n      dup4\n        /* \"#utility.yul\":1775:1791   */\n      add\n        /* \"#utility.yul\":1768:1795   */\n      mstore\n        /* \"#utility.yul\":1663:1802   */\n      pop\n      pop\n      pop\n      jump\t// out\n        /* \"#utility.yul\":1808:1910   */\n    tag_110:\n        /* \"#utility.yul\":1849:1855   */\n      0x00\n        /* \"#utility.yul\":1900:1902   */\n      0x1f\n        /* \"#utility.yul\":1896:1903   */\n      not\n        /* \"#utility.yul\":1891:1893   */\n      0x1f\n        /* \"#utility.yul\":1884:1889   */\n      dup4\n        /* \"#utility.yul\":1880:1894   */\n      add\n        /* \"#utility.yul\":1876:1904   */\n      and\n        /* \"#utility.yul\":1866:1904   */\n      swap1\n      pop\n        /* \"#utility.yul\":1808:1910   */\n      swap2\n      swap1\n      pop\n      jump\t// out\n        /* \"#utility.yul\":1916:2293   */\n    tag_111:\n        /* \"#utility.yul\":2004:2007   */\n      0x00\n        /* \"#utility.yul\":2032:2071   */\n      tag_183\n        /* \"#utility.yul\":2065:2070   */\n      dup3\n        /* \"#utility.yul\":2032:2071   */\n      tag_107\n      jump\t// in\n    tag_183:\n        /* \"#utility.yul\":2087:2158   */\n      tag_184\n        /* \"#utility.yul\":2151:2157   */\n      dup2\n        /* \"#utility.yul\":2146:2149   */\n      dup6\n        /* \"#utility.yul\":2087:2158   */\n      tag_108\n      jump\t// in\n    tag_184:\n        /* \"#utility.yul\":2080:2158   */\n      swap4\n      pop\n        /* \"#utility.yul\":2167:2232   */\n      tag_185\n        /* \"#utility.yul\":2225:2231   */\n      dup2\n        /* \"#utility.yul\":2220:2223   */\n      dup6\n        /* \"#utility.yul\":2213:2217   */\n      0x20\n        /* \"#utility.yul\":2206:2211   */\n      dup7\n        /* \"#utility.yul\":2202:2218   */\n      add\n        /* \"#utility.yul\":2167:2232   */\n      tag_109\n      jump\t// in\n    tag_185:\n        /* \"#utility.yul\":2257:2286   */\n      tag_186\n        /* \"#utility.yul\":2279:2285   */\n      dup2\n        /* \"#utility.yul\":2257:2286   */\n      tag_110\n      jump\t// in\n    tag_186:\n        /* \"#utility.yul\":2252:2255   */\n      dup5\n        /* \"#utility.yul\":2248:2287   */\n      add\n        /* \"#utility.yul\":2241:2287   */\n      swap2\n      pop\n        /* \"#utility.yul\":2008:2293   */\n      pop\n        /* \"#utility.yul\":1916:2293   */\n      swap3\n      swap2\n      pop\n      pop\n      jump\t// out\n        /* \"#utility.yul\":2299:2417   */\n    tag_112:\n        /* \"#utility.yul\":2386:2410   */\n      tag_188\n        /* \"#utility.yul\":2404:2409   */\n      dup2\n        /* \"#utility.yul\":2386:2410   */\n      tag_101\n      jump\t// in\n    tag_188:\n        /* \"#utility.yul\":2381:2384   */\n      dup3\n        /* \"#utility.yul\":2374:2411   */\n      mstore\n        /* \"#utility.yul\":2299:2417   */\n      pop\n      pop\n      jump\t// out\n        /* \"#utility.yul\":2423:2513   */\n    tag_113:\n        /* \"#utility.yul\":2457:2464   */\n      0x00\n        /* \"#utility.yul\":2500:2505   */\n      dup2\n        /* \"#utility.yul\":2493:2506   */\n      iszero\n        /* \"#utility.yul\":2486:2507   */\n      iszero\n        /* \"#utility.yul\":2475:2507   */\n      swap1\n      pop\n        /* \"#utility.yul\":2423:2513   */\n      swap2\n      swap1\n      pop\n      jump\t// out\n        /* \"#utility.yul\":2519:2628   */\n    tag_114:\n        /* \"#utility.yul\":2600:2621   */\n      tag_191\n        /* \"#utility.yul\":2615:2620   */\n      dup2\n        /* \"#utility.yul\":2600:2621   */\n      tag_113\n      jump\t// in\n    tag_191:\n        /* \"#utility.yul\":2595:2598   */\n      dup3\n        /* \"#utility.yul\":2588:2622   */\n      mstore\n        /* \"#utility.yul\":2519:2628   */\n      pop\n      pop\n      jump\t// out\n        /* \"#utility.yul\":2634:3690   */\n    tag_16:\n        /* \"#utility.yul\":2929:2933   */\n      0x00\n        /* \"#utility.yul\":2967:2970   */\n      0xe0\n        /* \"#utility.yul\":2956:2965   */\n      dup3\n        /* \"#utility.yul\":2952:2971   */\n      add\n        /* \"#utility.yul\":2944:2971   */\n      swap1\n      pop\n        /* \"#utility.yul\":2981:3052   */\n      tag_193\n        /* \"#utility.yul\":3049:3050   */\n      0x00\n        /* \"#utility.yul\":3038:3047   */\n      dup4\n        /* \"#utility.yul\":3034:3051   */\n      add\n        /* \"#utility.yul\":3025:3031   */\n      dup11\n        /* \"#utility.yul\":2981:3052   */\n      tag_106\n      jump\t// in\n    tag_193:\n        /* \"#utility.yul\":3099:3108   */\n      dup2\n        /* \"#utility.yul\":3093:3097   */\n      dup2\n        /* \"#utility.yul\":3089:3109   */\n      sub\n        /* \"#utility.yul\":3084:3086   */\n      0x20\n        /* \"#utility.yul\":3073:3082   */\n      dup4\n        /* \"#utility.yul\":3069:3087   */\n      add\n        /* \"#utility.yul\":3062:3110   */\n      mstore\n        /* \"#utility.yul\":3127:3205   */\n      tag_194\n        /* \"#utility.yul\":3200:3204   */\n      dup2\n        /* \"#utility.yul\":3191:3197   */\n      dup10\n        /* \"#utility.yul\":3127:3205   */\n      tag_111\n      jump\t// in\n    tag_194:\n        /* \"#utility.yul\":3119:3205   */\n      swap1\n      pop\n        /* \"#utility.yul\":3252:3261   */\n      dup2\n        /* \"#utility.yul\":3246:3250   */\n      dup2\n        /* \"#utility.yul\":3242:3262   */\n      sub\n        /* \"#utility.yul\":3237:3239   */\n      0x40\n        /* \"#utility.yul\":3226:3235   */\n      dup4\n        /* \"#utility.yul\":3222:3240   */\n      add\n        /* \"#utility.yul\":3215:3263   */\n      mstore\n        /* \"#utility.yul\":3280:3358   */\n      tag_195\n        /* \"#utility.yul\":3353:3357   */\n      dup2\n        /* \"#utility.yul\":3344:3350   */\n      dup9\n        /* \"#utility.yul\":3280:3358   */\n      tag_111\n      jump\t// in\n    tag_195:\n        /* \"#utility.yul\":3272:3358   */\n      swap1\n      pop\n        /* \"#utility.yul\":3368:3440   */\n      tag_196\n        /* \"#utility.yul\":3436:3438   */\n      0x60\n        /* \"#utility.yul\":3425:3434   */\n      dup4\n        /* \"#utility.yul\":3421:3439   */\n      add\n        /* \"#utility.yul\":3412:3418   */\n      dup8\n        /* \"#utility.yul\":3368:3440   */\n      tag_112\n      jump\t// in\n    tag_196:\n        /* \"#utility.yul\":3450:3523   */\n      tag_197\n        /* \"#utility.yul\":3518:3521   */\n      0x80\n        /* \"#utility.yul\":3507:3516   */\n      dup4\n        /* \"#utility.yul\":3503:3522   */\n      add\n        /* \"#utility.yul\":3494:3500   */\n      dup7\n        /* \"#utility.yul\":3450:3523   */\n      tag_112\n      jump\t// in\n    tag_197:\n        /* \"#utility.yul\":3533:3606   */\n      tag_198\n        /* \"#utility.yul\":3601:3604   */\n      0xa0\n        /* \"#utility.yul\":3590:3599   */\n      dup4\n        /* \"#utility.yul\":3586:3605   */\n      add\n        /* \"#utility.yul\":3577:3583   */\n      dup6\n        /* \"#utility.yul\":3533:3606   */\n      tag_112\n      jump\t// in\n    tag_198:\n        /* \"#utility.yul\":3616:3683   */\n      tag_199\n        /* \"#utility.yul\":3678:3681   */\n      0xc0\n        /* \"#utility.yul\":3667:3676   */\n      dup4\n        /* \"#utility.yul\":3663:3682   */\n      add\n        /* \"#utility.yul\":3654:3660   */\n      dup5\n        /* \"#utility.yul\":3616:3683   */\n      tag_114\n      jump\t// in\n    tag_199:\n        /* \"#utility.yul\":2634:3690   */\n      swap9\n      swap8\n      pop\n      pop\n      pop\n      pop\n      pop\n      pop\n      pop\n      pop\n      jump\t// out\n        /* \"#utility.yul\":3696:3818   */\n    tag_115:\n        /* \"#utility.yul\":3769:3793   */\n      tag_201\n        /* \"#utility.yul\":3787:3792   */\n      dup2\n        /* \"#utility.yul\":3769:3793   */\n      tag_105\n      jump\t// in\n    tag_201:\n        /* \"#utility.yul\":3762:3767   */\n      dup2\n        /* \"#utility.yul\":3759:3794   */\n      eq\n        /* \"#utility.yul\":3749:3812   */\n      tag_202\n      jumpi\n        /* \"#utility.yul\":3808:3809   */\n      0x00\n        /* \"#utility.yul\":3805:3806   */\n      dup1\n        /* \"#utility.yul\":3798:3810   */\n      revert\n        /* \"#utility.yul\":3749:3812   */\n    tag_202:\n        /* \"#utility.yul\":3696:3818   */\n      pop\n      jump\t// out\n        /* \"#utility.yul\":3824:3963   */\n    tag_116:\n        /* \"#utility.yul\":3870:3875   */\n      0x00\n        /* \"#utility.yul\":3908:3914   */\n      dup2\n        /* \"#utility.yul\":3895:3915   */\n      calldataload\n        /* \"#utility.yul\":3886:3915   */\n      swap1\n      pop\n        /* \"#utility.yul\":3924:3957   */\n      tag_204\n        /* \"#utility.yul\":3951:3956   */\n      dup2\n        /* \"#utility.yul\":3924:3957   */\n      tag_115\n      jump\t// in\n    tag_204:\n        /* \"#utility.yul\":3824:3963   */\n      swap3\n      swap2\n      pop\n      pop\n      jump\t// out\n        /* \"#utility.yul\":3969:4443   */\n    tag_20:\n        /* \"#utility.yul\":4037:4043   */\n      0x00\n        /* \"#utility.yul\":4045:4051   */\n      dup1\n        /* \"#utility.yul\":4094:4096   */\n      0x40\n        /* \"#utility.yul\":4082:4091   */\n      dup4\n        /* \"#utility.yul\":4073:4080   */\n      dup6\n        /* \"#utility.yul\":4069:4092   */\n      sub\n        /* \"#utility.yul\":4065:4097   */\n      slt\n        /* \"#utility.yul\":4062:4181   */\n      iszero\n      tag_206\n      jumpi\n        /* \"#utility.yul\":4100:4179   */\n      tag_207\n      tag_99\n      jump\t// in\n    tag_207:\n        /* \"#utility.yul\":4062:4181   */\n    tag_206:\n        /* \"#utility.yul\":4220:4221   */\n      0x00\n        /* \"#utility.yul\":4245:4298   */\n      tag_208\n        /* \"#utility.yul\":4290:4297   */\n      dup6\n        /* \"#utility.yul\":4281:4287   */\n      dup3\n        /* \"#utility.yul\":4270:4279   */\n      dup7\n        /* \"#utility.yul\":4266:4288   */\n      add\n        /* \"#utility.yul\":4245:4298   */\n      tag_103\n      jump\t// in\n    tag_208:\n        /* \"#utility.yul\":4235:4298   */\n      swap3\n      pop\n        /* \"#utility.yul\":4191:4308   */\n      pop\n        /* \"#utility.yul\":4347:4349   */\n      0x20\n        /* \"#utility.yul\":4373:4426   */\n      tag_209\n        /* \"#utility.yul\":4418:4425   */\n      dup6\n        /* \"#utility.yul\":4409:4415   */\n      dup3\n        /* \"#utility.yul\":4398:4407   */\n      dup7\n        /* \"#utility.yul\":4394:4416   */\n      add\n        /* \"#utility.yul\":4373:4426   */\n      tag_116\n      jump\t// in\n    tag_209:\n        /* \"#utility.yul\":4363:4426   */\n      swap2\n      pop\n        /* \"#utility.yul\":4318:4436   */\n      pop\n        /* \"#utility.yul\":3969:4443   */\n      swap3\n      pop\n      swap3\n      swap1\n      pop\n      jump\t// out\n        /* \"#utility.yul\":4449:4671   */\n    tag_23:\n        /* \"#utility.yul\":4542:4546   */\n      0x00\n        /* \"#utility.yul\":4580:4582   */\n      0x20\n        /* \"#utility.yul\":4569:4578   */\n      dup3\n        /* \"#utility.yul\":4565:4583   */\n      add\n        /* \"#utility.yul\":4557:4583   */\n      swap1\n      pop\n        /* \"#utility.yul\":4593:4664   */\n      tag_211\n        /* \"#utility.yul\":4661:4662   */\n      0x00\n        /* \"#utility.yul\":4650:4659   */\n      dup4\n        /* \"#utility.yul\":4646:4663   */\n      add\n        /* \"#utility.yul\":4637:4643   */\n      dup5\n        /* \"#utility.yul\":4593:4664   */\n      tag_112\n      jump\t// in\n    tag_211:\n        /* \"#utility.yul\":4449:4671   */\n      swap3\n      swap2\n      pop\n      pop\n      jump\t// out\n        /* \"#utility.yul\":4677:4887   */\n    tag_35:\n        /* \"#utility.yul\":4764:4768   */\n      0x00\n        /* \"#utility.yul\":4802:4804   */\n      0x20\n        /* \"#utility.yul\":4791:4800   */\n      dup3\n        /* \"#utility.yul\":4787:4805   */\n      add\n        /* \"#utility.yul\":4779:4805   */\n      swap1\n      pop\n        /* \"#utility.yul\":4815:4880   */\n      tag_213\n        /* \"#utility.yul\":4877:4878   */\n      0x00\n        /* \"#utility.yul\":4866:4875   */\n      dup4\n        /* \"#utility.yul\":4862:4879   */\n      add\n        /* \"#utility.yul\":4853:4859   */\n      dup5\n        /* \"#utility.yul\":4815:4880   */\n      tag_114\n      jump\t// in\n    tag_213:\n        /* \"#utility.yul\":4677:4887   */\n      swap3\n      swap2\n      pop\n      pop\n      jump\t// out\n        /* \"#utility.yul\":4893:5010   */\n    tag_117:\n        /* \"#utility.yul\":5002:5003   */\n      0x00\n        /* \"#utility.yul\":4999:5000   */\n      dup1\n        /* \"#utility.yul\":4992:5004   */\n      revert\n        /* \"#utility.yul\":5016:5133   */\n    tag_118:\n        /* \"#utility.yul\":5125:5126   */\n      0x00\n        /* \"#utility.yul\":5122:5123   */\n      dup1\n        /* \"#utility.yul\":5115:5127   */\n      revert\n        /* \"#utility.yul\":5139:5319   */\n    tag_119:\n        /* \"#utility.yul\":5187:5264   */\n      0x4e487b7100000000000000000000000000000000000000000000000000000000\n        /* \"#utility.yul\":5184:5185   */\n      0x00\n        /* \"#utility.yul\":5177:5265   */\n      mstore\n        /* \"#utility.yul\":5284:5288   */\n      0x41\n        /* \"#utility.yul\":5281:5282   */\n      0x04\n        /* \"#utility.yul\":5274:5289   */\n      mstore\n        /* \"#utility.yul\":5308:5312   */\n      0x24\n        /* \"#utility.yul\":5305:5306   */\n      0x00\n        /* \"#utility.yul\":5298:5313   */\n      revert\n        /* \"#utility.yul\":5325:5606   */\n    tag_120:\n        /* \"#utility.yul\":5408:5435   */\n      tag_218\n        /* \"#utility.yul\":5430:5434   */\n      dup3\n        /* \"#utility.yul\":5408:5435   */\n      tag_110\n      jump\t// in\n    tag_218:\n        /* \"#utility.yul\":5400:5406   */\n      dup2\n        /* \"#utility.yul\":5396:5436   */\n      add\n        /* \"#utility.yul\":5538:5544   */\n      dup2\n        /* \"#utility.yul\":5526:5536   */\n      dup2\n        /* \"#utility.yul\":5523:5545   */\n      lt\n        /* \"#utility.yul\":5502:5520   */\n      0xffffffffffffffff\n        /* \"#utility.yul\":5490:5500   */\n      dup3\n        /* \"#utility.yul\":5487:5521   */\n      gt\n        /* \"#utility.yul\":5484:5546   */\n      or\n        /* \"#utility.yul\":5481:5569   */\n      iszero\n      tag_219\n      jumpi\n        /* \"#utility.yul\":5549:5567   */\n      tag_220\n      tag_119\n      jump\t// in\n    tag_220:\n        /* \"#utility.yul\":5481:5569   */\n    tag_219:\n        /* \"#utility.yul\":5589:5599   */\n      dup1\n        /* \"#utility.yul\":5585:5587   */\n      0x40\n        /* \"#utility.yul\":5578:5600   */\n      mstore\n        /* \"#utility.yul\":5368:5606   */\n      pop\n        /* \"#utility.yul\":5325:5606   */\n      pop\n      pop\n      jump\t// out\n        /* \"#utility.yul\":5612:5741   */\n    tag_121:\n        /* \"#utility.yul\":5646:5652   */\n      0x00\n        /* \"#utility.yul\":5673:5693   */\n      tag_222\n      tag_98\n      jump\t// in\n    tag_222:\n        /* \"#utility.yul\":5663:5693   */\n      swap1\n      pop\n        /* \"#utility.yul\":5702:5735   */\n      tag_223\n        /* \"#utility.yul\":5730:5734   */\n      dup3\n        /* \"#utility.yul\":5722:5728   */\n      dup3\n        /* \"#utility.yul\":5702:5735   */\n      tag_120\n      jump\t// in\n    tag_223:\n        /* \"#utility.yul\":5612:5741   */\n      swap2\n      swap1\n      pop\n      jump\t// out\n        /* \"#utility.yul\":5747:6055   */\n    tag_122:\n        /* \"#utility.yul\":5809:5813   */\n      0x00\n        /* \"#utility.yul\":5899:5917   */\n      0xffffffffffffffff\n        /* \"#utility.yul\":5891:5897   */\n      dup3\n        /* \"#utility.yul\":5888:5918   */\n      gt\n        /* \"#utility.yul\":5885:5941   */\n      iszero\n      tag_225\n      jumpi\n        /* \"#utility.yul\":5921:5939   */\n      tag_226\n      tag_119\n      jump\t// in\n    tag_226:\n        /* \"#utility.yul\":5885:5941   */\n    tag_225:\n        /* \"#utility.yul\":5959:5988   */\n      tag_227\n        /* \"#utility.yul\":5981:5987   */\n      dup3\n        /* \"#utility.yul\":5959:5988   */\n      tag_110\n      jump\t// in\n    tag_227:\n        /* \"#utility.yul\":5951:5988   */\n      swap1\n      pop\n        /* \"#utility.yul\":6043:6047   */\n      0x20\n        /* \"#utility.yul\":6037:6041   */\n      dup2\n        /* \"#utility.yul\":6033:6048   */\n      add\n        /* \"#utility.yul\":6025:6048   */\n      swap1\n      pop\n        /* \"#utility.yul\":5747:6055   */\n      swap2\n      swap1\n      pop\n      jump\t// out\n        /* \"#utility.yul\":6061:6209   */\n    tag_123:\n        /* \"#utility.yul\":6159:6165   */\n      dup3\n        /* \"#utility.yul\":6154:6157   */\n      dup2\n        /* \"#utility.yul\":6149:6152   */\n      dup4\n        /* \"#utility.yul\":6136:6166   */\n      calldatacopy\n        /* \"#utility.yul\":6200:6201   */\n      0x00\n        /* \"#utility.yul\":6191:6197   */\n      dup4\n        /* \"#utility.yul\":6186:6189   */\n      dup4\n        /* \"#utility.yul\":6182:6198   */\n      add\n        /* \"#utility.yul\":6175:6202   */\n      mstore\n        /* \"#utility.yul\":6061:6209   */\n      pop\n      pop\n      pop\n      jump\t// out\n        /* \"#utility.yul\":6215:6640   */\n    tag_124:\n        /* \"#utility.yul\":6293:6298   */\n      0x00\n        /* \"#utility.yul\":6318:6384   */\n      tag_230\n        /* \"#utility.yul\":6334:6383   */\n      tag_231\n        /* \"#utility.yul\":6376:6382   */\n      dup5\n        /* \"#utility.yul\":6334:6383   */\n      tag_122\n      jump\t// in\n    tag_231:\n        /* \"#utility.yul\":6318:6384   */\n      tag_121\n      jump\t// in\n    tag_230:\n        /* \"#utility.yul\":6309:6384   */\n      swap1\n      pop\n        /* \"#utility.yul\":6407:6413   */\n      dup3\n        /* \"#utility.yul\":6400:6405   */\n      dup2\n        /* \"#utility.yul\":6393:6414   */\n      mstore\n        /* \"#utility.yul\":6445:6449   */\n      0x20\n        /* \"#utility.yul\":6438:6443   */\n      dup2\n        /* \"#utility.yul\":6434:6450   */\n      add\n        /* \"#utility.yul\":6483:6486   */\n      dup5\n        /* \"#utility.yul\":6474:6480   */\n      dup5\n        /* \"#utility.yul\":6469:6472   */\n      dup5\n        /* \"#utility.yul\":6465:6481   */\n      add\n        /* \"#utility.yul\":6462:6487   */\n      gt\n        /* \"#utility.yul\":6459:6571   */\n      iszero\n      tag_232\n      jumpi\n        /* \"#utility.yul\":6490:6569   */\n      tag_233\n      tag_118\n      jump\t// in\n    tag_233:\n        /* \"#utility.yul\":6459:6571   */\n    tag_232:\n        /* \"#utility.yul\":6580:6634   */\n      tag_234\n        /* \"#utility.yul\":6627:6633   */\n      dup5\n        /* \"#utility.yul\":6622:6625   */\n      dup3\n        /* \"#utility.yul\":6617:6620   */\n      dup6\n        /* \"#utility.yul\":6580:6634   */\n      tag_123\n      jump\t// in\n    tag_234:\n        /* \"#utility.yul\":6299:6640   */\n      pop\n        /* \"#utility.yul\":6215:6640   */\n      swap4\n      swap3\n      pop\n      pop\n      pop\n      jump\t// out\n        /* \"#utility.yul\":6660:7000   */\n    tag_125:\n        /* \"#utility.yul\":6716:6721   */\n      0x00\n        /* \"#utility.yul\":6765:6768   */\n      dup3\n        /* \"#utility.yul\":6758:6762   */\n      0x1f\n        /* \"#utility.yul\":6750:6756   */\n      dup4\n        /* \"#utility.yul\":6746:6763   */\n      add\n        /* \"#utility.yul\":6742:6769   */\n      slt\n        /* \"#utility.yul\":6732:6854   */\n      tag_236\n      jumpi\n        /* \"#utility.yul\":6773:6852   */\n      tag_237\n      tag_117\n      jump\t// in\n    tag_237:\n        /* \"#utility.yul\":6732:6854   */\n    tag_236:\n        /* \"#utility.yul\":6890:6896   */\n      dup2\n        /* \"#utility.yul\":6877:6897   */\n      calldataload\n        /* \"#utility.yul\":6915:6994   */\n      tag_238\n        /* \"#utility.yul\":6990:6993   */\n      dup5\n        /* \"#utility.yul\":6982:6988   */\n      dup3\n        /* \"#utility.yul\":6975:6979   */\n      0x20\n        /* \"#utility.yul\":6967:6973   */\n      dup7\n        /* \"#utility.yul\":6963:6980   */\n      add\n        /* \"#utility.yul\":6915:6994   */\n      tag_124\n      jump\t// in\n    tag_238:\n        /* \"#utility.yul\":6906:6994   */\n      swap2\n      pop\n        /* \"#utility.yul\":6722:7000   */\n      pop\n        /* \"#utility.yul\":6660:7000   */\n      swap3\n      swap2\n      pop\n      pop\n      jump\t// out\n        /* \"#utility.yul\":7006:8277   */\n    tag_42:\n        /* \"#utility.yul\":7121:7127   */\n      0x00\n        /* \"#utility.yul\":7129:7135   */\n      dup1\n        /* \"#utility.yul\":7137:7143   */\n      0x00\n        /* \"#utility.yul\":7145:7151   */\n      dup1\n        /* \"#utility.yul\":7153:7159   */\n      0x00\n        /* \"#utility.yul\":7202:7205   */\n      0xa0\n        /* \"#utility.yul\":7190:7199   */\n      dup7\n        /* \"#utility.yul\":7181:7188   */\n      dup9\n        /* \"#utility.yul\":7177:7200   */\n      sub\n        /* \"#utility.yul\":7173:7206   */\n      slt\n        /* \"#utility.yul\":7170:7290   */\n      iszero\n      tag_240\n      jumpi\n        /* \"#utility.yul\":7209:7288   */\n      tag_241\n      tag_99\n      jump\t// in\n    tag_241:\n        /* \"#utility.yul\":7170:7290   */\n    tag_240:\n        /* \"#utility.yul\":7357:7358   */\n      0x00\n        /* \"#utility.yul\":7346:7355   */\n      dup7\n        /* \"#utility.yul\":7342:7359   */\n      add\n        /* \"#utility.yul\":7329:7360   */\n      calldataload\n        /* \"#utility.yul\":7387:7405   */\n      0xffffffffffffffff\n        /* \"#utility.yul\":7379:7385   */\n      dup2\n        /* \"#utility.yul\":7376:7406   */\n      gt\n        /* \"#utility.yul\":7373:7490   */\n      iszero\n      tag_242\n      jumpi\n        /* \"#utility.yul\":7409:7488   */\n      tag_243\n      tag_100\n      jump\t// in\n    tag_243:\n        /* \"#utility.yul\":7373:7490   */\n    tag_242:\n        /* \"#utility.yul\":7514:7577   */\n      tag_244\n        /* \"#utility.yul\":7569:7576   */\n      dup9\n        /* \"#utility.yul\":7560:7566   */\n      dup3\n        /* \"#utility.yul\":7549:7558   */\n      dup10\n        /* \"#utility.yul\":7545:7567   */\n      add\n        /* \"#utility.yul\":7514:7577   */\n      tag_125\n      jump\t// in\n    tag_244:\n        /* \"#utility.yul\":7504:7577   */\n      swap6\n      pop\n        /* \"#utility.yul\":7300:7587   */\n      pop\n        /* \"#utility.yul\":7654:7656   */\n      0x20\n        /* \"#utility.yul\":7643:7652   */\n      dup7\n        /* \"#utility.yul\":7639:7657   */\n      add\n        /* \"#utility.yul\":7626:7658   */\n      calldataload\n        /* \"#utility.yul\":7685:7703   */\n      0xffffffffffffffff\n        /* \"#utility.yul\":7677:7683   */\n      dup2\n        /* \"#utility.yul\":7674:7704   */\n      gt\n        /* \"#utility.yul\":7671:7788   */\n      iszero\n      tag_245\n      jumpi\n        /* \"#utility.yul\":7707:7786   */\n      tag_246\n      tag_100\n      jump\t// in\n    tag_246:\n        /* \"#utility.yul\":7671:7788   */\n    tag_245:\n        /* \"#utility.yul\":7812:7875   */\n      tag_247\n        /* \"#utility.yul\":7867:7874   */\n      dup9\n        /* \"#utility.yul\":7858:7864   */\n      dup3\n        /* \"#utility.yul\":7847:7856   */\n      dup10\n        /* \"#utility.yul\":7843:7865   */\n      add\n        /* \"#utility.yul\":7812:7875   */\n      tag_125\n      jump\t// in\n    tag_247:\n        /* \"#utility.yul\":7802:7875   */\n      swap5\n      pop\n        /* \"#utility.yul\":7597:7885   */\n      pop\n        /* \"#utility.yul\":7924:7926   */\n      0x40\n        /* \"#utility.yul\":7950:8003   */\n      tag_248\n        /* \"#utility.yul\":7995:8002   */\n      dup9\n        /* \"#utility.yul\":7986:7992   */\n      dup3\n        /* \"#utility.yul\":7975:7984   */\n      dup10\n        /* \"#utility.yul\":7971:7993   */\n      add\n        /* \"#utility.yul\":7950:8003   */\n      tag_103\n      jump\t// in\n    tag_248:\n        /* \"#utility.yul\":7940:8003   */\n      swap4\n      pop\n        /* \"#utility.yul\":7895:8013   */\n      pop\n        /* \"#utility.yul\":8052:8054   */\n      0x60\n        /* \"#utility.yul\":8078:8131   */\n      tag_249\n        /* \"#utility.yul\":8123:8130   */\n      dup9\n        /* \"#utility.yul\":8114:8120   */\n      dup3\n        /* \"#utility.yul\":8103:8112   */\n      dup10\n        /* \"#utility.yul\":8099:8121   */\n      add\n        /* \"#utility.yul\":8078:8131   */\n      tag_103\n      jump\t// in\n    tag_249:\n        /* \"#utility.yul\":8068:8131   */\n      swap3\n      pop\n        /* \"#utility.yul\":8023:8141   */\n      pop\n        /* \"#utility.yul\":8180:8183   */\n      0x80\n        /* \"#utility.yul\":8207:8260   */\n      tag_250\n        /* \"#utility.yul\":8252:8259   */\n      dup9\n        /* \"#utility.yul\":8243:8249   */\n      dup3\n        /* \"#utility.yul\":8232:8241   */\n      dup10\n        /* \"#utility.yul\":8228:8250   */\n      add\n        /* \"#utility.yul\":8207:8260   */\n      tag_103\n      jump\t// in\n    tag_250:\n        /* \"#utility.yul\":8197:8260   */\n      swap2\n      pop\n        /* \"#utility.yul\":8151:8270   */\n      pop\n        /* \"#utility.yul\":7006:8277   */\n      swap3\n      swap6\n      pop\n      swap3\n      swap6\n      swap1\n      swap4\n      pop\n      jump\t// out\n        /* \"#utility.yul\":8283:8463   */\n    tag_126:\n        /* \"#utility.yul\":8331:8408   */\n      0x4e487b7100000000000000000000000000000000000000000000000000000000\n        /* \"#utility.yul\":8328:8329   */\n      0x00\n        /* \"#utility.yul\":8321:8409   */\n      mstore\n        /* \"#utility.yul\":8428:8432   */\n      0x22\n        /* \"#utility.yul\":8425:8426   */\n      0x04\n        /* \"#utility.yul\":8418:8433   */\n      mstore\n        /* \"#utility.yul\":8452:8456   */\n      0x24\n        /* \"#utility.yul\":8449:8450   */\n      0x00\n        /* \"#utility.yul\":8442:8457   */\n      revert\n        /* \"#utility.yul\":8469:8789   */\n    tag_45:\n        /* \"#utility.yul\":8513:8519   */\n      0x00\n        /* \"#utility.yul\":8550:8551   */\n      0x02\n        /* \"#utility.yul\":8544:8548   */\n      dup3\n        /* \"#utility.yul\":8540:8552   */\n      div\n        /* \"#utility.yul\":8530:8552   */\n      swap1\n      pop\n        /* \"#utility.yul\":8597:8598   */\n      0x01\n        /* \"#utility.yul\":8591:8595   */\n      dup3\n        /* \"#utility.yul\":8587:8599   */\n      and\n        /* \"#utility.yul\":8618:8636   */\n      dup1\n        /* \"#utility.yul\":8608:8689   */\n      tag_253\n      jumpi\n        /* \"#utility.yul\":8674:8678   */\n      0x7f\n        /* \"#utility.yul\":8666:8672   */\n      dup3\n        /* \"#utility.yul\":8662:8679   */\n      and\n        /* \"#utility.yul\":8652:8679   */\n      swap2\n      pop\n        /* \"#utility.yul\":8608:8689   */\n    tag_253:\n        /* \"#utility.yul\":8736:8738   */\n      0x20\n        /* \"#utility.yul\":8728:8734   */\n      dup3\n        /* \"#utility.yul\":8725:8739   */\n      lt\n        /* \"#utility.yul\":8705:8723   */\n      dup2\n        /* \"#utility.yul\":8702:8740   */\n      sub\n        /* \"#utility.yul\":8699:8783   */\n      tag_254\n      jumpi\n        /* \"#utility.yul\":8755:8773   */\n      tag_255\n      tag_126\n      jump\t// in\n    tag_255:\n        /* \"#utility.yul\":8699:8783   */\n    tag_254:\n        /* \"#utility.yul\":8520:8789   */\n      pop\n        /* \"#utility.yul\":8469:8789   */\n      swap2\n      swap1\n      pop\n      jump\t// out\n        /* \"#utility.yul\":8795:9026   */\n    tag_127:\n        /* \"#utility.yul\":8935:8969   */\n      0x46756e64696e6720676f616c2069732072656163686564202c20757365722063\n        /* \"#utility.yul\":8931:8932   */\n      0x00\n        /* \"#utility.yul\":8923:8929   */\n      dup3\n        /* \"#utility.yul\":8919:8933   */\n      add\n        /* \"#utility.yul\":8912:8970   */\n      mstore\n        /* \"#utility.yul\":9004:9018   */\n      0x616e742077697468647261770000000000000000000000000000000000000000\n        /* \"#utility.yul\":8999:9001   */\n      0x20\n        /* \"#utility.yul\":8991:8997   */\n      dup3\n        /* \"#utility.yul\":8987:9002   */\n      add\n        /* \"#utility.yul\":8980:9019   */\n      mstore\n        /* \"#utility.yul\":8795:9026   */\n      pop\n      jump\t// out\n        /* \"#utility.yul\":9032:9398   */\n    tag_128:\n        /* \"#utility.yul\":9174:9177   */\n      0x00\n        /* \"#utility.yul\":9195:9262   */\n      tag_258\n        /* \"#utility.yul\":9259:9261   */\n      0x2c\n        /* \"#utility.yul\":9254:9257   */\n      dup4\n        /* \"#utility.yul\":9195:9262   */\n      tag_108\n      jump\t// in\n    tag_258:\n        /* \"#utility.yul\":9188:9262   */\n      swap2\n      pop\n        /* \"#utility.yul\":9271:9364   */\n      tag_259\n        /* \"#utility.yul\":9360:9363   */\n      dup3\n        /* \"#utility.yul\":9271:9364   */\n      tag_127\n      jump\t// in\n    tag_259:\n        /* \"#utility.yul\":9389:9391   */\n      0x40\n        /* \"#utility.yul\":9384:9387   */\n      dup3\n        /* \"#utility.yul\":9380:9392   */\n      add\n        /* \"#utility.yul\":9373:9392   */\n      swap1\n      pop\n        /* \"#utility.yul\":9032:9398   */\n      swap2\n      swap1\n      pop\n      jump\t// out\n        /* \"#utility.yul\":9404:9823   */\n    tag_58:\n        /* \"#utility.yul\":9570:9574   */\n      0x00\n        /* \"#utility.yul\":9608:9610   */\n      0x20\n        /* \"#utility.yul\":9597:9606   */\n      dup3\n        /* \"#utility.yul\":9593:9611   */\n      add\n        /* \"#utility.yul\":9585:9611   */\n      swap1\n      pop\n        /* \"#utility.yul\":9657:9666   */\n      dup2\n        /* \"#utility.yul\":9651:9655   */\n      dup2\n        /* \"#utility.yul\":9647:9667   */\n      sub\n        /* \"#utility.yul\":9643:9644   */\n      0x00\n        /* \"#utility.yul\":9632:9641   */\n      dup4\n        /* \"#utility.yul\":9628:9645   */\n      add\n        /* \"#utility.yul\":9621:9668   */\n      mstore\n        /* \"#utility.yul\":9685:9816   */\n      tag_261\n        /* \"#utility.yul\":9811:9815   */\n      dup2\n        /* \"#utility.yul\":9685:9816   */\n      tag_128\n      jump\t// in\n    tag_261:\n        /* \"#utility.yul\":9677:9816   */\n      swap1\n      pop\n        /* \"#utility.yul\":9404:9823   */\n      swap2\n      swap1\n      pop\n      jump\t// out\n        /* \"#utility.yul\":9829:10051   */\n    tag_129:\n        /* \"#utility.yul\":9969:10003   */\n      0x50726f6a65637420646561646c696e6520697320616c72656164792070617373\n        /* \"#utility.yul\":9965:9966   */\n      0x00\n        /* \"#utility.yul\":9957:9963   */\n      dup3\n        /* \"#utility.yul\":9953:9967   */\n      add\n        /* \"#utility.yul\":9946:10004   */\n      mstore\n        /* \"#utility.yul\":10038:10043   */\n      0x65642e0000000000000000000000000000000000000000000000000000000000\n        /* \"#utility.yul\":10033:10035   */\n      0x20\n        /* \"#utility.yul\":10025:10031   */\n      dup3\n        /* \"#utility.yul\":10021:10036   */\n      add\n        /* \"#utility.yul\":10014:10044   */\n      mstore\n        /* \"#utility.yul\":9829:10051   */\n      pop\n      jump\t// out\n        /* \"#utility.yul\":10057:10423   */\n    tag_130:\n        /* \"#utility.yul\":10199:10202   */\n      0x00\n        /* \"#utility.yul\":10220:10287   */\n      tag_264\n        /* \"#utility.yul\":10284:10286   */\n      0x23\n        /* \"#utility.yul\":10279:10282   */\n      dup4\n        /* \"#utility.yul\":10220:10287   */\n      tag_108\n      jump\t// in\n    tag_264:\n        /* \"#utility.yul\":10213:10287   */\n      swap2\n      pop\n        /* \"#utility.yul\":10296:10389   */\n      tag_265\n        /* \"#utility.yul\":10385:10388   */\n      dup3\n        /* \"#utility.yul\":10296:10389   */\n      tag_129\n      jump\t// in\n    tag_265:\n        /* \"#utility.yul\":10414:10416   */\n      0x40\n        /* \"#utility.yul\":10409:10412   */\n      dup3\n        /* \"#utility.yul\":10405:10417   */\n      add\n        /* \"#utility.yul\":10398:10417   */\n      swap1\n      pop\n        /* \"#utility.yul\":10057:10423   */\n      swap2\n      swap1\n      pop\n      jump\t// out\n        /* \"#utility.yul\":10429:10848   */\n    tag_64:\n        /* \"#utility.yul\":10595:10599   */\n      0x00\n        /* \"#utility.yul\":10633:10635   */\n      0x20\n        /* \"#utility.yul\":10622:10631   */\n      dup3\n        /* \"#utility.yul\":10618:10636   */\n      add\n        /* \"#utility.yul\":10610:10636   */\n      swap1\n      pop\n        /* \"#utility.yul\":10682:10691   */\n      dup2\n        /* \"#utility.yul\":10676:10680   */\n      dup2\n        /* \"#utility.yul\":10672:10692   */\n      sub\n        /* \"#utility.yul\":10668:10669   */\n      0x00\n        /* \"#utility.yul\":10657:10666   */\n      dup4\n        /* \"#utility.yul\":10653:10670   */\n      add\n        /* \"#utility.yul\":10646:10693   */\n      mstore\n        /* \"#utility.yul\":10710:10841   */\n      tag_267\n        /* \"#utility.yul\":10836:10840   */\n      dup2\n        /* \"#utility.yul\":10710:10841   */\n      tag_130\n      jump\t// in\n    tag_267:\n        /* \"#utility.yul\":10702:10841   */\n      swap1\n      pop\n        /* \"#utility.yul\":10429:10848   */\n      swap2\n      swap1\n      pop\n      jump\t// out\n        /* \"#utility.yul\":10854:11029   */\n    tag_131:\n        /* \"#utility.yul\":10994:11021   */\n      0x50726f6a65637420697320616c72656164792066756e64656400000000000000\n        /* \"#utility.yul\":10990:10991   */\n      0x00\n        /* \"#utility.yul\":10982:10988   */\n      dup3\n        /* \"#utility.yul\":10978:10992   */\n      add\n        /* \"#utility.yul\":10971:11022   */\n      mstore\n        /* \"#utility.yul\":10854:11029   */\n      pop\n      jump\t// out\n        /* \"#utility.yul\":11035:11401   */\n    tag_132:\n        /* \"#utility.yul\":11177:11180   */\n      0x00\n        /* \"#utility.yul\":11198:11265   */\n      tag_270\n        /* \"#utility.yul\":11262:11264   */\n      0x19\n        /* \"#utility.yul\":11257:11260   */\n      dup4\n        /* \"#utility.yul\":11198:11265   */\n      tag_108\n      jump\t// in\n    tag_270:\n        /* \"#utility.yul\":11191:11265   */\n      swap2\n      pop\n        /* \"#utility.yul\":11274:11367   */\n      tag_271\n        /* \"#utility.yul\":11363:11366   */\n      dup3\n        /* \"#utility.yul\":11274:11367   */\n      tag_131\n      jump\t// in\n    tag_271:\n        /* \"#utility.yul\":11392:11394   */\n      0x20\n        /* \"#utility.yul\":11387:11390   */\n      dup3\n        /* \"#utility.yul\":11383:11395   */\n      add\n        /* \"#utility.yul\":11376:11395   */\n      swap1\n      pop\n        /* \"#utility.yul\":11035:11401   */\n      swap2\n      swap1\n      pop\n      jump\t// out\n        /* \"#utility.yul\":11407:11826   */\n    tag_67:\n        /* \"#utility.yul\":11573:11577   */\n      0x00\n        /* \"#utility.yul\":11611:11613   */\n      0x20\n        /* \"#utility.yul\":11600:11609   */\n      dup3\n        /* \"#utility.yul\":11596:11614   */\n      add\n        /* \"#utility.yul\":11588:11614   */\n      swap1\n      pop\n        /* \"#utility.yul\":11660:11669   */\n      dup2\n        /* \"#utility.yul\":11654:11658   */\n      dup2\n        /* \"#utility.yul\":11650:11670   */\n      sub\n        /* \"#utility.yul\":11646:11647   */\n      0x00\n        /* \"#utility.yul\":11635:11644   */\n      dup4\n        /* \"#utility.yul\":11631:11648   */\n      add\n        /* \"#utility.yul\":11624:11671   */\n      mstore\n        /* \"#utility.yul\":11688:11819   */\n      tag_273\n        /* \"#utility.yul\":11814:11818   */\n      dup2\n        /* \"#utility.yul\":11688:11819   */\n      tag_132\n      jump\t// in\n    tag_273:\n        /* \"#utility.yul\":11680:11819   */\n      swap1\n      pop\n        /* \"#utility.yul\":11407:11826   */\n      swap2\n      swap1\n      pop\n      jump\t// out\n        /* \"#utility.yul\":11832:12012   */\n    tag_133:\n        /* \"#utility.yul\":11972:12004   */\n      0x4d7573742073656e7420736f6d652076616c7565206f662065746865722e0000\n        /* \"#utility.yul\":11968:11969   */\n      0x00\n        /* \"#utility.yul\":11960:11966   */\n      dup3\n        /* \"#utility.yul\":11956:11970   */\n      add\n        /* \"#utility.yul\":11949:12005   */\n      mstore\n        /* \"#utility.yul\":11832:12012   */\n      pop\n      jump\t// out\n        /* \"#utility.yul\":12018:12384   */\n    tag_134:\n        /* \"#utility.yul\":12160:12163   */\n      0x00\n        /* \"#utility.yul\":12181:12248   */\n      tag_276\n        /* \"#utility.yul\":12245:12247   */\n      0x1e\n        /* \"#utility.yul\":12240:12243   */\n      dup4\n        /* \"#utility.yul\":12181:12248   */\n      tag_108\n      jump\t// in\n    tag_276:\n        /* \"#utility.yul\":12174:12248   */\n      swap2\n      pop\n        /* \"#utility.yul\":12257:12350   */\n      tag_277\n        /* \"#utility.yul\":12346:12349   */\n      dup3\n        /* \"#utility.yul\":12257:12350   */\n      tag_133\n      jump\t// in\n    tag_277:\n        /* \"#utility.yul\":12375:12377   */\n      0x20\n        /* \"#utility.yul\":12370:12373   */\n      dup3\n        /* \"#utility.yul\":12366:12378   */\n      add\n        /* \"#utility.yul\":12359:12378   */\n      swap1\n      pop\n        /* \"#utility.yul\":12018:12384   */\n      swap2\n      swap1\n      pop\n      jump\t// out\n        /* \"#utility.yul\":12390:12809   */\n    tag_70:\n        /* \"#utility.yul\":12556:12560   */\n      0x00\n        /* \"#utility.yul\":12594:12596   */\n      0x20\n        /* \"#utility.yul\":12583:12592   */\n      dup3\n        /* \"#utility.yul\":12579:12597   */\n      add\n        /* \"#utility.yul\":12571:12597   */\n      swap1\n      pop\n        /* \"#utility.yul\":12643:12652   */\n      dup2\n        /* \"#utility.yul\":12637:12641   */\n      dup2\n        /* \"#utility.yul\":12633:12653   */\n      sub\n        /* \"#utility.yul\":12629:12630   */\n      0x00\n        /* \"#utility.yul\":12618:12627   */\n      dup4\n        /* \"#utility.yul\":12614:12631   */\n      add\n        /* \"#utility.yul\":12607:12654   */\n      mstore\n        /* \"#utility.yul\":12671:12802   */\n      tag_279\n        /* \"#utility.yul\":12797:12801   */\n      dup2\n        /* \"#utility.yul\":12671:12802   */\n      tag_134\n      jump\t// in\n    tag_279:\n        /* \"#utility.yul\":12663:12802   */\n      swap1\n      pop\n        /* \"#utility.yul\":12390:12809   */\n      swap2\n      swap1\n      pop\n      jump\t// out\n        /* \"#utility.yul\":12815:12995   */\n    tag_135:\n        /* \"#utility.yul\":12863:12940   */\n      0x4e487b7100000000000000000000000000000000000000000000000000000000\n        /* \"#utility.yul\":12860:12861   */\n      0x00\n        /* \"#utility.yul\":12853:12941   */\n      mstore\n        /* \"#utility.yul\":12960:12964   */\n      0x11\n        /* \"#utility.yul\":12957:12958   */\n      0x04\n        /* \"#utility.yul\":12950:12965   */\n      mstore\n        /* \"#utility.yul\":12984:12988   */\n      0x24\n        /* \"#utility.yul\":12981:12982   */\n      0x00\n        /* \"#utility.yul\":12974:12989   */\n      revert\n        /* \"#utility.yul\":13001:13192   */\n    tag_72:\n        /* \"#utility.yul\":13041:13044   */\n      0x00\n        /* \"#utility.yul\":13060:13080   */\n      tag_282\n        /* \"#utility.yul\":13078:13079   */\n      dup3\n        /* \"#utility.yul\":13060:13080   */\n      tag_101\n      jump\t// in\n    tag_282:\n        /* \"#utility.yul\":13055:13080   */\n      swap2\n      pop\n        /* \"#utility.yul\":13094:13114   */\n      tag_283\n        /* \"#utility.yul\":13112:13113   */\n      dup4\n        /* \"#utility.yul\":13094:13114   */\n      tag_101\n      jump\t// in\n    tag_283:\n        /* \"#utility.yul\":13089:13114   */\n      swap3\n      pop\n        /* \"#utility.yul\":13137:13138   */\n      dup3\n        /* \"#utility.yul\":13134:13135   */\n      dup3\n        /* \"#utility.yul\":13130:13139   */\n      add\n        /* \"#utility.yul\":13123:13139   */\n      swap1\n      pop\n        /* \"#utility.yul\":13158:13161   */\n      dup1\n        /* \"#utility.yul\":13155:13156   */\n      dup3\n        /* \"#utility.yul\":13152:13162   */\n      gt\n        /* \"#utility.yul\":13149:13185   */\n      iszero\n      tag_284\n      jumpi\n        /* \"#utility.yul\":13165:13183   */\n      tag_285\n      tag_135\n      jump\t// in\n    tag_285:\n        /* \"#utility.yul\":13149:13185   */\n    tag_284:\n        /* \"#utility.yul\":13001:13192   */\n      swap3\n      swap2\n      pop\n      pop\n      jump\t// out\n        /* \"#utility.yul\":13198:13373   */\n    tag_136:\n        /* \"#utility.yul\":13338:13365   */\n      0x46756e64696e67206973206e6f742073756666696369656e7400000000000000\n        /* \"#utility.yul\":13334:13335   */\n      0x00\n        /* \"#utility.yul\":13326:13332   */\n      dup3\n        /* \"#utility.yul\":13322:13336   */\n      add\n        /* \"#utility.yul\":13315:13366   */\n      mstore\n        /* \"#utility.yul\":13198:13373   */\n      pop\n      jump\t// out\n        /* \"#utility.yul\":13379:13745   */\n    tag_137:\n        /* \"#utility.yul\":13521:13524   */\n      0x00\n        /* \"#utility.yul\":13542:13609   */\n      tag_288\n        /* \"#utility.yul\":13606:13608   */\n      0x19\n        /* \"#utility.yul\":13601:13604   */\n      dup4\n        /* \"#utility.yul\":13542:13609   */\n      tag_108\n      jump\t// in\n    tag_288:\n        /* \"#utility.yul\":13535:13609   */\n      swap2\n      pop\n        /* \"#utility.yul\":13618:13711   */\n      tag_289\n        /* \"#utility.yul\":13707:13710   */\n      dup3\n        /* \"#utility.yul\":13618:13711   */\n      tag_136\n      jump\t// in\n    tag_289:\n        /* \"#utility.yul\":13736:13738   */\n      0x20\n        /* \"#utility.yul\":13731:13734   */\n      dup3\n        /* \"#utility.yul\":13727:13739   */\n      add\n        /* \"#utility.yul\":13720:13739   */\n      swap1\n      pop\n        /* \"#utility.yul\":13379:13745   */\n      swap2\n      swap1\n      pop\n      jump\t// out\n        /* \"#utility.yul\":13751:14170   */\n    tag_78:\n        /* \"#utility.yul\":13917:13921   */\n      0x00\n        /* \"#utility.yul\":13955:13957   */\n      0x20\n        /* \"#utility.yul\":13944:13953   */\n      dup3\n        /* \"#utility.yul\":13940:13958   */\n      add\n        /* \"#utility.yul\":13932:13958   */\n      swap1\n      pop\n        /* \"#utility.yul\":14004:14013   */\n      dup2\n        /* \"#utility.yul\":13998:14002   */\n      dup2\n        /* \"#utility.yul\":13994:14014   */\n      sub\n        /* \"#utility.yul\":13990:13991   */\n      0x00\n        /* \"#utility.yul\":13979:13988   */\n      dup4\n        /* \"#utility.yul\":13975:13992   */\n      add\n        /* \"#utility.yul\":13968:14015   */\n      mstore\n        /* \"#utility.yul\":14032:14163   */\n      tag_291\n        /* \"#utility.yul\":14158:14162   */\n      dup2\n        /* \"#utility.yul\":14032:14163   */\n      tag_137\n      jump\t// in\n    tag_291:\n        /* \"#utility.yul\":14024:14163   */\n      swap1\n      pop\n        /* \"#utility.yul\":13751:14170   */\n      swap2\n      swap1\n      pop\n      jump\t// out\n        /* \"#utility.yul\":14176:14357   */\n    tag_138:\n        /* \"#utility.yul\":14316:14349   */\n      0x4f6e6c792070726f6a6563742061646d696e2063616e20776974687372617700\n        /* \"#utility.yul\":14312:14313   */\n      0x00\n        /* \"#utility.yul\":14304:14310   */\n      dup3\n        /* \"#utility.yul\":14300:14314   */\n      add\n        /* \"#utility.yul\":14293:14350   */\n      mstore\n        /* \"#utility.yul\":14176:14357   */\n      pop\n      jump\t// out\n        /* \"#utility.yul\":14363:14729   */\n    tag_139:\n        /* \"#utility.yul\":14505:14508   */\n      0x00\n        /* \"#utility.yul\":14526:14593   */\n      tag_294\n        /* \"#utility.yul\":14590:14592   */\n      0x1f\n        /* \"#utility.yul\":14585:14588   */\n      dup4\n        /* \"#utility.yul\":14526:14593   */\n      tag_108\n      jump\t// in\n    tag_294:\n        /* \"#utility.yul\":14519:14593   */\n      swap2\n      pop\n        /* \"#utility.yul\":14602:14695   */\n      tag_295\n        /* \"#utility.yul\":14691:14694   */\n      dup3\n        /* \"#utility.yul\":14602:14695   */\n      tag_138\n      jump\t// in\n    tag_295:\n        /* \"#utility.yul\":14720:14722   */\n      0x20\n        /* \"#utility.yul\":14715:14718   */\n      dup3\n        /* \"#utility.yul\":14711:14723   */\n      add\n        /* \"#utility.yul\":14704:14723   */\n      swap1\n      pop\n        /* \"#utility.yul\":14363:14729   */\n      swap2\n      swap1\n      pop\n      jump\t// out\n        /* \"#utility.yul\":14735:15154   */\n    tag_81:\n        /* \"#utility.yul\":14901:14905   */\n      0x00\n        /* \"#utility.yul\":14939:14941   */\n      0x20\n        /* \"#utility.yul\":14928:14937   */\n      dup3\n        /* \"#utility.yul\":14924:14942   */\n      add\n        /* \"#utility.yul\":14916:14942   */\n      swap1\n      pop\n        /* \"#utility.yul\":14988:14997   */\n      dup2\n        /* \"#utility.yul\":14982:14986   */\n      dup2\n        /* \"#utility.yul\":14978:14998   */\n      sub\n        /* \"#utility.yul\":14974:14975   */\n      0x00\n        /* \"#utility.yul\":14963:14972   */\n      dup4\n        /* \"#utility.yul\":14959:14976   */\n      add\n        /* \"#utility.yul\":14952:14999   */\n      mstore\n        /* \"#utility.yul\":15016:15147   */\n      tag_297\n        /* \"#utility.yul\":15142:15146   */\n      dup2\n        /* \"#utility.yul\":15016:15147   */\n      tag_139\n      jump\t// in\n    tag_297:\n        /* \"#utility.yul\":15008:15147   */\n      swap1\n      pop\n        /* \"#utility.yul\":14735:15154   */\n      swap2\n      swap1\n      pop\n      jump\t// out\n        /* \"#utility.yul\":15160:15382   */\n    tag_140:\n        /* \"#utility.yul\":15300:15334   */\n      0x446561646c696e6520666f722070726f6a656374206973206e6f742072656163\n        /* \"#utility.yul\":15296:15297   */\n      0x00\n        /* \"#utility.yul\":15288:15294   */\n      dup3\n        /* \"#utility.yul\":15284:15298   */\n      add\n        /* \"#utility.yul\":15277:15335   */\n      mstore\n        /* \"#utility.yul\":15369:15374   */\n      0x6865640000000000000000000000000000000000000000000000000000000000\n        /* \"#utility.yul\":15364:15366   */\n      0x20\n        /* \"#utility.yul\":15356:15362   */\n      dup3\n        /* \"#utility.yul\":15352:15367   */\n      add\n        /* \"#utility.yul\":15345:15375   */\n      mstore\n        /* \"#utility.yul\":15160:15382   */\n      pop\n      jump\t// out\n        /* \"#utility.yul\":15388:15754   */\n    tag_141:\n        /* \"#utility.yul\":15530:15533   */\n      0x00\n        /* \"#utility.yul\":15551:15618   */\n      tag_300\n        /* \"#utility.yul\":15615:15617   */\n      0x23\n        /* \"#utility.yul\":15610:15613   */\n      dup4\n        /* \"#utility.yul\":15551:15618   */\n      tag_108\n      jump\t// in\n    tag_300:\n        /* \"#utility.yul\":15544:15618   */\n      swap2\n      pop\n        /* \"#utility.yul\":15627:15720   */\n      tag_301\n        /* \"#utility.yul\":15716:15719   */\n      dup3\n        /* \"#utility.yul\":15627:15720   */\n      tag_140\n      jump\t// in\n    tag_301:\n        /* \"#utility.yul\":15745:15747   */\n      0x40\n        /* \"#utility.yul\":15740:15743   */\n      dup3\n        /* \"#utility.yul\":15736:15748   */\n      add\n        /* \"#utility.yul\":15729:15748   */\n      swap1\n      pop\n        /* \"#utility.yul\":15388:15754   */\n      swap2\n      swap1\n      pop\n      jump\t// out\n        /* \"#utility.yul\":15760:16179   */\n    tag_84:\n        /* \"#utility.yul\":15926:15930   */\n      0x00\n        /* \"#utility.yul\":15964:15966   */\n      0x20\n        /* \"#utility.yul\":15953:15962   */\n      dup3\n        /* \"#utility.yul\":15949:15967   */\n      add\n        /* \"#utility.yul\":15941:15967   */\n      swap1\n      pop\n        /* \"#utility.yul\":16013:16022   */\n      dup2\n        /* \"#utility.yul\":16007:16011   */\n      dup2\n        /* \"#utility.yul\":16003:16023   */\n      sub\n        /* \"#utility.yul\":15999:16000   */\n      0x00\n        /* \"#utility.yul\":15988:15997   */\n      dup4\n        /* \"#utility.yul\":15984:16001   */\n      add\n        /* \"#utility.yul\":15977:16024   */\n      mstore\n        /* \"#utility.yul\":16041:16172   */\n      tag_303\n        /* \"#utility.yul\":16167:16171   */\n      dup2\n        /* \"#utility.yul\":16041:16172   */\n      tag_141\n      jump\t// in\n    tag_303:\n        /* \"#utility.yul\":16033:16172   */\n      swap1\n      pop\n        /* \"#utility.yul\":15760:16179   */\n      swap2\n      swap1\n      pop\n      jump\t// out\n        /* \"#utility.yul\":16185:16361   */\n    tag_142:\n        /* \"#utility.yul\":16325:16353   */\n      0x50726f6a65637420496420697320616c72656164792075736564000000000000\n        /* \"#utility.yul\":16321:16322   */\n      0x00\n        /* \"#utility.yul\":16313:16319   */\n      dup3\n        /* \"#utility.yul\":16309:16323   */\n      add\n        /* \"#utility.yul\":16302:16354   */\n      mstore\n        /* \"#utility.yul\":16185:16361   */\n      pop\n      jump\t// out\n        /* \"#utility.yul\":16367:16733   */\n    tag_143:\n        /* \"#utility.yul\":16509:16512   */\n      0x00\n        /* \"#utility.yul\":16530:16597   */\n      tag_306\n        /* \"#utility.yul\":16594:16596   */\n      0x1a\n        /* \"#utility.yul\":16589:16592   */\n      dup4\n        /* \"#utility.yul\":16530:16597   */\n      tag_108\n      jump\t// in\n    tag_306:\n        /* \"#utility.yul\":16523:16597   */\n      swap2\n      pop\n        /* \"#utility.yul\":16606:16699   */\n      tag_307\n        /* \"#utility.yul\":16695:16698   */\n      dup3\n        /* \"#utility.yul\":16606:16699   */\n      tag_142\n      jump\t// in\n    tag_307:\n        /* \"#utility.yul\":16724:16726   */\n      0x20\n        /* \"#utility.yul\":16719:16722   */\n      dup3\n        /* \"#utility.yul\":16715:16727   */\n      add\n        /* \"#utility.yul\":16708:16727   */\n      swap1\n      pop\n        /* \"#utility.yul\":16367:16733   */\n      swap2\n      swap1\n      pop\n      jump\t// out\n        /* \"#utility.yul\":16739:17158   */\n    tag_90:\n        /* \"#utility.yul\":16905:16909   */\n      0x00\n        /* \"#utility.yul\":16943:16945   */\n      0x20\n        /* \"#utility.yul\":16932:16941   */\n      dup3\n        /* \"#utility.yul\":16928:16946   */\n      add\n        /* \"#utility.yul\":16920:16946   */\n      swap1\n      pop\n        /* \"#utility.yul\":16992:17001   */\n      dup2\n        /* \"#utility.yul\":16986:16990   */\n      dup2\n        /* \"#utility.yul\":16982:17002   */\n      sub\n        /* \"#utility.yul\":16978:16979   */\n      0x00\n        /* \"#utility.yul\":16967:16976   */\n      dup4\n        /* \"#utility.yul\":16963:16980   */\n      add\n        /* \"#utility.yul\":16956:17003   */\n      mstore\n        /* \"#utility.yul\":17020:17151   */\n      tag_309\n        /* \"#utility.yul\":17146:17150   */\n      dup2\n        /* \"#utility.yul\":17020:17151   */\n      tag_143\n      jump\t// in\n    tag_309:\n        /* \"#utility.yul\":17012:17151   */\n      swap1\n      pop\n        /* \"#utility.yul\":16739:17158   */\n      swap2\n      swap1\n      pop\n      jump\t// out\n        /* \"#utility.yul\":17164:17305   */\n    tag_144:\n        /* \"#utility.yul\":17213:17217   */\n      0x00\n        /* \"#utility.yul\":17236:17239   */\n      dup2\n        /* \"#utility.yul\":17228:17239   */\n      swap1\n      pop\n        /* \"#utility.yul\":17259:17262   */\n      dup2\n        /* \"#utility.yul\":17256:17257   */\n      0x00\n        /* \"#utility.yul\":17249:17263   */\n      mstore\n        /* \"#utility.yul\":17293:17297   */\n      0x20\n        /* \"#utility.yul\":17290:17291   */\n      0x00\n        /* \"#utility.yul\":17280:17298   */\n      keccak256\n        /* \"#utility.yul\":17272:17298   */\n      swap1\n      pop\n        /* \"#utility.yul\":17164:17305   */\n      swap2\n      swap1\n      pop\n      jump\t// out\n        /* \"#utility.yul\":17311:17404   */\n    tag_145:\n        /* \"#utility.yul\":17348:17354   */\n      0x00\n        /* \"#utility.yul\":17395:17397   */\n      0x20\n        /* \"#utility.yul\":17390:17392   */\n      0x1f\n        /* \"#utility.yul\":17383:17388   */\n      dup4\n        /* \"#utility.yul\":17379:17393   */\n      add\n        /* \"#utility.yul\":17375:17398   */\n      div\n        /* \"#utility.yul\":17365:17398   */\n      swap1\n      pop\n        /* \"#utility.yul\":17311:17404   */\n      swap2\n      swap1\n      pop\n      jump\t// out\n        /* \"#utility.yul\":17410:17517   */\n    tag_146:\n        /* \"#utility.yul\":17454:17462   */\n      0x00\n        /* \"#utility.yul\":17504:17509   */\n      dup3\n        /* \"#utility.yul\":17498:17502   */\n      dup3\n        /* \"#utility.yul\":17494:17510   */\n      shl\n        /* \"#utility.yul\":17473:17510   */\n      swap1\n      pop\n        /* \"#utility.yul\":17410:17517   */\n      swap3\n      swap2\n      pop\n      pop\n      jump\t// out\n        /* \"#utility.yul\":17523:17916   */\n    tag_147:\n        /* \"#utility.yul\":17592:17598   */\n      0x00\n        /* \"#utility.yul\":17642:17643   */\n      0x08\n        /* \"#utility.yul\":17630:17640   */\n      dup4\n        /* \"#utility.yul\":17626:17644   */\n      mul\n        /* \"#utility.yul\":17665:17762   */\n      tag_314\n        /* \"#utility.yul\":17695:17761   */\n      0xffffffffffffffffffffffffffffffffffffffffffffffffffffffffffffffff\n        /* \"#utility.yul\":17684:17693   */\n      dup3\n        /* \"#utility.yul\":17665:17762   */\n      tag_146\n      jump\t// in\n    tag_314:\n        /* \"#utility.yul\":17783:17822   */\n      tag_315\n        /* \"#utility.yul\":17813:17821   */\n      dup7\n        /* \"#utility.yul\":17802:17811   */\n      dup4\n        /* \"#utility.yul\":17783:17822   */\n      tag_146\n      jump\t// in\n    tag_315:\n        /* \"#utility.yul\":17771:17822   */\n      swap6\n      pop\n        /* \"#utility.yul\":17855:17859   */\n      dup1\n        /* \"#utility.yul\":17851:17860   */\n      not\n        /* \"#utility.yul\":17844:17849   */\n      dup5\n        /* \"#utility.yul\":17840:17861   */\n      and\n        /* \"#utility.yul\":17831:17861   */\n      swap4\n      pop\n        /* \"#utility.yul\":17904:17908   */\n      dup1\n        /* \"#utility.yul\":17894:17902   */\n      dup7\n        /* \"#utility.yul\":17890:17909   */\n      and\n        /* \"#utility.yul\":17883:17888   */\n      dup5\n        /* \"#utility.yul\":17880:17910   */\n      or\n        /* \"#utility.yul\":17870:17910   */\n      swap3\n      pop\n        /* \"#utility.yul\":17599:17916   */\n      pop\n      pop\n        /* \"#utility.yul\":17523:17916   */\n      swap4\n      swap3\n      pop\n      pop\n      pop\n      jump\t// out\n        /* \"#utility.yul\":17922:17982   */\n    tag_148:\n        /* \"#utility.yul\":17950:17953   */\n      0x00\n        /* \"#utility.yul\":17971:17976   */\n      dup2\n        /* \"#utility.yul\":17964:17976   */\n      swap1\n      pop\n        /* \"#utility.yul\":17922:17982   */\n      swap2\n      swap1\n      pop\n      jump\t// out\n        /* \"#utility.yul\":17988:18130   */\n    tag_149:\n        /* \"#utility.yul\":18038:18047   */\n      0x00\n        /* \"#utility.yul\":18071:18124   */\n      tag_318\n        /* \"#utility.yul\":18089:18123   */\n      tag_319\n        /* \"#utility.yul\":18098:18122   */\n      tag_320\n        /* \"#utility.yul\":18116:18121   */\n      dup5\n        /* \"#utility.yul\":18098:18122   */\n      tag_101\n      jump\t// in\n    tag_320:\n        /* \"#utility.yul\":18089:18123   */\n      tag_148\n      jump\t// in\n    tag_319:\n        /* \"#utility.yul\":18071:18124   */\n      tag_101\n      jump\t// in\n    tag_318:\n        /* \"#utility.yul\":18058:18124   */\n      swap1\n      pop\n        /* \"#utility.yul\":17988:18130   */\n      swap2\n      swap1\n      pop\n      jump\t// out\n        /* \"#utility.yul\":18136:18211   */\n    tag_150:\n        /* \"#utility.yul\":18179:18182   */\n      0x00\n        /* \"#utility.yul\":18200:18205   */\n      dup2\n        /* \"#utility.yul\":18193:18205   */\n      swap1\n      pop\n        /* \"#utility.yul\":18136:18211   */\n      swap2\n      swap1\n      pop\n      jump\t// out\n        /* \"#utility.yul\":18217:18486   */\n    tag_151:\n        /* \"#utility.yul\":18327:18366   */\n      tag_323\n        /* \"#utility.yul\":18358:18365   */\n      dup4\n        /* \"#utility.yul\":18327:18366   */\n      tag_149\n      jump\t// in\n    tag_323:\n        /* \"#utility.yul\":18388:18479   */\n      tag_324\n        /* \"#utility.yul\":18437:18478   */\n      tag_325\n        /* \"#utility.yul\":18461:18477   */\n      dup3\n        /* \"#utility.yul\":18437:18478   */\n      tag_150\n      jump\t// in\n    tag_325:\n        /* \"#utility.yul\":18429:18435   */\n      dup5\n        /* \"#utility.yul\":18422:18426   */\n      dup5\n        /* \"#utility.yul\":18416:18427   */\n      sload\n        /* \"#utility.yul\":18388:18479   */\n      tag_147\n      jump\t// in\n    tag_324:\n        /* \"#utility.yul\":18382:18386   */\n      dup3\n        /* \"#utility.yul\":18375:18480   */\n      sstore\n        /* \"#utility.yul\":18293:18486   */\n      pop\n        /* \"#utility.yul\":18217:18486   */\n      pop\n      pop\n      pop\n      jump\t// out\n        /* \"#utility.yul\":18492:18565   */\n    tag_152:\n        /* \"#utility.yul\":18537:18540   */\n      0x00\n        /* \"#utility.yul\":18492:18565   */\n      swap1\n      jump\t// out\n        /* \"#utility.yul\":18571:18760   */\n    tag_153:\n        /* \"#utility.yul\":18648:18680   */\n      tag_328\n      tag_152\n      jump\t// in\n    tag_328:\n        /* \"#utility.yul\":18689:18754   */\n      tag_329\n        /* \"#utility.yul\":18747:18753   */\n      dup2\n        /* \"#utility.yul\":18739:18745   */\n      dup5\n        /* \"#utility.yul\":18733:18737   */\n      dup5\n        /* \"#utility.yul\":18689:18754   */\n      tag_151\n      jump\t// in\n    tag_329:\n        /* \"#utility.yul\":18624:18760   */\n      pop\n        /* \"#utility.yul\":18571:18760   */\n      pop\n      pop\n      jump\t// out\n        /* \"#utility.yul\":18766:18952   */\n    tag_154:\n        /* \"#utility.yul\":18826:18946   */\n    tag_331:\n        /* \"#utility.yul\":18843:18846   */\n      dup2\n        /* \"#utility.yul\":18836:18841   */\n      dup2\n        /* \"#utility.yul\":18833:18847   */\n      lt\n        /* \"#utility.yul\":18826:18946   */\n      iszero\n      tag_333\n      jumpi\n        /* \"#utility.yul\":18897:18936   */\n      tag_334\n        /* \"#utility.yul\":18934:18935   */\n      0x00\n        /* \"#utility.yul\":18927:18932   */\n      dup3\n        /* \"#utility.yul\":18897:18936   */\n      tag_153\n      jump\t// in\n    tag_334:\n        /* \"#utility.yul\":18870:18871   */\n      0x01\n        /* \"#utility.yul\":18863:18868   */\n      dup2\n        /* \"#utility.yul\":18859:18872   */\n      add\n        /* \"#utility.yul\":18850:18872   */\n      swap1\n      pop\n        /* \"#utility.yul\":18826:18946   */\n      jump(tag_331)\n    tag_333:\n        /* \"#utility.yul\":18766:18952   */\n      pop\n      pop\n      jump\t// out\n        /* \"#utility.yul\":18958:19501   */\n    tag_155:\n        /* \"#utility.yul\":19059:19061   */\n      0x1f\n        /* \"#utility.yul\":19054:19057   */\n      dup3\n        /* \"#utility.yul\":19051:19062   */\n      gt\n        /* \"#utility.yul\":19048:19494   */\n      iszero\n      tag_336\n      jumpi\n        /* \"#utility.yul\":19093:19131   */\n      tag_337\n        /* \"#utility.yul\":19125:19130   */\n      dup2\n        /* \"#utility.yul\":19093:19131   */\n      tag_144\n      jump\t// in\n    tag_337:\n        /* \"#utility.yul\":19177:19206   */\n      tag_338\n        /* \"#utility.yul\":19195:19205   */\n      dup5\n        /* \"#utility.yul\":19177:19206   */\n      tag_145\n      jump\t// in\n    tag_338:\n        /* \"#utility.yul\":19167:19175   */\n      dup2\n        /* \"#utility.yul\":19163:19207   */\n      add\n        /* \"#utility.yul\":19360:19362   */\n      0x20\n        /* \"#utility.yul\":19348:19358   */\n      dup6\n        /* \"#utility.yul\":19345:19363   */\n      lt\n        /* \"#utility.yul\":19342:19391   */\n      iszero\n      tag_339\n      jumpi\n        /* \"#utility.yul\":19381:19389   */\n      dup2\n        /* \"#utility.yul\":19366:19389   */\n      swap1\n      pop\n        /* \"#utility.yul\":19342:19391   */\n    tag_339:\n        /* \"#utility.yul\":19404:19484   */\n      tag_340\n        /* \"#utility.yul\":19460:19482   */\n      tag_341\n        /* \"#utility.yul\":19478:19481   */\n      dup6\n        /* \"#utility.yul\":19460:19482   */\n      tag_145\n      jump\t// in\n    tag_341:\n        /* \"#utility.yul\":19450:19458   */\n      dup4\n        /* \"#utility.yul\":19446:19483   */\n      add\n        /* \"#utility.yul\":19433:19444   */\n      dup3\n        /* \"#utility.yul\":19404:19484   */\n      tag_154\n      jump\t// in\n    tag_340:\n        /* \"#utility.yul\":19063:19494   */\n      pop\n      pop\n        /* \"#utility.yul\":19048:19494   */\n    tag_336:\n        /* \"#utility.yul\":18958:19501   */\n      pop\n      pop\n      pop\n      jump\t// out\n        /* \"#utility.yul\":19507:19624   */\n    tag_156:\n        /* \"#utility.yul\":19561:19569   */\n      0x00\n        /* \"#utility.yul\":19611:19616   */\n      dup3\n        /* \"#utility.yul\":19605:19609   */\n      dup3\n        /* \"#utility.yul\":19601:19617   */\n      shr\n        /* \"#utility.yul\":19580:19617   */\n      swap1\n      pop\n        /* \"#utility.yul\":19507:19624   */\n      swap3\n      swap2\n      pop\n      pop\n      jump\t// out\n        /* \"#utility.yul\":19630:19799   */\n    tag_157:\n        /* \"#utility.yul\":19674:19680   */\n      0x00\n        /* \"#utility.yul\":19707:19758   */\n      tag_344\n        /* \"#utility.yul\":19755:19756   */\n      0x00\n        /* \"#utility.yul\":19751:19757   */\n      not\n        /* \"#utility.yul\":19743:19748   */\n      dup5\n        /* \"#utility.yul\":19740:19741   */\n      0x08\n        /* \"#utility.yul\":19736:19749   */\n      mul\n        /* \"#utility.yul\":19707:19758   */\n      tag_156\n      jump\t// in\n    tag_344:\n        /* \"#utility.yul\":19703:19759   */\n      not\n        /* \"#utility.yul\":19788:19792   */\n      dup1\n        /* \"#utility.yul\":19782:19786   */\n      dup4\n        /* \"#utility.yul\":19778:19793   */\n      and\n        /* \"#utility.yul\":19768:19793   */\n      swap2\n      pop\n        /* \"#utility.yul\":19681:19799   */\n      pop\n        /* \"#utility.yul\":19630:19799   */\n      swap3\n      swap2\n      pop\n      pop\n      jump\t// out\n        /* \"#utility.yul\":19804:20099   */\n    tag_158:\n        /* \"#utility.yul\":19880:19884   */\n      0x00\n        /* \"#utility.yul\":20026:20055   */\n      tag_346\n        /* \"#utility.yul\":20051:20054   */\n      dup4\n        /* \"#utility.yul\":20045:20049   */\n      dup4\n        /* \"#utility.yul\":20026:20055   */\n      tag_157\n      jump\t// in\n    tag_346:\n        /* \"#utility.yul\":20018:20055   */\n      swap2\n      pop\n        /* \"#utility.yul\":20088:20091   */\n      dup3\n        /* \"#utility.yul\":20085:20086   */\n      0x02\n        /* \"#utility.yul\":20081:20092   */\n      mul\n        /* \"#utility.yul\":20075:20079   */\n      dup3\n        /* \"#utility.yul\":20072:20093   */\n      or\n        /* \"#utility.yul\":20064:20093   */\n      swap1\n      pop\n        /* \"#utility.yul\":19804:20099   */\n      swap3\n      swap2\n      pop\n      pop\n      jump\t// out\n        /* \"#utility.yul\":20104:21499   */\n    tag_93:\n        /* \"#utility.yul\":20221:20258   */\n      tag_348\n        /* \"#utility.yul\":20254:20257   */\n      dup3\n        /* \"#utility.yul\":20221:20258   */\n      tag_107\n      jump\t// in\n    tag_348:\n        /* \"#utility.yul\":20323:20341   */\n      0xffffffffffffffff\n        /* \"#utility.yul\":20315:20321   */\n      dup2\n        /* \"#utility.yul\":20312:20342   */\n      gt\n        /* \"#utility.yul\":20309:20365   */\n      iszero\n      tag_349\n      jumpi\n        /* \"#utility.yul\":20345:20363   */\n      tag_350\n      tag_119\n      jump\t// in\n    tag_350:\n        /* \"#utility.yul\":20309:20365   */\n    tag_349:\n        /* \"#utility.yul\":20389:20427   */\n      tag_351\n        /* \"#utility.yul\":20421:20425   */\n      dup3\n        /* \"#utility.yul\":20415:20426   */\n      sload\n        /* \"#utility.yul\":20389:20427   */\n      tag_45\n      jump\t// in\n    tag_351:\n        /* \"#utility.yul\":20474:20541   */\n      tag_352\n        /* \"#utility.yul\":20534:20540   */\n      dup3\n        /* \"#utility.yul\":20526:20532   */\n      dup3\n        /* \"#utility.yul\":20520:20524   */\n      dup6\n        /* \"#utility.yul\":20474:20541   */\n      tag_155\n      jump\t// in\n    tag_352:\n        /* \"#utility.yul\":20568:20569   */\n      0x00\n        /* \"#utility.yul\":20592:20596   */\n      0x20\n        /* \"#utility.yul\":20579:20596   */\n      swap1\n      pop\n        /* \"#utility.yul\":20624:20626   */\n      0x1f\n        /* \"#utility.yul\":20616:20622   */\n      dup4\n        /* \"#utility.yul\":20613:20627   */\n      gt\n        /* \"#utility.yul\":20641:20642   */\n      0x01\n        /* \"#utility.yul\":20636:21254   */\n      dup2\n      eq\n      tag_354\n      jumpi\n        /* \"#utility.yul\":21298:21299   */\n      0x00\n        /* \"#utility.yul\":21315:21321   */\n      dup5\n        /* \"#utility.yul\":21312:21389   */\n      iszero\n      tag_355\n      jumpi\n        /* \"#utility.yul\":21364:21373   */\n      dup3\n        /* \"#utility.yul\":21359:21362   */\n      dup8\n        /* \"#utility.yul\":21355:21374   */\n      add\n        /* \"#utility.yul\":21349:21375   */\n      mload\n        /* \"#utility.yul\":21340:21375   */\n      swap1\n      pop\n        /* \"#utility.yul\":21312:21389   */\n    tag_355:\n        /* \"#utility.yul\":21415:21482   */\n      tag_356\n        /* \"#utility.yul\":21475:21481   */\n      dup6\n        /* \"#utility.yul\":21468:21473   */\n      dup3\n        /* \"#utility.yul\":21415:21482   */\n      tag_158\n      jump\t// in\n    tag_356:\n        /* \"#utility.yul\":21409:21413   */\n      dup7\n        /* \"#utility.yul\":21402:21483   */\n      sstore\n        /* \"#utility.yul\":21271:21493   */\n      pop\n        /* \"#utility.yul\":20606:21493   */\n      jump(tag_353)\n        /* \"#utility.yul\":20636:21254   */\n    tag_354:\n        /* \"#utility.yul\":20688:20692   */\n      0x1f\n        /* \"#utility.yul\":20684:20693   */\n      not\n        /* \"#utility.yul\":20676:20682   */\n      dup5\n        /* \"#utility.yul\":20672:20694   */\n      and\n        /* \"#utility.yul\":20722:20759   */\n      tag_357\n        /* \"#utility.yul\":20754:20758   */\n      dup7\n        /* \"#utility.yul\":20722:20759   */\n      tag_144\n      jump\t// in\n    tag_357:\n        /* \"#utility.yul\":20781:20782   */\n      0x00\n        /* \"#utility.yul\":20795:21003   */\n    tag_358:\n        /* \"#utility.yul\":20809:20816   */\n      dup3\n        /* \"#utility.yul\":20806:20807   */\n      dup2\n        /* \"#utility.yul\":20803:20817   */\n      lt\n        /* \"#utility.yul\":20795:21003   */\n      iszero\n      tag_360\n      jumpi\n        /* \"#utility.yul\":20888:20897   */\n      dup5\n        /* \"#utility.yul\":20883:20886   */\n      dup10\n        /* \"#utility.yul\":20879:20898   */\n      add\n        /* \"#utility.yul\":20873:20899   */\n      mload\n        /* \"#utility.yul\":20865:20871   */\n      dup3\n        /* \"#utility.yul\":20858:20900   */\n      sstore\n        /* \"#utility.yul\":20939:20940   */\n      0x01\n        /* \"#utility.yul\":20931:20937   */\n      dup3\n        /* \"#utility.yul\":20927:20941   */\n      add\n        /* \"#utility.yul\":20917:20941   */\n      swap2\n      pop\n        /* \"#utility.yul\":20986:20988   */\n      0x20\n        /* \"#utility.yul\":20975:20984   */\n      dup6\n        /* \"#utility.yul\":20971:20989   */\n      add\n        /* \"#utility.yul\":20958:20989   */\n      swap5\n      pop\n        /* \"#utility.yul\":20832:20836   */\n      0x20\n        /* \"#utility.yul\":20829:20830   */\n      dup2\n        /* \"#utility.yul\":20825:20837   */\n      add\n        /* \"#utility.yul\":20820:20837   */\n      swap1\n      pop\n        /* \"#utility.yul\":20795:21003   */\n      jump(tag_358)\n    tag_360:\n        /* \"#utility.yul\":21031:21037   */\n      dup7\n        /* \"#utility.yul\":21022:21029   */\n      dup4\n        /* \"#utility.yul\":21019:21038   */\n      lt\n        /* \"#utility.yul\":21016:21195   */\n      iszero\n      tag_361\n      jumpi\n        /* \"#utility.yul\":21089:21098   */\n      dup5\n        /* \"#utility.yul\":21084:21087   */\n      dup10\n        /* \"#utility.yul\":21080:21099   */\n      add\n        /* \"#utility.yul\":21074:21100   */\n      mload\n        /* \"#utility.yul\":21132:21180   */\n      tag_362\n        /* \"#utility.yul\":21174:21178   */\n      0x1f\n        /* \"#utility.yul\":21166:21172   */\n      dup10\n        /* \"#utility.yul\":21162:21179   */\n      and\n        /* \"#utility.yul\":21151:21160   */\n      dup3\n        /* \"#utility.yul\":21132:21180   */\n      tag_157\n      jump\t// in\n    tag_362:\n        /* \"#utility.yul\":21124:21130   */\n      dup4\n        /* \"#utility.yul\":21117:21181   */\n      sstore\n        /* \"#utility.yul\":21039:21195   */\n      pop\n        /* \"#utility.yul\":21016:21195   */\n    tag_361:\n        /* \"#utility.yul\":21241:21242   */\n      0x01\n        /* \"#utility.yul\":21237:21238   */\n      0x02\n        /* \"#utility.yul\":21229:21235   */\n      dup9\n        /* \"#utility.yul\":21225:21239   */\n      mul\n        /* \"#utility.yul\":21221:21243   */\n      add\n        /* \"#utility.yul\":21215:21219   */\n      dup9\n        /* \"#utility.yul\":21208:21244   */\n      sstore\n        /* \"#utility.yul\":20643:21254   */\n      pop\n      pop\n      pop\n        /* \"#utility.yul\":20606:21493   */\n    tag_353:\n      pop\n        /* \"#utility.yul\":20196:21499   */\n      pop\n      pop\n      pop\n        /* \"#utility.yul\":20104:21499   */\n      pop\n      pop\n      jump\t// out\n        /* \"#utility.yul\":21505:22240   */\n    tag_97:\n        /* \"#utility.yul\":21722:21726   */\n      0x00\n        /* \"#utility.yul\":21760:21763   */\n      0x80\n        /* \"#utility.yul\":21749:21758   */\n      dup3\n        /* \"#utility.yul\":21745:21764   */\n      add\n        /* \"#utility.yul\":21737:21764   */\n      swap1\n      pop\n        /* \"#utility.yul\":21810:21819   */\n      dup2\n        /* \"#utility.yul\":21804:21808   */\n      dup2\n        /* \"#utility.yul\":21800:21820   */\n      sub\n        /* \"#utility.yul\":21796:21797   */\n      0x00\n        /* \"#utility.yul\":21785:21794   */\n      dup4\n        /* \"#utility.yul\":21781:21798   */\n      add\n        /* \"#utility.yul\":21774:21821   */\n      mstore\n        /* \"#utility.yul\":21838:21916   */\n      tag_364\n        /* \"#utility.yul\":21911:21915   */\n      dup2\n        /* \"#utility.yul\":21902:21908   */\n      dup8\n        /* \"#utility.yul\":21838:21916   */\n      tag_111\n      jump\t// in\n    tag_364:\n        /* \"#utility.yul\":21830:21916   */\n      swap1\n      pop\n        /* \"#utility.yul\":21963:21972   */\n      dup2\n        /* \"#utility.yul\":21957:21961   */\n      dup2\n        /* \"#utility.yul\":21953:21973   */\n      sub\n        /* \"#utility.yul\":21948:21950   */\n      0x20\n        /* \"#utility.yul\":21937:21946   */\n      dup4\n        /* \"#utility.yul\":21933:21951   */\n      add\n        /* \"#utility.yul\":21926:21974   */\n      mstore\n        /* \"#utility.yul\":21991:22069   */\n      tag_365\n        /* \"#utility.yul\":22064:22068   */\n      dup2\n        /* \"#utility.yul\":22055:22061   */\n      dup7\n        /* \"#utility.yul\":21991:22069   */\n      tag_111\n      jump\t// in\n    tag_365:\n        /* \"#utility.yul\":21983:22069   */\n      swap1\n      pop\n        /* \"#utility.yul\":22079:22151   */\n      tag_366\n        /* \"#utility.yul\":22147:22149   */\n      0x40\n        /* \"#utility.yul\":22136:22145   */\n      dup4\n        /* \"#utility.yul\":22132:22150   */\n      add\n        /* \"#utility.yul\":22123:22129   */\n      dup6\n        /* \"#utility.yul\":22079:22151   */\n      tag_112\n      jump\t// in\n    tag_366:\n        /* \"#utility.yul\":22161:22233   */\n      tag_367\n        /* \"#utility.yul\":22229:22231   */\n      0x60\n        /* \"#utility.yul\":22218:22227   */\n      dup4\n        /* \"#utility.yul\":22214:22232   */\n      add\n        /* \"#utility.yul\":22205:22211   */\n      dup5\n        /* \"#utility.yul\":22161:22233   */\n      tag_112\n      jump\t// in\n    tag_367:\n        /* \"#utility.yul\":21505:22240   */\n      swap6\n      swap5\n      pop\n      pop\n      pop\n      pop\n      pop\n      jump\t// out\n\n    auxdata: 0xa264697066735822122096f59f8e00885734acdf008830e7519ccfc7f9d485e0f458929eeeb9a00bc5ef64736f6c63430008190033\n}\n",
				"bytecode": {
					"linkReferences": {},
					"object": "6080604052348015600e575f80fd5b5061154f8061001c5f395ff3fe60806040526004361061006f575f3560e01c80636c563abe1161004d5780636c563abe1461010d5780637b12376e14610129578063b1357b6814610165578063f81bf601146101815761006f565b8063107046bd146100735780633d891f59146100b5578063592cef6d146100f1575b5f80fd5b34801561007e575f80fd5b50610099600480360381019061009491906109fa565b6101a9565b6040516100ac9796959493929190610afd565b60405180910390f35b3480156100c0575f80fd5b506100db60048036038101906100d69190610ba2565b61031d565b6040516100e89190610be0565b60405180910390f35b61010b600480360381019061010691906109fa565b61033d565b005b610127600480360381019061012291906109fa565b610433565b005b348015610134575f80fd5b5061014f600480360381019061014a91906109fa565b61060a565b60405161015c9190610bf9565b60405180910390f35b61017f600480360381019061017a91906109fa565b610627565b005b34801561018c575f80fd5b506101a760048036038101906101a29190610d3e565b6107b2565b005b5f602052805f5260405f205f91509050805f015f9054906101000a900473ffffffffffffffffffffffffffffffffffffffff16908060010180546101ec90610e1a565b80601f016020809104026020016040519081016040528092919081815260200182805461021890610e1a565b80156102635780601f1061023a57610100808354040283529160200191610263565b820191905f5260205f20905b81548152906001019060200180831161024657829003601f168201915b50505050509080600201805461027890610e1a565b80601f01602080910402602001604051908101604052809291908181526020018280546102a490610e1a565b80156102ef5780601f106102c6576101008083540402835291602001916102ef565b820191905f5260205f20905b8154815290600101906020018083116102d257829003601f168201915b505050505090806003015490806004015490806005015490806006015f9054906101000a900460ff16905087565b6001602052815f5260405f20602052805f5260405f205f91509150505481565b5f805f8381526020019081526020015f209050806003015481600501541061039a576040517f08c379a000000000000000000000000000000000000000000000000000000000815260040161039190610eba565b60405180910390fd5b5f60015f8481526020019081526020015f205f3373ffffffffffffffffffffffffffffffffffffffff1673ffffffffffffffffffffffffffffffffffffffff1681526020019081526020015f205490503373ffffffffffffffffffffffffffffffffffffffff166108fc8290811502906040515f60405180830381858888f1935050505015801561042d573d5f803e3d5ffd5b50505050565b5f805f8381526020019081526020015f209050806004015442111561048d576040517f08c379a000000000000000000000000000000000000000000000000000000000815260040161048490610f48565b60405180910390fd5b806006015f9054906101000a900460ff16156104de576040517f08c379a00000000000000000000000000000000000000000000000000000000081526004016104d590610fb0565b60405180910390fd5b5f3411610520576040517f08c379a000000000000000000000000000000000000000000000000000000000815260040161051790611018565b60405180910390fd5b34816005015f8282546105339190611063565b925050819055503460015f8481526020019081526020015f205f3373ffffffffffffffffffffffffffffffffffffffff1673ffffffffffffffffffffffffffffffffffffffff1681526020019081526020015f20819055503373ffffffffffffffffffffffffffffffffffffffff16827f6251418ffd7f504740544ec3d578897633e212c5d658b7dce793c5dc9d2e855e346040516105d29190610be0565b60405180910390a38060030154816005015410610606576001816006015f6101000a81548160ff0219169083151502179055505b5050565b6002602052805f5260405f205f915054906101000a900460ff1681565b5f805f8381526020019081526020015f2090505f81600501549050816006015f9054906101000a900460ff16610692576040517f08c379a0000000000000000000000000000000000000000000000000000000008152600401610689906110e0565b60405180910390fd5b3373ffffffffffffffffffffffffffffffffffffffff16825f015f9054906101000a900473ffffffffffffffffffffffffffffffffffffffff1673ffffffffffffffffffffffffffffffffffffffff1614610722576040517f08c379a000000000000000000000000000000000000000000000000000000000815260040161071990611148565b60405180910390fd5b4282600401541115610769576040517f08c379a0000000000000000000000000000000000000000000000000000000008152600401610760906111d6565b60405180910390fd5b3373ffffffffffffffffffffffffffffffffffffffff166108fc8290811502906040515f60405180830381858888f193505050501580156107ac573d5f803e3d5ffd5b50505050565b60025f8281526020019081526020015f205f9054906101000a900460ff1615610810576040517f08c379a00000000000000000000000000000000000000000000000000000000081526004016108079061123e565b60405180910390fd5b600160025f8381526020019081526020015f205f6101000a81548160ff0219169083151502179055506040518060e001604052803373ffffffffffffffffffffffffffffffffffffffff168152602001868152602001858152602001848152602001834261087e9190611063565b81526020015f81526020015f15158152505f808381526020019081526020015f205f820151815f015f6101000a81548173ffffffffffffffffffffffffffffffffffffffff021916908373ffffffffffffffffffffffffffffffffffffffff16021790555060208201518160010190816108f891906113f9565b50604082015181600201908161090e91906113f9565b50606082015181600301556080820151816004015560a0820151816005015560c0820151816006015f6101000a81548160ff0219169083151502179055509050503373ffffffffffffffffffffffffffffffffffffffff16817fac9b83534845c9e785a6ea70f2d809db1d72ef9a1d981753712d922f5cb55f3987878787426109979190611063565b6040516109a794939291906114c8565b60405180910390a35050505050565b5f604051905090565b5f80fd5b5f80fd5b5f819050919050565b6109d9816109c7565b81146109e3575f80fd5b50565b5f813590506109f4816109d0565b92915050565b5f60208284031215610a0f57610a0e6109bf565b5b5f610a1c848285016109e6565b91505092915050565b5f73ffffffffffffffffffffffffffffffffffffffff82169050919050565b5f610a4e82610a25565b9050919050565b610a5e81610a44565b82525050565b5f81519050919050565b5f82825260208201905092915050565b8281835e5f83830152505050565b5f601f19601f8301169050919050565b5f610aa682610a64565b610ab08185610a6e565b9350610ac0818560208601610a7e565b610ac981610a8c565b840191505092915050565b610add816109c7565b82525050565b5f8115159050919050565b610af781610ae3565b82525050565b5f60e082019050610b105f83018a610a55565b8181036020830152610b228189610a9c565b90508181036040830152610b368188610a9c565b9050610b456060830187610ad4565b610b526080830186610ad4565b610b5f60a0830185610ad4565b610b6c60c0830184610aee565b98975050505050505050565b610b8181610a44565b8114610b8b575f80fd5b50565b5f81359050610b9c81610b78565b92915050565b5f8060408385031215610bb857610bb76109bf565b5b5f610bc5858286016109e6565b9250506020610bd685828601610b8e565b9150509250929050565b5f602082019050610bf35f830184610ad4565b92915050565b5f602082019050610c0c5f830184610aee565b92915050565b5f80fd5b5f80fd5b7f4e487b71000000000000000000000000000000000000000000000000000000005f52604160045260245ffd5b610c5082610a8c565b810181811067ffffffffffffffff82111715610c6f57610c6e610c1a565b5b80604052505050565b5f610c816109b6565b9050610c8d8282610c47565b919050565b5f67ffffffffffffffff821115610cac57610cab610c1a565b5b610cb582610a8c565b9050602081019050919050565b828183375f83830152505050565b5f610ce2610cdd84610c92565b610c78565b905082815260208101848484011115610cfe57610cfd610c16565b5b610d09848285610cc2565b509392505050565b5f82601f830112610d2557610d24610c12565b5b8135610d35848260208601610cd0565b91505092915050565b5f805f805f60a08688031215610d5757610d566109bf565b5b5f86013567ffffffffffffffff811115610d7457610d736109c3565b5b610d8088828901610d11565b955050602086013567ffffffffffffffff811115610da157610da06109c3565b5b610dad88828901610d11565b9450506040610dbe888289016109e6565b9350506060610dcf888289016109e6565b9250506080610de0888289016109e6565b9150509295509295909350565b7f4e487b71000000000000000000000000000000000000000000000000000000005f52602260045260245ffd5b5f6002820490506001821680610e3157607f821691505b602082108103610e4457610e43610ded565b5b50919050565b7f46756e64696e6720676f616c2069732072656163686564202c207573657220635f8201527f616e742077697468647261770000000000000000000000000000000000000000602082015250565b5f610ea4602c83610a6e565b9150610eaf82610e4a565b604082019050919050565b5f6020820190508181035f830152610ed181610e98565b9050919050565b7f50726f6a65637420646561646c696e6520697320616c726561647920706173735f8201527f65642e0000000000000000000000000000000000000000000000000000000000602082015250565b5f610f32602383610a6e565b9150610f3d82610ed8565b604082019050919050565b5f6020820190508181035f830152610f5f81610f26565b9050919050565b7f50726f6a65637420697320616c72656164792066756e646564000000000000005f82015250565b5f610f9a601983610a6e565b9150610fa582610f66565b602082019050919050565b5f6020820190508181035f830152610fc781610f8e565b9050919050565b7f4d7573742073656e7420736f6d652076616c7565206f662065746865722e00005f82015250565b5f611002601e83610a6e565b915061100d82610fce565b602082019050919050565b5f6020820190508181035f83015261102f81610ff6565b9050919050565b7f4e487b71000000000000000000000000000000000000000000000000000000005f52601160045260245ffd5b5f61106d826109c7565b9150611078836109c7565b92508282019050808211156110905761108f611036565b5b92915050565b7f46756e64696e67206973206e6f742073756666696369656e74000000000000005f82015250565b5f6110ca601983610a6e565b91506110d582611096565b602082019050919050565b5f6020820190508181035f8301526110f7816110be565b9050919050565b7f4f6e6c792070726f6a6563742061646d696e2063616e207769746873726177005f82015250565b5f611132601f83610a6e565b915061113d826110fe565b602082019050919050565b5f6020820190508181035f83015261115f81611126565b9050919050565b7f446561646c696e6520666f722070726f6a656374206973206e6f7420726561635f8201527f6865640000000000000000000000000000000000000000000000000000000000602082015250565b5f6111c0602383610a6e565b91506111cb82611166565b604082019050919050565b5f6020820190508181035f8301526111ed816111b4565b9050919050565b7f50726f6a65637420496420697320616c726561647920757365640000000000005f82015250565b5f611228601a83610a6e565b9150611233826111f4565b602082019050919050565b5f6020820190508181035f8301526112558161121c565b9050919050565b5f819050815f5260205f209050919050565b5f6020601f8301049050919050565b5f82821b905092915050565b5f600883026112b87fffffffffffffffffffffffffffffffffffffffffffffffffffffffffffffffff8261127d565b6112c2868361127d565b95508019841693508086168417925050509392505050565b5f819050919050565b5f6112fd6112f86112f3846109c7565b6112da565b6109c7565b9050919050565b5f819050919050565b611316836112e3565b61132a61132282611304565b848454611289565b825550505050565b5f90565b61133e611332565b61134981848461130d565b505050565b5b8181101561136c576113615f82611336565b60018101905061134f565b5050565b601f8211156113b1576113828161125c565b61138b8461126e565b8101602085101561139a578190505b6113ae6113a68561126e565b83018261134e565b50505b505050565b5f82821c905092915050565b5f6113d15f19846008026113b6565b1980831691505092915050565b5f6113e983836113c2565b9150826002028217905092915050565b61140282610a64565b67ffffffffffffffff81111561141b5761141a610c1a565b5b6114258254610e1a565b611430828285611370565b5f60209050601f831160018114611461575f841561144f578287015190505b61145985826113de565b8655506114c0565b601f19841661146f8661125c565b5f5b8281101561149657848901518255600182019150602085019450602081019050611471565b868310156114b357848901516114af601f8916826113c2565b8355505b6001600288020188555050505b505050505050565b5f6080820190508181035f8301526114e08187610a9c565b905081810360208301526114f48186610a9c565b90506115036040830185610ad4565b6115106060830184610ad4565b9594505050505056fea264697066735822122096f59f8e00885734acdf008830e7519ccfc7f9d485e0f458929eeeb9a00bc5ef64736f6c63430008190033",
					"opcodes": "PUSH1 0x80 PUSH1 0x40 MSTORE CALLVALUE DUP1 ISZERO PUSH1 0xE JUMPI PUSH0 DUP1 REVERT JUMPDEST POP PUSH2 0x154F DUP1 PUSH2 0x1C PUSH0 CODECOPY PUSH0 RETURN INVALID PUSH1 0x80 PUSH1 0x40 MSTORE PUSH1 0x4 CALLDATASIZE LT PUSH2 0x6F JUMPI PUSH0 CALLDATALOAD PUSH1 0xE0 SHR DUP1 PUSH4 0x6C563ABE GT PUSH2 0x4D JUMPI DUP1 PUSH4 0x6C563ABE EQ PUSH2 0x10D JUMPI DUP1 PUSH4 0x7B12376E EQ PUSH2 0x129 JUMPI DUP1 PUSH4 0xB1357B68 EQ PUSH2 0x165 JUMPI DUP1 PUSH4 0xF81BF601 EQ PUSH2 0x181 JUMPI PUSH2 0x6F JUMP JUMPDEST DUP1 PUSH4 0x107046BD EQ PUSH2 0x73 JUMPI DUP1 PUSH4 0x3D891F59 EQ PUSH2 0xB5 JUMPI DUP1 PUSH4 0x592CEF6D EQ PUSH2 0xF1 JUMPI JUMPDEST PUSH0 DUP1 REVERT JUMPDEST CALLVALUE DUP1 ISZERO PUSH2 0x7E JUMPI PUSH0 DUP1 REVERT JUMPDEST POP PUSH2 0x99 PUSH1 0x4 DUP1 CALLDATASIZE SUB DUP2 ADD SWAP1 PUSH2 0x94 SWAP2 SWAP1 PUSH2 0x9FA JUMP JUMPDEST PUSH2 0x1A9 JUMP JUMPDEST PUSH1 0x40 MLOAD PUSH2 0xAC SWAP8 SWAP7 SWAP6 SWAP5 SWAP4 SWAP3 SWAP2 SWAP1 PUSH2 0xAFD JUMP JUMPDEST PUSH1 0x40 MLOAD DUP1 SWAP2 SUB SWAP1 RETURN JUMPDEST CALLVALUE DUP1 ISZERO PUSH2 0xC0 JUMPI PUSH0 DUP1 REVERT JUMPDEST POP PUSH2 0xDB PUSH1 0x4 DUP1 CALLDATASIZE SUB DUP2 ADD SWAP1 PUSH2 0xD6 SWAP2 SWAP1 PUSH2 0xBA2 JUMP JUMPDEST PUSH2 0x31D JUMP JUMPDEST PUSH1 0x40 MLOAD PUSH2 0xE8 SWAP2 SWAP1 PUSH2 0xBE0 JUMP JUMPDEST PUSH1 0x40 MLOAD DUP1 SWAP2 SUB SWAP1 RETURN JUMPDEST PUSH2 0x10B PUSH1 0x4 DUP1 CALLDATASIZE SUB DUP2 ADD SWAP1 PUSH2 0x106 SWAP2 SWAP1 PUSH2 0x9FA JUMP JUMPDEST PUSH2 0x33D JUMP JUMPDEST STOP JUMPDEST PUSH2 0x127 PUSH1 0x4 DUP1 CALLDATASIZE SUB DUP2 ADD SWAP1 PUSH2 0x122 SWAP2 SWAP1 PUSH2 0x9FA JUMP JUMPDEST PUSH2 0x433 JUMP JUMPDEST STOP JUMPDEST CALLVALUE DUP1 ISZERO PUSH2 0x134 JUMPI PUSH0 DUP1 REVERT JUMPDEST POP PUSH2 0x14F PUSH1 0x4 DUP1 CALLDATASIZE SUB DUP2 ADD SWAP1 PUSH2 0x14A SWAP2 SWAP1 PUSH2 0x9FA JUMP JUMPDEST PUSH2 0x60A JUMP JUMPDEST PUSH1 0x40 MLOAD PUSH2 0x15C SWAP2 SWAP1 PUSH2 0xBF9 JUMP JUMPDEST PUSH1 0x40 MLOAD DUP1 SWAP2 SUB SWAP1 RETURN JUMPDEST PUSH2 0x17F PUSH1 0x4 DUP1 CALLDATASIZE SUB DUP2 ADD SWAP1 PUSH2 0x17A SWAP2 SWAP1 PUSH2 0x9FA JUMP JUMPDEST PUSH2 0x627 JUMP JUMPDEST STOP JUMPDEST CALLVALUE DUP1 ISZERO PUSH2 0x18C JUMPI PUSH0 DUP1 REVERT JUMPDEST POP PUSH2 0x1A7 PUSH1 0x4 DUP1 CALLDATASIZE SUB DUP2 ADD SWAP1 PUSH2 0x1A2 SWAP2 SWAP1 PUSH2 0xD3E JUMP JUMPDEST PUSH2 0x7B2 JUMP JUMPDEST STOP JUMPDEST PUSH0 PUSH1 0x20 MSTORE DUP1 PUSH0 MSTORE PUSH1 0x40 PUSH0 KECCAK256 PUSH0 SWAP2 POP SWAP1 POP DUP1 PUSH0 ADD PUSH0 SWAP1 SLOAD SWAP1 PUSH2 0x100 EXP SWAP1 DIV PUSH20 0xFFFFFFFFFFFFFFFFFFFFFFFFFFFFFFFFFFFFFFFF AND SWAP1 DUP1 PUSH1 0x1 ADD DUP1 SLOAD PUSH2 0x1EC SWAP1 PUSH2 0xE1A JUMP JUMPDEST DUP1 PUSH1 0x1F ADD PUSH1 0x20 DUP1 SWAP2 DIV MUL PUSH1 0x20 ADD PUSH1 0x40 MLOAD SWAP1 DUP2 ADD PUSH1 0x40 MSTORE DUP1 SWAP3 SWAP2 SWAP1 DUP2 DUP2 MSTORE PUSH1 0x20 ADD DUP3 DUP1 SLOAD PUSH2 0x218 SWAP1 PUSH2 0xE1A JUMP JUMPDEST DUP1 ISZERO PUSH2 0x263 JUMPI DUP1 PUSH1 0x1F LT PUSH2 0x23A JUMPI PUSH2 0x100 DUP1 DUP4 SLOAD DIV MUL DUP4 MSTORE SWAP2 PUSH1 0x20 ADD SWAP2 PUSH2 0x263 JUMP JUMPDEST DUP3 ADD SWAP2 SWAP1 PUSH0 MSTORE PUSH1 0x20 PUSH0 KECCAK256 SWAP1 JUMPDEST DUP2 SLOAD DUP2 MSTORE SWAP1 PUSH1 0x1 ADD SWAP1 PUSH1 0x20 ADD DUP1 DUP4 GT PUSH2 0x246 JUMPI DUP3 SWAP1 SUB PUSH1 0x1F AND DUP3 ADD SWAP2 JUMPDEST POP POP POP POP POP SWAP1 DUP1 PUSH1 0x2 ADD DUP1 SLOAD PUSH2 0x278 SWAP1 PUSH2 0xE1A JUMP JUMPDEST DUP1 PUSH1 0x1F ADD PUSH1 0x20 DUP1 SWAP2 DIV MUL PUSH1 0x20 ADD PUSH1 0x40 MLOAD SWAP1 DUP2 ADD PUSH1 0x40 MSTORE DUP1 SWAP3 SWAP2 SWAP1 DUP2 DUP2 MSTORE PUSH1 0x20 ADD DUP3 DUP1 SLOAD PUSH2 0x2A4 SWAP1 PUSH2 0xE1A JUMP JUMPDEST DUP1 ISZERO PUSH2 0x2EF JUMPI DUP1 PUSH1 0x1F LT PUSH2 0x2C6 JUMPI PUSH2 0x100 DUP1 DUP4 SLOAD DIV MUL DUP4 MSTORE SWAP2 PUSH1 0x20 ADD SWAP2 PUSH2 0x2EF JUMP JUMPDEST DUP3 ADD SWAP2 SWAP1 PUSH0 MSTORE PUSH1 0x20 PUSH0 KECCAK256 SWAP1 JUMPDEST DUP2 SLOAD DUP2 MSTORE SWAP1 PUSH1 0x1 ADD SWAP1 PUSH1 0x20 ADD DUP1 DUP4 GT PUSH2 0x2D2 JUMPI DUP3 SWAP1 SUB PUSH1 0x1F AND DUP3 ADD SWAP2 JUMPDEST POP POP POP POP POP SWAP1 DUP1 PUSH1 0x3 ADD SLOAD SWAP1 DUP1 PUSH1 0x4 ADD SLOAD SWAP1 DUP1 PUSH1 0x5 ADD SLOAD SWAP1 DUP1 PUSH1 0x6 ADD PUSH0 SWAP1 SLOAD SWAP1 PUSH2 0x100 EXP SWAP1 DIV PUSH1 0xFF AND SWAP1 POP DUP8 JUMP JUMPDEST PUSH1 0x1 PUSH1 0x20 MSTORE DUP2 PUSH0 MSTORE PUSH1 0x40 PUSH0 KECCAK256 PUSH1 0x20 MSTORE DUP1 PUSH0 MSTORE PUSH1 0x40 PUSH0 KECCAK256 PUSH0 SWAP2 POP SWAP2 POP POP SLOAD DUP2 JUMP JUMPDEST PUSH0 DUP1 PUSH0 DUP4 DUP2 MSTORE PUSH1 0x20 ADD SWAP1 DUP2 MSTORE PUSH1 0x20 ADD PUSH0 KECCAK256 SWAP1 POP DUP1 PUSH1 0x3 ADD SLOAD DUP2 PUSH1 0x5 ADD SLOAD LT PUSH2 0x39A JUMPI PUSH1 0x40 MLOAD PUSH32 0x8C379A000000000000000000000000000000000000000000000000000000000 DUP2 MSTORE PUSH1 0x4 ADD PUSH2 0x391 SWAP1 PUSH2 0xEBA JUMP JUMPDEST PUSH1 0x40 MLOAD DUP1 SWAP2 SUB SWAP1 REVERT JUMPDEST PUSH0 PUSH1 0x1 PUSH0 DUP5 DUP2 MSTORE PUSH1 0x20 ADD SWAP1 DUP2 MSTORE PUSH1 0x20 ADD PUSH0 KECCAK256 PUSH0 CALLER PUSH20 0xFFFFFFFFFFFFFFFFFFFFFFFFFFFFFFFFFFFFFFFF AND PUSH20 0xFFFFFFFFFFFFFFFFFFFFFFFFFFFFFFFFFFFFFFFF AND DUP2 MSTORE PUSH1 0x20 ADD SWAP1 DUP2 MSTORE PUSH1 0x20 ADD PUSH0 KECCAK256 SLOAD SWAP1 POP CALLER PUSH20 0xFFFFFFFFFFFFFFFFFFFFFFFFFFFFFFFFFFFFFFFF AND PUSH2 0x8FC DUP3 SWAP1 DUP2 ISZERO MUL SWAP1 PUSH1 0x40 MLOAD PUSH0 PUSH1 0x40 MLOAD DUP1 DUP4 SUB DUP2 DUP6 DUP9 DUP9 CALL SWAP4 POP POP POP POP ISZERO DUP1 ISZERO PUSH2 0x42D JUMPI RETURNDATASIZE PUSH0 DUP1 RETURNDATACOPY RETURNDATASIZE PUSH0 REVERT JUMPDEST POP POP POP POP JUMP JUMPDEST PUSH0 DUP1 PUSH0 DUP4 DUP2 MSTORE PUSH1 0x20 ADD SWAP1 DUP2 MSTORE PUSH1 0x20 ADD PUSH0 KECCAK256 SWAP1 POP DUP1 PUSH1 0x4 ADD SLOAD TIMESTAMP GT ISZERO PUSH2 0x48D JUMPI PUSH1 0x40 MLOAD PUSH32 0x8C379A000000000000000000000000000000000000000000000000000000000 DUP2 MSTORE PUSH1 0x4 ADD PUSH2 0x484 SWAP1 PUSH2 0xF48 JUMP JUMPDEST PUSH1 0x40 MLOAD DUP1 SWAP2 SUB SWAP1 REVERT JUMPDEST DUP1 PUSH1 0x6 ADD PUSH0 SWAP1 SLOAD SWAP1 PUSH2 0x100 EXP SWAP1 DIV PUSH1 0xFF AND ISZERO PUSH2 0x4DE JUMPI PUSH1 0x40 MLOAD PUSH32 0x8C379A000000000000000000000000000000000000000000000000000000000 DUP2 MSTORE PUSH1 0x4 ADD PUSH2 0x4D5 SWAP1 PUSH2 0xFB0 JUMP JUMPDEST PUSH1 0x40 MLOAD DUP1 SWAP2 SUB SWAP1 REVERT JUMPDEST PUSH0 CALLVALUE GT PUSH2 0x520 JUMPI PUSH1 0x40 MLOAD PUSH32 0x8C379A000000000000000000000000000000000000000000000000000000000 DUP2 MSTORE PUSH1 0x4 ADD PUSH2 0x517 SWAP1 PUSH2 0x1018 JUMP JUMPDEST PUSH1 0x40 MLOAD DUP1 SWAP2 SUB SWAP1 REVERT JUMPDEST CALLVALUE DUP2 PUSH1 0x5 ADD PUSH0 DUP3 DUP3 SLOAD PUSH2 0x533 SWAP2 SWAP1 PUSH2 0x1063 JUMP JUMPDEST SWAP3 POP POP DUP2 SWAP1 SSTORE POP CALLVALUE PUSH1 0x1 PUSH0 DUP5 DUP2 MSTORE PUSH1 0x20 ADD SWAP1 DUP2 MSTORE PUSH1 0x20 ADD PUSH0 KECCAK256 PUSH0 CALLER PUSH20 0xFFFFFFFFFFFFFFFFFFFFFFFFFFFFFFFFFFFFFFFF AND PUSH20 0xFFFFFFFFFFFFFFFFFFFFFFFFFFFFFFFFFFFFFFFF AND DUP2 MSTORE PUSH1 0x20 ADD SWAP1 DUP2 MSTORE PUSH1 0x20 ADD PUSH0 KECCAK256 DUP2 SWAP1 SSTORE POP CALLER PUSH20 0xFFFFFFFFFFFFFFFFFFFFFFFFFFFFFFFFFFFFFFFF AND DUP3 PUSH32 0x6251418FFD7F504740544EC3D578897633E212C5D658B7DCE793C5DC9D2E855E CALLVALUE PUSH1 0x40 MLOAD PUSH2 0x5D2 SWAP2 SWAP1 PUSH2 0xBE0 JUMP JUMPDEST PUSH1 0x40 MLOAD DUP1 SWAP2 SUB SWAP1 LOG3 DUP1 PUSH1 0x3 ADD SLOAD DUP2 PUSH1 0x5 ADD SLOAD LT PUSH2 0x606 JUMPI PUSH1 0x1 DUP2 PUSH1 0x6 ADD PUSH0 PUSH2 0x100 EXP DUP2 SLOAD DUP2 PUSH1 0xFF MUL NOT AND SWAP1 DUP4 ISZERO ISZERO MUL OR SWAP1 SSTORE POP JUMPDEST POP POP JUMP JUMPDEST PUSH1 0x2 PUSH1 0x20 MSTORE DUP1 PUSH0 MSTORE PUSH1 0x40 PUSH0 KECCAK256 PUSH0 SWAP2 POP SLOAD SWAP1 PUSH2 0x100 EXP SWAP1 DIV PUSH1 0xFF AND DUP2 JUMP JUMPDEST PUSH0 DUP1 PUSH0 DUP4 DUP2 MSTORE PUSH1 0x20 ADD SWAP1 DUP2 MSTORE PUSH1 0x20 ADD PUSH0 KECCAK256 SWAP1 POP PUSH0 DUP2 PUSH1 0x5 ADD SLOAD SWAP1 POP DUP2 PUSH1 0x6 ADD PUSH0 SWAP1 SLOAD SWAP1 PUSH2 0x100 EXP SWAP1 DIV PUSH1 0xFF AND PUSH2 0x692 JUMPI PUSH1 0x40 MLOAD PUSH32 0x8C379A000000000000000000000000000000000000000000000000000000000 DUP2 MSTORE PUSH1 0x4 ADD PUSH2 0x689 SWAP1 PUSH2 0x10E0 JUMP JUMPDEST PUSH1 0x40 MLOAD DUP1 SWAP2 SUB SWAP1 REVERT JUMPDEST CALLER PUSH20 0xFFFFFFFFFFFFFFFFFFFFFFFFFFFFFFFFFFFFFFFF AND DUP3 PUSH0 ADD PUSH0 SWAP1 SLOAD SWAP1 PUSH2 0x100 EXP SWAP1 DIV PUSH20 0xFFFFFFFFFFFFFFFFFFFFFFFFFFFFFFFFFFFFFFFF AND PUSH20 0xFFFFFFFFFFFFFFFFFFFFFFFFFFFFFFFFFFFFFFFF AND EQ PUSH2 0x722 JUMPI PUSH1 0x40 MLOAD PUSH32 0x8C379A000000000000000000000000000000000000000000000000000000000 DUP2 MSTORE PUSH1 0x4 ADD PUSH2 0x719 SWAP1 PUSH2 0x1148 JUMP JUMPDEST PUSH1 0x40 MLOAD DUP1 SWAP2 SUB SWAP1 REVERT JUMPDEST TIMESTAMP DUP3 PUSH1 0x4 ADD SLOAD GT ISZERO PUSH2 0x769 JUMPI PUSH1 0x40 MLOAD PUSH32 0x8C379A000000000000000000000000000000000000000000000000000000000 DUP2 MSTORE PUSH1 0x4 ADD PUSH2 0x760 SWAP1 PUSH2 0x11D6 JUMP JUMPDEST PUSH1 0x40 MLOAD DUP1 SWAP2 SUB SWAP1 REVERT JUMPDEST CALLER PUSH20 0xFFFFFFFFFFFFFFFFFFFFFFFFFFFFFFFFFFFFFFFF AND PUSH2 0x8FC DUP3 SWAP1 DUP2 ISZERO MUL SWAP1 PUSH1 0x40 MLOAD PUSH0 PUSH1 0x40 MLOAD DUP1 DUP4 SUB DUP2 DUP6 DUP9 DUP9 CALL SWAP4 POP POP POP POP ISZERO DUP1 ISZERO PUSH2 0x7AC JUMPI RETURNDATASIZE PUSH0 DUP1 RETURNDATACOPY RETURNDATASIZE PUSH0 REVERT JUMPDEST POP POP POP POP JUMP JUMPDEST PUSH1 0x2 PUSH0 DUP3 DUP2 MSTORE PUSH1 0x20 ADD SWAP1 DUP2 MSTORE PUSH1 0x20 ADD PUSH0 KECCAK256 PUSH0 SWAP1 SLOAD SWAP1 PUSH2 0x100 EXP SWAP1 DIV PUSH1 0xFF AND ISZERO PUSH2 0x810 JUMPI PUSH1 0x40 MLOAD PUSH32 0x8C379A000000000000000000000000000000000000000000000000000000000 DUP2 MSTORE PUSH1 0x4 ADD PUSH2 0x807 SWAP1 PUSH2 0x123E JUMP JUMPDEST PUSH1 0x40 MLOAD DUP1 SWAP2 SUB SWAP1 REVERT JUMPDEST PUSH1 0x1 PUSH1 0x2 PUSH0 DUP4 DUP2 MSTORE PUSH1 0x20 ADD SWAP1 DUP2 MSTORE PUSH1 0x20 ADD PUSH0 KECCAK256 PUSH0 PUSH2 0x100 EXP DUP2 SLOAD DUP2 PUSH1 0xFF MUL NOT AND SWAP1 DUP4 ISZERO ISZERO MUL OR SWAP1 SSTORE POP PUSH1 0x40 MLOAD DUP1 PUSH1 0xE0 ADD PUSH1 0x40 MSTORE DUP1 CALLER PUSH20 0xFFFFFFFFFFFFFFFFFFFFFFFFFFFFFFFFFFFFFFFF AND DUP2 MSTORE PUSH1 0x20 ADD DUP7 DUP2 MSTORE PUSH1 0x20 ADD DUP6 DUP2 MSTORE PUSH1 0x20 ADD DUP5 DUP2 MSTORE PUSH1 0x20 ADD DUP4 TIMESTAMP PUSH2 0x87E SWAP2 SWAP1 PUSH2 0x1063 JUMP JUMPDEST DUP2 MSTORE PUSH1 0x20 ADD PUSH0 DUP2 MSTORE PUSH1 0x20 ADD PUSH0 ISZERO ISZERO DUP2 MSTORE POP PUSH0 DUP1 DUP4 DUP2 MSTORE PUSH1 0x20 ADD SWAP1 DUP2 MSTORE PUSH1 0x20 ADD PUSH0 KECCAK256 PUSH0 DUP3 ADD MLOAD DUP2 PUSH0 ADD PUSH0 PUSH2 0x100 EXP DUP2 SLOAD DUP2 PUSH20 0xFFFFFFFFFFFFFFFFFFFFFFFFFFFFFFFFFFFFFFFF MUL NOT AND SWAP1 DUP4 PUSH20 0xFFFFFFFFFFFFFFFFFFFFFFFFFFFFFFFFFFFFFFFF AND MUL OR SWAP1 SSTORE POP PUSH1 0x20 DUP3 ADD MLOAD DUP2 PUSH1 0x1 ADD SWAP1 DUP2 PUSH2 0x8F8 SWAP2 SWAP1 PUSH2 0x13F9 JUMP JUMPDEST POP PUSH1 0x40 DUP3 ADD MLOAD DUP2 PUSH1 0x2 ADD SWAP1 DUP2 PUSH2 0x90E SWAP2 SWAP1 PUSH2 0x13F9 JUMP JUMPDEST POP PUSH1 0x60 DUP3 ADD MLOAD DUP2 PUSH1 0x3 ADD SSTORE PUSH1 0x80 DUP3 ADD MLOAD DUP2 PUSH1 0x4 ADD SSTORE PUSH1 0xA0 DUP3 ADD MLOAD DUP2 PUSH1 0x5 ADD SSTORE PUSH1 0xC0 DUP3 ADD MLOAD DUP2 PUSH1 0x6 ADD PUSH0 PUSH2 0x100 EXP DUP2 SLOAD DUP2 PUSH1 0xFF MUL NOT AND SWAP1 DUP4 ISZERO ISZERO MUL OR SWAP1 SSTORE POP SWAP1 POP POP CALLER PUSH20 0xFFFFFFFFFFFFFFFFFFFFFFFFFFFFFFFFFFFFFFFF AND DUP2 PUSH32 0xAC9B83534845C9E785A6EA70F2D809DB1D72EF9A1D981753712D922F5CB55F39 DUP8 DUP8 DUP8 DUP8 TIMESTAMP PUSH2 0x997 SWAP2 SWAP1 PUSH2 0x1063 JUMP JUMPDEST PUSH1 0x40 MLOAD PUSH2 0x9A7 SWAP5 SWAP4 SWAP3 SWAP2 SWAP1 PUSH2 0x14C8 JUMP JUMPDEST PUSH1 0x40 MLOAD DUP1 SWAP2 SUB SWAP1 LOG3 POP POP POP POP POP JUMP JUMPDEST PUSH0 PUSH1 0x40 MLOAD SWAP1 POP SWAP1 JUMP JUMPDEST PUSH0 DUP1 REVERT JUMPDEST PUSH0 DUP1 REVERT JUMPDEST PUSH0 DUP2 SWAP1 POP SWAP2 SWAP1 POP JUMP JUMPDEST PUSH2 0x9D9 DUP2 PUSH2 0x9C7 JUMP JUMPDEST DUP2 EQ PUSH2 0x9E3 JUMPI PUSH0 DUP1 REVERT JUMPDEST POP JUMP JUMPDEST PUSH0 DUP2 CALLDATALOAD SWAP1 POP PUSH2 0x9F4 DUP2 PUSH2 0x9D0 JUMP JUMPDEST SWAP3 SWAP2 POP POP JUMP JUMPDEST PUSH0 PUSH1 0x20 DUP3 DUP5 SUB SLT ISZERO PUSH2 0xA0F JUMPI PUSH2 0xA0E PUSH2 0x9BF JUMP JUMPDEST JUMPDEST PUSH0 PUSH2 0xA1C DUP5 DUP3 DUP6 ADD PUSH2 0x9E6 JUMP JUMPDEST SWAP2 POP POP SWAP3 SWAP2 POP POP JUMP JUMPDEST PUSH0 PUSH20 0xFFFFFFFFFFFFFFFFFFFFFFFFFFFFFFFFFFFFFFFF DUP3 AND SWAP1 POP SWAP2 SWAP1 POP JUMP JUMPDEST PUSH0 PUSH2 0xA4E DUP3 PUSH2 0xA25 JUMP JUMPDEST SWAP1 POP SWAP2 SWAP1 POP JUMP JUMPDEST PUSH2 0xA5E DUP2 PUSH2 0xA44 JUMP JUMPDEST DUP3 MSTORE POP POP JUMP JUMPDEST PUSH0 DUP2 MLOAD SWAP1 POP SWAP2 SWAP1 POP JUMP JUMPDEST PUSH0 DUP3 DUP3 MSTORE PUSH1 0x20 DUP3 ADD SWAP1 POP SWAP3 SWAP2 POP POP JUMP JUMPDEST DUP3 DUP2 DUP4 MCOPY PUSH0 DUP4 DUP4 ADD MSTORE POP POP POP JUMP JUMPDEST PUSH0 PUSH1 0x1F NOT PUSH1 0x1F DUP4 ADD AND SWAP1 POP SWAP2 SWAP1 POP JUMP JUMPDEST PUSH0 PUSH2 0xAA6 DUP3 PUSH2 0xA64 JUMP JUMPDEST PUSH2 0xAB0 DUP2 DUP6 PUSH2 0xA6E JUMP JUMPDEST SWAP4 POP PUSH2 0xAC0 DUP2 DUP6 PUSH1 0x20 DUP7 ADD PUSH2 0xA7E JUMP JUMPDEST PUSH2 0xAC9 DUP2 PUSH2 0xA8C JUMP JUMPDEST DUP5 ADD SWAP2 POP POP SWAP3 SWAP2 POP POP JUMP JUMPDEST PUSH2 0xADD DUP2 PUSH2 0x9C7 JUMP JUMPDEST DUP3 MSTORE POP POP JUMP JUMPDEST PUSH0 DUP2 ISZERO ISZERO SWAP1 POP SWAP2 SWAP1 POP JUMP JUMPDEST PUSH2 0xAF7 DUP2 PUSH2 0xAE3 JUMP JUMPDEST DUP3 MSTORE POP POP JUMP JUMPDEST PUSH0 PUSH1 0xE0 DUP3 ADD SWAP1 POP PUSH2 0xB10 PUSH0 DUP4 ADD DUP11 PUSH2 0xA55 JUMP JUMPDEST DUP2 DUP2 SUB PUSH1 0x20 DUP4 ADD MSTORE PUSH2 0xB22 DUP2 DUP10 PUSH2 0xA9C JUMP JUMPDEST SWAP1 POP DUP2 DUP2 SUB PUSH1 0x40 DUP4 ADD MSTORE PUSH2 0xB36 DUP2 DUP9 PUSH2 0xA9C JUMP JUMPDEST SWAP1 POP PUSH2 0xB45 PUSH1 0x60 DUP4 ADD DUP8 PUSH2 0xAD4 JUMP JUMPDEST PUSH2 0xB52 PUSH1 0x80 DUP4 ADD DUP7 PUSH2 0xAD4 JUMP JUMPDEST PUSH2 0xB5F PUSH1 0xA0 DUP4 ADD DUP6 PUSH2 0xAD4 JUMP JUMPDEST PUSH2 0xB6C PUSH1 0xC0 DUP4 ADD DUP5 PUSH2 0xAEE JUMP JUMPDEST SWAP9 SWAP8 POP POP POP POP POP POP POP POP JUMP JUMPDEST PUSH2 0xB81 DUP2 PUSH2 0xA44 JUMP JUMPDEST DUP2 EQ PUSH2 0xB8B JUMPI PUSH0 DUP1 REVERT JUMPDEST POP JUMP JUMPDEST PUSH0 DUP2 CALLDATALOAD SWAP1 POP PUSH2 0xB9C DUP2 PUSH2 0xB78 JUMP JUMPDEST SWAP3 SWAP2 POP POP JUMP JUMPDEST PUSH0 DUP1 PUSH1 0x40 DUP4 DUP6 SUB SLT ISZERO PUSH2 0xBB8 JUMPI PUSH2 0xBB7 PUSH2 0x9BF JUMP JUMPDEST JUMPDEST PUSH0 PUSH2 0xBC5 DUP6 DUP3 DUP7 ADD PUSH2 0x9E6 JUMP JUMPDEST SWAP3 POP POP PUSH1 0x20 PUSH2 0xBD6 DUP6 DUP3 DUP7 ADD PUSH2 0xB8E JUMP JUMPDEST SWAP2 POP POP SWAP3 POP SWAP3 SWAP1 POP JUMP JUMPDEST PUSH0 PUSH1 0x20 DUP3 ADD SWAP1 POP PUSH2 0xBF3 PUSH0 DUP4 ADD DUP5 PUSH2 0xAD4 JUMP JUMPDEST SWAP3 SWAP2 POP POP JUMP JUMPDEST PUSH0 PUSH1 0x20 DUP3 ADD SWAP1 POP PUSH2 0xC0C PUSH0 DUP4 ADD DUP5 PUSH2 0xAEE JUMP JUMPDEST SWAP3 SWAP2 POP POP JUMP JUMPDEST PUSH0 DUP1 REVERT JUMPDEST PUSH0 DUP1 REVERT JUMPDEST PUSH32 0x4E487B7100000000000000000000000000000000000000000000000000000000 PUSH0 MSTORE PUSH1 0x41 PUSH1 0x4 MSTORE PUSH1 0x24 PUSH0 REVERT JUMPDEST PUSH2 0xC50 DUP3 PUSH2 0xA8C JUMP JUMPDEST DUP2 ADD DUP2 DUP2 LT PUSH8 0xFFFFFFFFFFFFFFFF DUP3 GT OR ISZERO PUSH2 0xC6F JUMPI PUSH2 0xC6E PUSH2 0xC1A JUMP JUMPDEST JUMPDEST DUP1 PUSH1 0x40 MSTORE POP POP POP JUMP JUMPDEST PUSH0 PUSH2 0xC81 PUSH2 0x9B6 JUMP JUMPDEST SWAP1 POP PUSH2 0xC8D DUP3 DUP3 PUSH2 0xC47 JUMP JUMPDEST SWAP2 SWAP1 POP JUMP JUMPDEST PUSH0 PUSH8 0xFFFFFFFFFFFFFFFF DUP3 GT ISZERO PUSH2 0xCAC JUMPI PUSH2 0xCAB PUSH2 0xC1A JUMP JUMPDEST JUMPDEST PUSH2 0xCB5 DUP3 PUSH2 0xA8C JUMP JUMPDEST SWAP1 POP PUSH1 0x20 DUP2 ADD SWAP1 POP SWAP2 SWAP1 POP JUMP JUMPDEST DUP3 DUP2 DUP4 CALLDATACOPY PUSH0 DUP4 DUP4 ADD MSTORE POP POP POP JUMP JUMPDEST PUSH0 PUSH2 0xCE2 PUSH2 0xCDD DUP5 PUSH2 0xC92 JUMP JUMPDEST PUSH2 0xC78 JUMP JUMPDEST SWAP1 POP DUP3 DUP2 MSTORE PUSH1 0x20 DUP2 ADD DUP5 DUP5 DUP5 ADD GT ISZERO PUSH2 0xCFE JUMPI PUSH2 0xCFD PUSH2 0xC16 JUMP JUMPDEST JUMPDEST PUSH2 0xD09 DUP5 DUP3 DUP6 PUSH2 0xCC2 JUMP JUMPDEST POP SWAP4 SWAP3 POP POP POP JUMP JUMPDEST PUSH0 DUP3 PUSH1 0x1F DUP4 ADD SLT PUSH2 0xD25 JUMPI PUSH2 0xD24 PUSH2 0xC12 JUMP JUMPDEST JUMPDEST DUP2 CALLDATALOAD PUSH2 0xD35 DUP5 DUP3 PUSH1 0x20 DUP7 ADD PUSH2 0xCD0 JUMP JUMPDEST SWAP2 POP POP SWAP3 SWAP2 POP POP JUMP JUMPDEST PUSH0 DUP1 PUSH0 DUP1 PUSH0 PUSH1 0xA0 DUP7 DUP9 SUB SLT ISZERO PUSH2 0xD57 JUMPI PUSH2 0xD56 PUSH2 0x9BF JUMP JUMPDEST JUMPDEST PUSH0 DUP7 ADD CALLDATALOAD PUSH8 0xFFFFFFFFFFFFFFFF DUP2 GT ISZERO PUSH2 0xD74 JUMPI PUSH2 0xD73 PUSH2 0x9C3 JUMP JUMPDEST JUMPDEST PUSH2 0xD80 DUP9 DUP3 DUP10 ADD PUSH2 0xD11 JUMP JUMPDEST SWAP6 POP POP PUSH1 0x20 DUP7 ADD CALLDATALOAD PUSH8 0xFFFFFFFFFFFFFFFF DUP2 GT ISZERO PUSH2 0xDA1 JUMPI PUSH2 0xDA0 PUSH2 0x9C3 JUMP JUMPDEST JUMPDEST PUSH2 0xDAD DUP9 DUP3 DUP10 ADD PUSH2 0xD11 JUMP JUMPDEST SWAP5 POP POP PUSH1 0x40 PUSH2 0xDBE DUP9 DUP3 DUP10 ADD PUSH2 0x9E6 JUMP JUMPDEST SWAP4 POP POP PUSH1 0x60 PUSH2 0xDCF DUP9 DUP3 DUP10 ADD PUSH2 0x9E6 JUMP JUMPDEST SWAP3 POP POP PUSH1 0x80 PUSH2 0xDE0 DUP9 DUP3 DUP10 ADD PUSH2 0x9E6 JUMP JUMPDEST SWAP2 POP POP SWAP3 SWAP6 POP SWAP3 SWAP6 SWAP1 SWAP4 POP JUMP JUMPDEST PUSH32 0x4E487B7100000000000000000000000000000000000000000000000000000000 PUSH0 MSTORE PUSH1 0x22 PUSH1 0x4 MSTORE PUSH1 0x24 PUSH0 REVERT JUMPDEST PUSH0 PUSH1 0x2 DUP3 DIV SWAP1 POP PUSH1 0x1 DUP3 AND DUP1 PUSH2 0xE31 JUMPI PUSH1 0x7F DUP3 AND SWAP2 POP JUMPDEST PUSH1 0x20 DUP3 LT DUP2 SUB PUSH2 0xE44 JUMPI PUSH2 0xE43 PUSH2 0xDED JUMP JUMPDEST JUMPDEST POP SWAP2 SWAP1 POP JUMP JUMPDEST PUSH32 0x46756E64696E6720676F616C2069732072656163686564202C20757365722063 PUSH0 DUP3 ADD MSTORE PUSH32 0x616E742077697468647261770000000000000000000000000000000000000000 PUSH1 0x20 DUP3 ADD MSTORE POP JUMP JUMPDEST PUSH0 PUSH2 0xEA4 PUSH1 0x2C DUP4 PUSH2 0xA6E JUMP JUMPDEST SWAP2 POP PUSH2 0xEAF DUP3 PUSH2 0xE4A JUMP JUMPDEST PUSH1 0x40 DUP3 ADD SWAP1 POP SWAP2 SWAP1 POP JUMP JUMPDEST PUSH0 PUSH1 0x20 DUP3 ADD SWAP1 POP DUP2 DUP2 SUB PUSH0 DUP4 ADD MSTORE PUSH2 0xED1 DUP2 PUSH2 0xE98 JUMP JUMPDEST SWAP1 POP SWAP2 SWAP1 POP JUMP JUMPDEST PUSH32 0x50726F6A65637420646561646C696E6520697320616C72656164792070617373 PUSH0 DUP3 ADD MSTORE PUSH32 0x65642E0000000000000000000000000000000000000000000000000000000000 PUSH1 0x20 DUP3 ADD MSTORE POP JUMP JUMPDEST PUSH0 PUSH2 0xF32 PUSH1 0x23 DUP4 PUSH2 0xA6E JUMP JUMPDEST SWAP2 POP PUSH2 0xF3D DUP3 PUSH2 0xED8 JUMP JUMPDEST PUSH1 0x40 DUP3 ADD SWAP1 POP SWAP2 SWAP1 POP JUMP JUMPDEST PUSH0 PUSH1 0x20 DUP3 ADD SWAP1 POP DUP2 DUP2 SUB PUSH0 DUP4 ADD MSTORE PUSH2 0xF5F DUP2 PUSH2 0xF26 JUMP JUMPDEST SWAP1 POP SWAP2 SWAP1 POP JUMP JUMPDEST PUSH32 0x50726F6A65637420697320616C72656164792066756E64656400000000000000 PUSH0 DUP3 ADD MSTORE POP JUMP JUMPDEST PUSH0 PUSH2 0xF9A PUSH1 0x19 DUP4 PUSH2 0xA6E JUMP JUMPDEST SWAP2 POP PUSH2 0xFA5 DUP3 PUSH2 0xF66 JUMP JUMPDEST PUSH1 0x20 DUP3 ADD SWAP1 POP SWAP2 SWAP1 POP JUMP JUMPDEST PUSH0 PUSH1 0x20 DUP3 ADD SWAP1 POP DUP2 DUP2 SUB PUSH0 DUP4 ADD MSTORE PUSH2 0xFC7 DUP2 PUSH2 0xF8E JUMP JUMPDEST SWAP1 POP SWAP2 SWAP1 POP JUMP JUMPDEST PUSH32 0x4D7573742073656E7420736F6D652076616C7565206F662065746865722E0000 PUSH0 DUP3 ADD MSTORE POP JUMP JUMPDEST PUSH0 PUSH2 0x1002 PUSH1 0x1E DUP4 PUSH2 0xA6E JUMP JUMPDEST SWAP2 POP PUSH2 0x100D DUP3 PUSH2 0xFCE JUMP JUMPDEST PUSH1 0x20 DUP3 ADD SWAP1 POP SWAP2 SWAP1 POP JUMP JUMPDEST PUSH0 PUSH1 0x20 DUP3 ADD SWAP1 POP DUP2 DUP2 SUB PUSH0 DUP4 ADD MSTORE PUSH2 0x102F DUP2 PUSH2 0xFF6 JUMP JUMPDEST SWAP1 POP SWAP2 SWAP1 POP JUMP JUMPDEST PUSH32 0x4E487B7100000000000000000000000000000000000000000000000000000000 PUSH0 MSTORE PUSH1 0x11 PUSH1 0x4 MSTORE PUSH1 0x24 PUSH0 REVERT JUMPDEST PUSH0 PUSH2 0x106D DUP3 PUSH2 0x9C7 JUMP JUMPDEST SWAP2 POP PUSH2 0x1078 DUP4 PUSH2 0x9C7 JUMP JUMPDEST SWAP3 POP DUP3 DUP3 ADD SWAP1 POP DUP1 DUP3 GT ISZERO PUSH2 0x1090 JUMPI PUSH2 0x108F PUSH2 0x1036 JUMP JUMPDEST JUMPDEST SWAP3 SWAP2 POP POP JUMP JUMPDEST PUSH32 0x46756E64696E67206973206E6F742073756666696369656E7400000000000000 PUSH0 DUP3 ADD MSTORE POP JUMP JUMPDEST PUSH0 PUSH2 0x10CA PUSH1 0x19 DUP4 PUSH2 0xA6E JUMP JUMPDEST SWAP2 POP PUSH2 0x10D5 DUP3 PUSH2 0x1096 JUMP JUMPDEST PUSH1 0x20 DUP3 ADD SWAP1 POP SWAP2 SWAP1 POP JUMP JUMPDEST PUSH0 PUSH1 0x20 DUP3 ADD SWAP1 POP DUP2 DUP2 SUB PUSH0 DUP4 ADD MSTORE PUSH2 0x10F7 DUP2 PUSH2 0x10BE JUMP JUMPDEST SWAP1 POP SWAP2 SWAP1 POP JUMP JUMPDEST PUSH32 0x4F6E6C792070726F6A6563742061646D696E2063616E20776974687372617700 PUSH0 DUP3 ADD MSTORE POP JUMP JUMPDEST PUSH0 PUSH2 0x1132 PUSH1 0x1F DUP4 PUSH2 0xA6E JUMP JUMPDEST SWAP2 POP PUSH2 0x113D DUP3 PUSH2 0x10FE JUMP JUMPDEST PUSH1 0x20 DUP3 ADD SWAP1 POP SWAP2 SWAP1 POP JUMP JUMPDEST PUSH0 PUSH1 0x20 DUP3 ADD SWAP1 POP DUP2 DUP2 SUB PUSH0 DUP4 ADD MSTORE PUSH2 0x115F DUP2 PUSH2 0x1126 JUMP JUMPDEST SWAP1 POP SWAP2 SWAP1 POP JUMP JUMPDEST PUSH32 0x446561646C696E6520666F722070726F6A656374206973206E6F742072656163 PUSH0 DUP3 ADD MSTORE PUSH32 0x6865640000000000000000000000000000000000000000000000000000000000 PUSH1 0x20 DUP3 ADD MSTORE POP JUMP JUMPDEST PUSH0 PUSH2 0x11C0 PUSH1 0x23 DUP4 PUSH2 0xA6E JUMP JUMPDEST SWAP2 POP PUSH2 0x11CB DUP3 PUSH2 0x1166 JUMP JUMPDEST PUSH1 0x40 DUP3 ADD SWAP1 POP SWAP2 SWAP1 POP JUMP JUMPDEST PUSH0 PUSH1 0x20 DUP3 ADD SWAP1 POP DUP2 DUP2 SUB PUSH0 DUP4 ADD MSTORE PUSH2 0x11ED DUP2 PUSH2 0x11B4 JUMP JUMPDEST SWAP1 POP SWAP2 SWAP1 POP JUMP JUMPDEST PUSH32 0x50726F6A65637420496420697320616C72656164792075736564000000000000 PUSH0 DUP3 ADD MSTORE POP JUMP JUMPDEST PUSH0 PUSH2 0x1228 PUSH1 0x1A DUP4 PUSH2 0xA6E JUMP JUMPDEST SWAP2 POP PUSH2 0x1233 DUP3 PUSH2 0x11F4 JUMP JUMPDEST PUSH1 0x20 DUP3 ADD SWAP1 POP SWAP2 SWAP1 POP JUMP JUMPDEST PUSH0 PUSH1 0x20 DUP3 ADD SWAP1 POP DUP2 DUP2 SUB PUSH0 DUP4 ADD MSTORE PUSH2 0x1255 DUP2 PUSH2 0x121C JUMP JUMPDEST SWAP1 POP SWAP2 SWAP1 POP JUMP JUMPDEST PUSH0 DUP2 SWAP1 POP DUP2 PUSH0 MSTORE PUSH1 0x20 PUSH0 KECCAK256 SWAP1 POP SWAP2 SWAP1 POP JUMP JUMPDEST PUSH0 PUSH1 0x20 PUSH1 0x1F DUP4 ADD DIV SWAP1 POP SWAP2 SWAP1 POP JUMP JUMPDEST PUSH0 DUP3 DUP3 SHL SWAP1 POP SWAP3 SWAP2 POP POP JUMP JUMPDEST PUSH0 PUSH1 0x8 DUP4 MUL PUSH2 0x12B8 PUSH32 0xFFFFFFFFFFFFFFFFFFFFFFFFFFFFFFFFFFFFFFFFFFFFFFFFFFFFFFFFFFFFFFFF DUP3 PUSH2 0x127D JUMP JUMPDEST PUSH2 0x12C2 DUP7 DUP4 PUSH2 0x127D JUMP JUMPDEST SWAP6 POP DUP1 NOT DUP5 AND SWAP4 POP DUP1 DUP7 AND DUP5 OR SWAP3 POP POP POP SWAP4 SWAP3 POP POP POP JUMP JUMPDEST PUSH0 DUP2 SWAP1 POP SWAP2 SWAP1 POP JUMP JUMPDEST PUSH0 PUSH2 0x12FD PUSH2 0x12F8 PUSH2 0x12F3 DUP5 PUSH2 0x9C7 JUMP JUMPDEST PUSH2 0x12DA JUMP JUMPDEST PUSH2 0x9C7 JUMP JUMPDEST SWAP1 POP SWAP2 SWAP1 POP JUMP JUMPDEST PUSH0 DUP2 SWAP1 POP SWAP2 SWAP1 POP JUMP JUMPDEST PUSH2 0x1316 DUP4 PUSH2 0x12E3 JUMP JUMPDEST PUSH2 0x132A PUSH2 0x1322 DUP3 PUSH2 0x1304 JUMP JUMPDEST DUP5 DUP5 SLOAD PUSH2 0x1289 JUMP JUMPDEST DUP3 SSTORE POP POP POP POP JUMP JUMPDEST PUSH0 SWAP1 JUMP JUMPDEST PUSH2 0x133E PUSH2 0x1332 JUMP JUMPDEST PUSH2 0x1349 DUP2 DUP5 DUP5 PUSH2 0x130D JUMP JUMPDEST POP POP POP JUMP JUMPDEST JUMPDEST DUP2 DUP2 LT ISZERO PUSH2 0x136C JUMPI PUSH2 0x1361 PUSH0 DUP3 PUSH2 0x1336 JUMP JUMPDEST PUSH1 0x1 DUP2 ADD SWAP1 POP PUSH2 0x134F JUMP JUMPDEST POP POP JUMP JUMPDEST PUSH1 0x1F DUP3 GT ISZERO PUSH2 0x13B1 JUMPI PUSH2 0x1382 DUP2 PUSH2 0x125C JUMP JUMPDEST PUSH2 0x138B DUP5 PUSH2 0x126E JUMP JUMPDEST DUP2 ADD PUSH1 0x20 DUP6 LT ISZERO PUSH2 0x139A JUMPI DUP2 SWAP1 POP JUMPDEST PUSH2 0x13AE PUSH2 0x13A6 DUP6 PUSH2 0x126E JUMP JUMPDEST DUP4 ADD DUP3 PUSH2 0x134E JUMP JUMPDEST POP POP JUMPDEST POP POP POP JUMP JUMPDEST PUSH0 DUP3 DUP3 SHR SWAP1 POP SWAP3 SWAP2 POP POP JUMP JUMPDEST PUSH0 PUSH2 0x13D1 PUSH0 NOT DUP5 PUSH1 0x8 MUL PUSH2 0x13B6 JUMP JUMPDEST NOT DUP1 DUP4 AND SWAP2 POP POP SWAP3 SWAP2 POP POP JUMP JUMPDEST PUSH0 PUSH2 0x13E9 DUP4 DUP4 PUSH2 0x13C2 JUMP JUMPDEST SWAP2 POP DUP3 PUSH1 0x2 MUL DUP3 OR SWAP1 POP SWAP3 SWAP2 POP POP JUMP JUMPDEST PUSH2 0x1402 DUP3 PUSH2 0xA64 JUMP JUMPDEST PUSH8 0xFFFFFFFFFFFFFFFF DUP2 GT ISZERO PUSH2 0x141B JUMPI PUSH2 0x141A PUSH2 0xC1A JUMP JUMPDEST JUMPDEST PUSH2 0x1425 DUP3 SLOAD PUSH2 0xE1A JUMP JUMPDEST PUSH2 0x1430 DUP3 DUP3 DUP6 PUSH2 0x1370 JUMP JUMPDEST PUSH0 PUSH1 0x20 SWAP1 POP PUSH1 0x1F DUP4 GT PUSH1 0x1 DUP2 EQ PUSH2 0x1461 JUMPI PUSH0 DUP5 ISZERO PUSH2 0x144F JUMPI DUP3 DUP8 ADD MLOAD SWAP1 POP JUMPDEST PUSH2 0x1459 DUP6 DUP3 PUSH2 0x13DE JUMP JUMPDEST DUP7 SSTORE POP PUSH2 0x14C0 JUMP JUMPDEST PUSH1 0x1F NOT DUP5 AND PUSH2 0x146F DUP7 PUSH2 0x125C JUMP JUMPDEST PUSH0 JUMPDEST DUP3 DUP2 LT ISZERO PUSH2 0x1496 JUMPI DUP5 DUP10 ADD MLOAD DUP3 SSTORE PUSH1 0x1 DUP3 ADD SWAP2 POP PUSH1 0x20 DUP6 ADD SWAP5 POP PUSH1 0x20 DUP2 ADD SWAP1 POP PUSH2 0x1471 JUMP JUMPDEST DUP7 DUP4 LT ISZERO PUSH2 0x14B3 JUMPI DUP5 DUP10 ADD MLOAD PUSH2 0x14AF PUSH1 0x1F DUP10 AND DUP3 PUSH2 0x13C2 JUMP JUMPDEST DUP4 SSTORE POP JUMPDEST PUSH1 0x1 PUSH1 0x2 DUP9 MUL ADD DUP9 SSTORE POP POP POP JUMPDEST POP POP POP POP POP POP JUMP JUMPDEST PUSH0 PUSH1 0x80 DUP3 ADD SWAP1 POP DUP2 DUP2 SUB PUSH0 DUP4 ADD MSTORE PUSH2 0x14E0 DUP2 DUP8 PUSH2 0xA9C JUMP JUMPDEST SWAP1 POP DUP2 DUP2 SUB PUSH1 0x20 DUP4 ADD MSTORE PUSH2 0x14F4 DUP2 DUP7 PUSH2 0xA9C JUMP JUMPDEST SWAP1 POP PUSH2 0x1503 PUSH1 0x40 DUP4 ADD DUP6 PUSH2 0xAD4 JUMP JUMPDEST PUSH2 0x1510 PUSH1 0x60 DUP4 ADD DUP5 PUSH2 0xAD4 JUMP JUMPDEST SWAP6 SWAP5 POP POP POP POP POP JUMP INVALID LOG2 PUSH5 0x6970667358 0x22 SLT KECCAK256 SWAP7 CREATE2 SWAP16 DUP15 STOP DUP9 JUMPI CALLVALUE 0xAC 0xDF STOP DUP9 ADDRESS 0xE7 MLOAD SWAP13 0xCF 0xC7 0xF9 0xD4 DUP6 0xE0 DELEGATECALL PC SWAP3 SWAP15 0xEE 0xB9 LOG0 SIGNEXTEND 0xC5 0xEF PUSH5 0x736F6C6343 STOP ADDMOD NOT STOP CALLER "
				},
				"gasEstimates": {
					"creation": {
						"codeDepositCost": "1091000",
						"executionCost": "1132",
						"totalCost": "1092132"
					},
					"external": {
						"adminWithdrawFunds(uint256)": "infinite",
						"contributions(uint256,address)": "infinite",
						"createProject(string,string,uint256,uint256,uint256)": "infinite",
						"fundProject(uint256)": "infinite",
						"isIdUsed(uint256)": "2807",
						"projects(uint256)": "infinite",
						"userWithdrawFunds(uint256)": "infinite"
					}
				},
				"methodIdentifiers": {
					"adminWithdrawFunds(uint256)": "b1357b68",
					"contributions(uint256,address)": "3d891f59",
					"createProject(string,string,uint256,uint256,uint256)": "f81bf601",
					"fundProject(uint256)": "6c563abe",
					"isIdUsed(uint256)": "7b12376e",
					"projects(uint256)": "107046bd",
					"userWithdrawFunds(uint256)": "592cef6d"
				}
			},
			"storageLayout": {
				"storage": [
					{
						"astId": 21,
						"contract": "contracts/CrowdTank.sol:CrowdTank",
						"label": "projects",
						"offset": 0,
						"slot": "0",
						"type": "t_mapping(t_uint256,t_struct(Project)16_storage)"
					},
					{
						"astId": 27,
						"contract": "contracts/CrowdTank.sol:CrowdTank",
						"label": "contributions",
						"offset": 0,
						"slot": "1",
						"type": "t_mapping(t_uint256,t_mapping(t_address,t_uint256))"
					},
					{
						"astId": 31,
						"contract": "contracts/CrowdTank.sol:CrowdTank",
						"label": "isIdUsed",
						"offset": 0,
						"slot": "2",
						"type": "t_mapping(t_uint256,t_bool)"
					}
				],
				"types": {
					"t_address": {
						"encoding": "inplace",
						"label": "address",
						"numberOfBytes": "20"
					},
					"t_bool": {
						"encoding": "inplace",
						"label": "bool",
						"numberOfBytes": "1"
					},
					"t_mapping(t_address,t_uint256)": {
						"encoding": "mapping",
						"key": "t_address",
						"label": "mapping(address => uint256)",
						"numberOfBytes": "32",
						"value": "t_uint256"
					},
					"t_mapping(t_uint256,t_bool)": {
						"encoding": "mapping",
						"key": "t_uint256",
						"label": "mapping(uint256 => bool)",
						"numberOfBytes": "32",
						"value": "t_bool"
					},
					"t_mapping(t_uint256,t_mapping(t_address,t_uint256))": {
						"encoding": "mapping",
						"key": "t_uint256",
						"label": "mapping(uint256 => mapping(address => uint256))",
						"numberOfBytes": "32",
						"value": "t_mapping(t_address,t_uint256)"
					},
					"t_mapping(t_uint256,t_struct(Project)16_storage)": {
						"encoding": "mapping",
						"key": "t_uint256",
						"label": "mapping(uint256 => struct CrowdTank.Project)",
						"numberOfBytes": "32",
						"value": "t_struct(Project)16_storage"
					},
					"t_string_storage": {
						"encoding": "bytes",
						"label": "string",
						"numberOfBytes": "32"
					},
					"t_struct(Project)16_storage": {
						"encoding": "inplace",
						"label": "struct CrowdTank.Project",
						"members": [
							{
								"astId": 3,
								"contract": "contracts/CrowdTank.sol:CrowdTank",
								"label": "creator",
								"offset": 0,
								"slot": "0",
								"type": "t_address"
							},
							{
								"astId": 5,
								"contract": "contracts/CrowdTank.sol:CrowdTank",
								"label": "name",
								"offset": 0,
								"slot": "1",
								"type": "t_string_storage"
							},
							{
								"astId": 7,
								"contract": "contracts/CrowdTank.sol:CrowdTank",
								"label": "description",
								"offset": 0,
								"slot": "2",
								"type": "t_string_storage"
							},
							{
								"astId": 9,
								"contract": "contracts/CrowdTank.sol:CrowdTank",
								"label": "fundingGoal",
								"offset": 0,
								"slot": "3",
								"type": "t_uint256"
							},
							{
								"astId": 11,
								"contract": "contracts/CrowdTank.sol:CrowdTank",
								"label": "deadline",
								"offset": 0,
								"slot": "4",
								"type": "t_uint256"
							},
							{
								"astId": 13,
								"contract": "contracts/CrowdTank.sol:CrowdTank",
								"label": "amountRaised",
								"offset": 0,
								"slot": "5",
								"type": "t_uint256"
							},
							{
								"astId": 15,
								"contract": "contracts/CrowdTank.sol:CrowdTank",
								"label": "funded",
								"offset": 0,
								"slot": "6",
								"type": "t_bool"
							}
						],
						"numberOfBytes": "224"
					},
					"t_uint256": {
						"encoding": "inplace",
						"label": "uint256",
						"numberOfBytes": "32"
					}
				}
			},
			"userdoc": {
				"kind": "user",
				"methods": {},
				"version": 1
			}
		}
	}
}